{
  "_format": "hh-sol-artifact-1",
  "contractName": "DirectMessages",
  "sourceName": "contracts/DirectMessages.sol",
  "abi": [
    {
      "inputs": [],
      "stateMutability": "nonpayable",
      "type": "constructor"
    },
    {
      "inputs": [
        {
          "internalType": "address",
          "name": "owner",
          "type": "address"
        }
      ],
      "name": "OwnableInvalidOwner",
      "type": "error"
    },
    {
      "inputs": [
        {
          "internalType": "address",
          "name": "account",
          "type": "address"
        }
      ],
      "name": "OwnableUnauthorizedAccount",
      "type": "error"
    },
    {
      "anonymous": false,
      "inputs": [
        {
          "indexed": true,
          "internalType": "uint256",
          "name": "conversationId",
          "type": "uint256"
        },
        {
          "indexed": true,
          "internalType": "address",
          "name": "participant1",
          "type": "address"
        },
        {
          "indexed": true,
          "internalType": "address",
          "name": "participant2",
          "type": "address"
        }
      ],
      "name": "ConversationCreated",
      "type": "event"
    },
    {
      "anonymous": false,
      "inputs": [
        {
          "indexed": true,
          "internalType": "uint256",
          "name": "messageId",
          "type": "uint256"
        },
        {
          "indexed": true,
          "internalType": "address",
          "name": "reader",
          "type": "address"
        }
      ],
      "name": "MessageRead",
      "type": "event"
    },
    {
      "anonymous": false,
      "inputs": [
        {
          "indexed": true,
          "internalType": "uint256",
          "name": "messageId",
          "type": "uint256"
        },
        {
          "indexed": true,
          "internalType": "address",
          "name": "sender",
          "type": "address"
        },
        {
          "indexed": true,
          "internalType": "address",
          "name": "receiver",
          "type": "address"
        },
        {
          "indexed": false,
          "internalType": "uint256",
          "name": "conversationId",
          "type": "uint256"
        }
      ],
      "name": "MessageSent",
      "type": "event"
    },
    {
      "anonymous": false,
      "inputs": [
        {
          "indexed": true,
          "internalType": "address",
          "name": "previousOwner",
          "type": "address"
        },
        {
          "indexed": true,
          "internalType": "address",
          "name": "newOwner",
          "type": "address"
        }
      ],
      "name": "OwnershipTransferred",
      "type": "event"
    },
    {
      "inputs": [
        {
          "internalType": "address",
          "name": "",
          "type": "address"
        },
        {
          "internalType": "address",
          "name": "",
          "type": "address"
        }
      ],
      "name": "conversationBetweenUsers",
      "outputs": [
        {
          "internalType": "uint256",
          "name": "",
          "type": "uint256"
        }
      ],
      "stateMutability": "view",
      "type": "function"
    },
    {
      "inputs": [
        {
          "internalType": "uint256",
          "name": "",
          "type": "uint256"
        },
        {
          "internalType": "uint256",
          "name": "",
          "type": "uint256"
        }
      ],
      "name": "conversationMessages",
      "outputs": [
        {
          "internalType": "uint256",
          "name": "",
          "type": "uint256"
        }
      ],
      "stateMutability": "view",
      "type": "function"
    },
    {
      "inputs": [
        {
          "internalType": "uint256",
          "name": "",
          "type": "uint256"
        }
      ],
      "name": "conversations",
      "outputs": [
        {
          "internalType": "address",
          "name": "participant1",
          "type": "address"
        },
        {
          "internalType": "address",
          "name": "participant2",
          "type": "address"
        },
        {
          "internalType": "uint256",
          "name": "lastMessageTime",
          "type": "uint256"
        },
        {
          "internalType": "uint256",
          "name": "messageCount",
          "type": "uint256"
        },
        {
          "internalType": "bool",
          "name": "isActive",
          "type": "bool"
        }
      ],
      "stateMutability": "view",
      "type": "function"
    },
    {
      "inputs": [
        {
          "internalType": "uint256",
          "name": "messageId",
          "type": "uint256"
        }
      ],
      "name": "deleteMessage",
      "outputs": [],
      "stateMutability": "nonpayable",
      "type": "function"
    },
    {
      "inputs": [
        {
          "internalType": "uint256",
          "name": "conversationId",
          "type": "uint256"
        }
      ],
      "name": "getConversation",
      "outputs": [
        {
          "components": [
            {
              "internalType": "address",
              "name": "participant1",
              "type": "address"
            },
            {
              "internalType": "address",
              "name": "participant2",
              "type": "address"
            },
            {
              "internalType": "uint256",
              "name": "lastMessageTime",
              "type": "uint256"
            },
            {
              "internalType": "uint256",
              "name": "messageCount",
              "type": "uint256"
            },
            {
              "internalType": "bool",
              "name": "isActive",
              "type": "bool"
            }
          ],
          "internalType": "struct DirectMessages.Conversation",
          "name": "",
          "type": "tuple"
        }
      ],
      "stateMutability": "view",
      "type": "function"
    },
    {
      "inputs": [
        {
          "internalType": "address",
          "name": "user1",
          "type": "address"
        },
        {
          "internalType": "address",
          "name": "user2",
          "type": "address"
        }
      ],
      "name": "getConversationBetweenUsers",
      "outputs": [
        {
          "internalType": "uint256",
          "name": "",
          "type": "uint256"
        }
      ],
      "stateMutability": "view",
      "type": "function"
    },
    {
      "inputs": [
        {
          "internalType": "uint256",
          "name": "conversationId",
          "type": "uint256"
        }
      ],
      "name": "getConversationMessages",
      "outputs": [
        {
          "internalType": "uint256[]",
          "name": "",
          "type": "uint256[]"
        }
      ],
      "stateMutability": "view",
      "type": "function"
    },
    {
      "inputs": [
        {
          "internalType": "uint256",
          "name": "messageId",
          "type": "uint256"
        }
      ],
      "name": "getMessage",
      "outputs": [
        {
          "components": [
            {
              "internalType": "uint256",
              "name": "id",
              "type": "uint256"
            },
            {
              "internalType": "address",
              "name": "sender",
              "type": "address"
            },
            {
              "internalType": "address",
              "name": "receiver",
              "type": "address"
            },
            {
              "internalType": "string",
              "name": "content",
              "type": "string"
            },
            {
              "internalType": "string",
              "name": "ipfsHash",
              "type": "string"
            },
            {
              "internalType": "uint256",
              "name": "timestamp",
              "type": "uint256"
            },
            {
              "internalType": "bool",
              "name": "isRead",
              "type": "bool"
            },
            {
              "internalType": "bool",
              "name": "isDeleted",
              "type": "bool"
            },
            {
              "internalType": "uint256",
              "name": "replyTo",
              "type": "uint256"
            }
          ],
          "internalType": "struct DirectMessages.Message",
          "name": "",
          "type": "tuple"
        }
      ],
      "stateMutability": "view",
      "type": "function"
    },
    {
      "inputs": [
        {
          "internalType": "address",
          "name": "user",
          "type": "address"
        },
        {
          "internalType": "uint256",
          "name": "offset",
          "type": "uint256"
        },
        {
          "internalType": "uint256",
          "name": "limit",
          "type": "uint256"
        }
      ],
      "name": "getRecentConversations",
      "outputs": [
        {
          "internalType": "uint256[]",
          "name": "",
          "type": "uint256[]"
        }
      ],
      "stateMutability": "view",
      "type": "function"
    },
    {
      "inputs": [],
      "name": "getTotalConversationCount",
      "outputs": [
        {
          "internalType": "uint256",
          "name": "",
          "type": "uint256"
        }
      ],
      "stateMutability": "view",
      "type": "function"
    },
    {
      "inputs": [],
      "name": "getTotalMessageCount",
      "outputs": [
        {
          "internalType": "uint256",
          "name": "",
          "type": "uint256"
        }
      ],
      "stateMutability": "view",
      "type": "function"
    },
    {
      "inputs": [
        {
          "internalType": "address",
          "name": "user",
          "type": "address"
        }
      ],
      "name": "getUnreadMessageCount",
      "outputs": [
        {
          "internalType": "uint256",
          "name": "",
          "type": "uint256"
        }
      ],
      "stateMutability": "view",
      "type": "function"
    },
    {
      "inputs": [
        {
          "internalType": "address",
          "name": "user",
          "type": "address"
        }
      ],
      "name": "getUserConversations",
      "outputs": [
        {
          "internalType": "uint256[]",
          "name": "",
          "type": "uint256[]"
        }
      ],
      "stateMutability": "view",
      "type": "function"
    },
    {
      "inputs": [
        {
          "internalType": "uint256",
          "name": "conversationId",
          "type": "uint256"
        }
      ],
      "name": "markConversationAsRead",
      "outputs": [],
      "stateMutability": "nonpayable",
      "type": "function"
    },
    {
      "inputs": [
        {
          "internalType": "uint256",
          "name": "messageId",
          "type": "uint256"
        }
      ],
      "name": "markMessageAsRead",
      "outputs": [],
      "stateMutability": "nonpayable",
      "type": "function"
    },
    {
      "inputs": [
        {
          "internalType": "uint256",
          "name": "",
          "type": "uint256"
        },
        {
          "internalType": "address",
          "name": "",
          "type": "address"
        }
      ],
      "name": "messageReadBy",
      "outputs": [
        {
          "internalType": "bool",
          "name": "",
          "type": "bool"
        }
      ],
      "stateMutability": "view",
      "type": "function"
    },
    {
      "inputs": [
        {
          "internalType": "uint256",
          "name": "",
          "type": "uint256"
        }
      ],
      "name": "messages",
      "outputs": [
        {
          "internalType": "uint256",
          "name": "id",
          "type": "uint256"
        },
        {
          "internalType": "address",
          "name": "sender",
          "type": "address"
        },
        {
          "internalType": "address",
          "name": "receiver",
          "type": "address"
        },
        {
          "internalType": "string",
          "name": "content",
          "type": "string"
        },
        {
          "internalType": "string",
          "name": "ipfsHash",
          "type": "string"
        },
        {
          "internalType": "uint256",
          "name": "timestamp",
          "type": "uint256"
        },
        {
          "internalType": "bool",
          "name": "isRead",
          "type": "bool"
        },
        {
          "internalType": "bool",
          "name": "isDeleted",
          "type": "bool"
        },
        {
          "internalType": "uint256",
          "name": "replyTo",
          "type": "uint256"
        }
      ],
      "stateMutability": "view",
      "type": "function"
    },
    {
      "inputs": [],
      "name": "owner",
      "outputs": [
        {
          "internalType": "address",
          "name": "",
          "type": "address"
        }
      ],
      "stateMutability": "view",
      "type": "function"
    },
    {
      "inputs": [],
      "name": "renounceOwnership",
      "outputs": [],
      "stateMutability": "nonpayable",
      "type": "function"
    },
    {
      "inputs": [
        {
          "internalType": "address",
          "name": "receiver",
          "type": "address"
        },
        {
          "internalType": "string",
          "name": "content",
          "type": "string"
        },
        {
          "internalType": "string",
          "name": "ipfsHash",
          "type": "string"
        },
        {
          "internalType": "uint256",
          "name": "replyTo",
          "type": "uint256"
        }
      ],
      "name": "sendMessage",
      "outputs": [
        {
          "internalType": "uint256",
          "name": "",
          "type": "uint256"
        }
      ],
      "stateMutability": "nonpayable",
      "type": "function"
    },
    {
      "inputs": [
        {
          "internalType": "address",
          "name": "newOwner",
          "type": "address"
        }
      ],
      "name": "transferOwnership",
      "outputs": [],
      "stateMutability": "nonpayable",
      "type": "function"
    },
    {
      "inputs": [
        {
          "internalType": "address",
          "name": "",
          "type": "address"
        },
        {
          "internalType": "uint256",
          "name": "",
          "type": "uint256"
        }
      ],
      "name": "userConversations",
      "outputs": [
        {
          "internalType": "uint256",
          "name": "",
          "type": "uint256"
        }
      ],
      "stateMutability": "view",
      "type": "function"
    }
  ],
  "bytecode": "0x608080604052346071573315605e575f8054336001600160a01b0319821681178355916001600160a01b03909116907f8be0079c531659141344cd1fd0a4f28419497f9722a3daafe3b4186f6b6457e09080a36119cb90816100768239f35b631e4fbdf760e01b5f525f60045260245ffd5b5f80fdfe60806040526004361015610011575f80fd5b5f3560e01c80630779d43214610ae157806307f1ef2c1461136f5780630d80fefd146112a95780631c3f91de1461115b5780631d9caa6914610c645780631f42478514610bf257806367eeabd614610b315780636e118ab814610ae1578063715018a614610a8a57806371cc88f0146108b657806386f79edb1461069b5780638da5cb5b1461067457806392d183611461062b578063a63e10fa146104ab578063abbc892c1461048e578063b021352a14610471578063b888690a146103a0578063c1f101271461028c578063ccfd55e714610243578063dd91150b146101da578063ecb23f42146101945763f2fde38b1461010b575f80fd5b346101905760203660031901126101905761012461146b565b61012c61196f565b6001600160a01b0316801561017d575f80546001600160a01b03198116831782556001600160a01b0316907f8be0079c531659141344cd1fd0a4f28419497f9722a3daafe3b4186f6b6457e09080a3005b631e4fbdf760e01b5f525f60045260245ffd5b5f80fd5b34610190576040366003190112610190576024356004355f52600760205260405f208054821015610190576020916101cb9161167d565b90549060031b1c604051908152f35b34610190576020366003190112610190576004355f52600460205260a060405f20600180831b0381541690600180841b0360018201541690600281015460ff60046003840154930154169260405194855260208501526040840152606083015215156080820152f35b346101905760403660031901126101905761025c61146b565b6001600160a01b03165f90815260056020526040902080546024359190821015610190576020916101cb9161167d565b3461019057602036600319011261019057600435805f52600360205260405f206102b8815415156117a5565b60028101546001600160a01b0316330361036857600601805460ff81166103345760019060ff1916179055805f52600860205260405f2060018060a01b0333165f5260205260405f20600160ff1982541617905533907f0e717203d5558319840e69b0f2050a456ab8ee5ef0fa53dc522de9e70d1b1ba25f80a3005b60405162461bcd60e51b815260206004820152600c60248201526b105b1c9958591e481c99585960a21b6044820152606490fd5b60405162461bcd60e51b815260206004820152601060248201526f2737ba103a3432903932b1b2b4bb32b960811b6044820152606490fd5b34610190576020366003190112610190576004355f52600360205260405f206103cb815415156117a5565b60018101546001600160a01b0316330361043357600601805460ff8160081c166103fc5761ff001916610100179055005b60405162461bcd60e51b815260206004820152600f60248201526e105b1c9958591e4819195b195d1959608a1b6044820152606490fd5b60405162461bcd60e51b81526020600482015260166024820152754f6e6c792073656e6465722063616e2064656c65746560501b6044820152606490fd5b34610190575f366003190112610190576020600154604051908152f35b34610190575f366003190112610190576020600254604051908152f35b34610190576020366003190112610190576001600160a01b036104cc61146b565b16805f52600560205260405f2090604051808360208295549384815201905f5260205f20925f5b81811061061257505061050892500383611508565b5f5f915b83518310156106075761051f8385611732565b515f52600760205260405f20604051808260208294549384815201905f5260205f20925f905b8082106105eb57505061055a92500382611508565b5f5b81518110156105df5761056f8183611732565b515f90815260036020526040902060028101546001600160a01b0316841490816105cf575b816105bc575b506105a8575b60010161055c565b926105b4600191611746565b9390506105a0565b60ff91506006015460081c16158761059a565b600681015460ff16159150610594565b5050916001019161050c565b9160019193506020829186548152019401920184929391610545565b602082604051908152f35b84548352600194850194879450602090930192016104f3565b3461019057604036600319011261019057610644611481565b6004355f52600860205260405f209060018060a01b03165f52602052602060ff60405f2054166040519015158152f35b34610190575f366003190112610190575f546040516001600160a01b039091168152602090f35b34610190576020366003190112610190575f6101006040516106bc816114eb565b828152826020820152826040820152606080820152606060808201528260a08201528260c08201528260e082015201526004355f52600360205260405f2080546107078115156117a5565b60018201546001600160a01b039081165f81815260066020908152604080832060028801548616808552908352818420548452600490925290912080549295939192909116331490811561089f575b501561085a5760405192610769846114eb565b835260208301938452604083019081526107856003830161152a565b606084019081526107986004840161152a565b926080850193845261083760058201549460a08701958652610824600684015494600760c08a019560ff88161515875260ff60e08c019860081c16151588520154966101008a019788526040519a8b9a60208c525160208c015260018060a01b0390511660408b015260018060a01b0390511660608a01525161012060808a01526101408901906115ca565b9051878203601f190160a08901526115ca565b935160c086015251151560e0850152511515610100840152516101208301520390f35b60405162461bcd60e51b815260206004820152601e60248201527f4e6f7420617574686f72697a656420746f2076696577206d65737361676500006044820152606490fd5b600101546001600160a01b03163314905085610756565b34610190576060366003190112610190576108cf61146b565b6024359060443590829060018060a01b03165f52600560205260405f2090604051808360208295549384815201905f5260205f20925f5b818110610a7157505061091b92500383611508565b5f925f5b8351811015610963576109328185611732565b515f526004602052600360405f20015461094f575b60010161091f565b9361095b600191611746565b949050610947565b50929093838101808211610a02578210610a5c575b50506109838261178d565b6109906040519182611508565b828152601f1961099f8461178d565b013660208301375f905f5b8351811080610a53575b15610a41576109c38185611732565b515f526004602052600360405f2001546109e6575b6109e190611746565b6109aa565b94801580610a1657610a02575f1901946109e1905b90506109d8565b634e487b7160e01b5f52601160045260245ffd5b509491610a3b6109e191610a2a8587611732565b51610a358286611732565b52611746565b926109fb565b60405180610a4f8482611644565b0390f35b508483106109b4565b908092935003908111610a0257908380610978565b8454835260019485019487945060209093019201610906565b34610190575f36600319011261019057610aa261196f565b5f80546001600160a01b0319811682556001600160a01b03167f8be0079c531659141344cd1fd0a4f28419497f9722a3daafe3b4186f6b6457e08280a3005b3461019057604036600319011261019057610afa61146b565b610b02611481565b6001600160a01b039182165f908152600660209081526040808320949093168252928352819020549051908152f35b3461019057602036600319011261019057600435805f526004602052610b7f60405f20610b6460ff6004830154166116a6565b80546001600160a01b03163314908115610bdb575b506116f2565b5f52600760205260405f206040519081602082549182815201915f5260205f20905f5b818110610bc557610a4f85610bb981870382611508565b60405191829182611644565b8254845260209093019260019283019201610ba2565b600101546001600160a01b03163314905083610b79565b34610190576020366003190112610190576001600160a01b03610c1361146b565b165f52600560205260405f206040519081602082549182815201915f5260205f20905f5b818110610c4e57610a4f85610bb981870382611508565b8254845260209093019260019283019201610c37565b3461019057608036600319011261019057610c7d61146b565b60243567ffffffffffffffff811161019057610c9d9036906004016115ee565b9060443567ffffffffffffffff811161019057610cbe9036906004016115ee565b906001600160a01b038116908115611123573382146110de578351158015906110d4575b1561108f57610cf190336117ea565b90610cfd600154611746565b9182600155604051610d0e816114eb565b838152336020808301918252604080840186815260608501998a52608085019889524260a086019081525f60c0870181815260e088018281526064356101008a019081528c8452600397889052959092209751885595516001880180546001600160a01b03199081166001600160a01b03938416179091559351600289018054909516911617909255995180519294939192918601919067ffffffffffffffff8211610fbd578190610dc08454611497565b601f811161103f575b50602090601f8311600114610fdc575f92610fd1575b50508160011b915f199060031b1c19161790555b6004840197519889519867ffffffffffffffff8a11610fbd57610e168154611497565b9a601f8c11610f78575b60209b508b90601f8c11600114610f10579a8091600798999a9b9c5f92610f05575b50508160011b915f199060031b1c19161790555b516005860155610e796006860192511515839060ff801983541691151516179055565b51151561ff0082549160081b169061ff00191617905551910155805f526004845242600260405f200155805f5260048452600360405f2001610ebb8154611746565b9055805f5260078452610ed18360405f20611754565b604051908152827f048fe7fb7f676173adbf5a90abbccd6ac9039b2daa74c81dfa961668b5b9305b853393a4604051908152f35b015190508d80610e42565b90601f198c1691835f52815f20925f5b818110610f61575091600193918e60079b9c9d9e9f9410610f49575b505050811b019055610e56565b01515f1960f88460031b161c191690558d8080610f3c565b92938f600181928786015181550195019301610f20565b815f5260205f20601f8c0160051c81019c60208d10610fb3575b601f0160051c019b5b8c8110610fa85750610e20565b5f8155600101610f9b565b909c508c90610f92565b634e487b7160e01b5f52604160045260245ffd5b015190508c80610ddf565b5f8581528281209350601f198516905b818110611027575090846001959493921061100f575b505050811b019055610df3565b01515f1960f88460031b161c191690558c8080611002565b92936020600181928786015181550195019301610fec565b909150835f5260205f20601f840160051c81019160208510611085575b90601f859493920160051c01905b8181106110775750610dc9565b5f815584935060010161106a565b909150819061105c565b60405162461bcd60e51b815260206004820152601760248201527f4d6573736167652063616e6e6f7420626520656d7074790000000000000000006044820152606490fd5b5082511515610ce2565b60405162461bcd60e51b815260206004820152601f60248201527f43616e6e6f742073656e64206d65737361676520746f20796f757273656c66006044820152606490fd5b60405162461bcd60e51b815260206004820152601060248201526f24b73b30b634b2103932b1b2b4bb32b960811b6044820152606490fd5b3461019057602036600319011261019057600435805f52600460205261118e60405f20610b6460ff6004830154166116a6565b5f52600760205260405f20604051808260208294549384815201905f5260205f20925f5b8181106112905750506111c792500382611508565b5f5b815181101561128e57806111df60019284611732565b515f52600360205260405f2033838060a01b03600283015416148061127f575b61120b575b50016111c9565b600601805460ff1916831790556112228184611732565b515f52600860205260405f20828060a01b0333165f5260205260405f208260ff19825416179055336112548285611732565b517f0e717203d5558319840e69b0f2050a456ab8ee5ef0fa53dc522de9e70d1b1ba25f80a383611204565b5060ff600682015416156111ff565b005b84548352600194850194869450602090930192016111b2565b34610190576020366003190112610190576004355f52600360205260405f20805460018060a01b036001830154169160018060a01b0360028201541660ff6112f36003840161152a565b9261134a6113036004830161152a565b61133c60058401549660076006860154950154966040519a8b9a8b5260208b015260408a015261012060608a01526101208901906115ca565b9087820360808901526115ca565b9360a0860152818116151560c086015260081c16151560e08401526101008301520390f35b34610190576020366003190112610190575f608060405161138f816114cf565b82815282602082015282604082015282606082015201526004355f52600460205260a060405f2060ff6004820154166113c7816116a6565b600180841b03825416913383148015611452575b6113e4906116f2565b604051906113f1826114cf565b838252600180861b0360018201541660208301908152608060036002840154936040860194855201549360608101948552019315158452604051948552600180871b0390511660208501525160408401525160608301525115156080820152f35b506113e433600180871b036001840154161490506113db565b600435906001600160a01b038216820361019057565b602435906001600160a01b038216820361019057565b90600182811c921680156114c5575b60208310146114b157565b634e487b7160e01b5f52602260045260245ffd5b91607f16916114a6565b60a0810190811067ffffffffffffffff821117610fbd57604052565b610120810190811067ffffffffffffffff821117610fbd57604052565b90601f8019910116810190811067ffffffffffffffff821117610fbd57604052565b9060405191825f82549261153d84611497565b80845293600181169081156115a85750600114611564575b5061156292500383611508565b565b90505f9291925260205f20905f915b81831061158c575050906020611562928201015f611555565b6020919350806001915483858901015201910190918492611573565b90506020925061156294915060ff191682840152151560051b8201015f611555565b805180835260209291819084018484015e5f828201840152601f01601f1916010190565b81601f820112156101905780359067ffffffffffffffff8211610fbd5760405192611623601f8401601f191660200185611508565b8284526020838301011161019057815f926020809301838601378301015290565b60206040818301928281528451809452019201905f5b8181106116675750505090565b825184526020938401939092019160010161165a565b8054821015611692575f5260205f2001905f90565b634e487b7160e01b5f52603260045260245ffd5b156116ad57565b60405162461bcd60e51b815260206004820152601760248201527f436f6e766572736174696f6e206e6f74206163746976650000000000000000006044820152606490fd5b156116f957565b60405162461bcd60e51b8152602060048201526011602482015270139bdd0818481c185c9d1a58da5c185b9d607a1b6044820152606490fd5b80518210156116925760209160051b010190565b5f198114610a025760010190565b805468010000000000000000811015610fbd576117769160018201815561167d565b819291549060031b91821b915f19901b1916179055565b67ffffffffffffffff8111610fbd5760051b60200190565b156117ac57565b60405162461bcd60e51b815260206004820152601660248201527513595cdcd859d948191bd95cc81b9bdd08195e1a5cdd60521b6044820152606490fd5b60018060a01b031690815f52600660205260405f2060018060a01b0382165f5260205260405f205480611969575060018060a01b0316805f52600660205260405f20825f5260205260405f2054806119695750611848600254611746565b91826002556118e760405161185c816114cf565b82815260208082018581524260408085019182525f606086018181526001608088018181528c845260049788905293909220965187546001600160a01b039182166001600160a01b0319918216178955955192880180549390911692909516919091179093559051600285015590516003840155519101805460ff191691151560ff16919091179055565b805f5260056020526118fc8360405f20611754565b815f5260056020526119118360405f20611754565b805f52600660205260405f20825f526020528260405f2055815f52600660205260405f20815f526020528260405f2055827fd70c784dd825131008ec90e6edf9e7c7fbca600451fbc1fffa2cb9fb9aa2d5195f80a490565b91505090565b5f546001600160a01b0316330361198257565b63118cdaa760e01b5f523360045260245ffdfea264697066735822122039f1e51320be92ab4572a1ba2bc4fa7b157925bae4830eb0e84c0199e3617aaf64736f6c634300081c0033",
  "linkReferences": {},
  "deployedLinkReferences": {}
}