{
  "_format": "hh-sol-artifact-1",
  "contractName": "Marketplace",
  "sourceName": "contracts/Marketplace.sol",
  "abi": [
    {
      "inputs": [],
      "stateMutability": "nonpayable",
      "type": "constructor"
    },
    {
      "inputs": [
        {
          "internalType": "address",
          "name": "owner",
          "type": "address"
        }
      ],
      "name": "OwnableInvalidOwner",
      "type": "error"
    },
    {
      "inputs": [
        {
          "internalType": "address",
          "name": "account",
          "type": "address"
        }
      ],
      "name": "OwnableUnauthorizedAccount",
      "type": "error"
    },
    {
      "inputs": [],
      "name": "ReentrancyGuardReentrantCall",
      "type": "error"
    },
    {
      "anonymous": false,
      "inputs": [
        {
          "indexed": true,
          "internalType": "uint256",
          "name": "listingId",
          "type": "uint256"
        }
      ],
      "name": "ListingCancelled",
      "type": "event"
    },
    {
      "anonymous": false,
      "inputs": [
        {
          "indexed": true,
          "internalType": "uint256",
          "name": "listingId",
          "type": "uint256"
        },
        {
          "indexed": true,
          "internalType": "address",
          "name": "seller",
          "type": "address"
        },
        {
          "indexed": true,
          "internalType": "address",
          "name": "nftContract",
          "type": "address"
        },
        {
          "indexed": false,
          "internalType": "uint256",
          "name": "tokenId",
          "type": "uint256"
        },
        {
          "indexed": false,
          "internalType": "uint256",
          "name": "price",
          "type": "uint256"
        }
      ],
      "name": "ListingCreated",
      "type": "event"
    },
    {
      "anonymous": false,
      "inputs": [
        {
          "indexed": true,
          "internalType": "uint256",
          "name": "listingId",
          "type": "uint256"
        },
        {
          "indexed": true,
          "internalType": "address",
          "name": "buyer",
          "type": "address"
        },
        {
          "indexed": false,
          "internalType": "uint256",
          "name": "price",
          "type": "uint256"
        }
      ],
      "name": "ListingSold",
      "type": "event"
    },
    {
      "anonymous": false,
      "inputs": [
        {
          "indexed": true,
          "internalType": "uint256",
          "name": "offerId",
          "type": "uint256"
        },
        {
          "indexed": false,
          "internalType": "uint256",
          "name": "listingId",
          "type": "uint256"
        }
      ],
      "name": "OfferAccepted",
      "type": "event"
    },
    {
      "anonymous": false,
      "inputs": [
        {
          "indexed": true,
          "internalType": "uint256",
          "name": "offerId",
          "type": "uint256"
        }
      ],
      "name": "OfferCancelled",
      "type": "event"
    },
    {
      "anonymous": false,
      "inputs": [
        {
          "indexed": true,
          "internalType": "uint256",
          "name": "offerId",
          "type": "uint256"
        },
        {
          "indexed": true,
          "internalType": "address",
          "name": "buyer",
          "type": "address"
        },
        {
          "indexed": true,
          "internalType": "address",
          "name": "nftContract",
          "type": "address"
        },
        {
          "indexed": false,
          "internalType": "uint256",
          "name": "tokenId",
          "type": "uint256"
        },
        {
          "indexed": false,
          "internalType": "uint256",
          "name": "price",
          "type": "uint256"
        }
      ],
      "name": "OfferCreated",
      "type": "event"
    },
    {
      "anonymous": false,
      "inputs": [
        {
          "indexed": true,
          "internalType": "address",
          "name": "previousOwner",
          "type": "address"
        },
        {
          "indexed": true,
          "internalType": "address",
          "name": "newOwner",
          "type": "address"
        }
      ],
      "name": "OwnershipTransferred",
      "type": "event"
    },
    {
      "inputs": [
        {
          "internalType": "uint256",
          "name": "offerId",
          "type": "uint256"
        }
      ],
      "name": "acceptOffer",
      "outputs": [],
      "stateMutability": "nonpayable",
      "type": "function"
    },
    {
      "inputs": [
        {
          "internalType": "address",
          "name": "",
          "type": "address"
        },
        {
          "internalType": "uint256",
          "name": "",
          "type": "uint256"
        }
      ],
      "name": "activeListings",
      "outputs": [
        {
          "internalType": "uint256",
          "name": "",
          "type": "uint256"
        }
      ],
      "stateMutability": "view",
      "type": "function"
    },
    {
      "inputs": [
        {
          "internalType": "uint256",
          "name": "listingId",
          "type": "uint256"
        }
      ],
      "name": "buyListing",
      "outputs": [],
      "stateMutability": "payable",
      "type": "function"
    },
    {
      "inputs": [
        {
          "internalType": "uint256",
          "name": "listingId",
          "type": "uint256"
        }
      ],
      "name": "cancelListing",
      "outputs": [],
      "stateMutability": "nonpayable",
      "type": "function"
    },
    {
      "inputs": [
        {
          "internalType": "uint256",
          "name": "offerId",
          "type": "uint256"
        }
      ],
      "name": "cancelOffer",
      "outputs": [],
      "stateMutability": "nonpayable",
      "type": "function"
    },
    {
      "inputs": [
        {
          "internalType": "address",
          "name": "nftContract",
          "type": "address"
        },
        {
          "internalType": "uint256",
          "name": "tokenId",
          "type": "uint256"
        },
        {
          "internalType": "uint256",
          "name": "price",
          "type": "uint256"
        }
      ],
      "name": "createListing",
      "outputs": [
        {
          "internalType": "uint256",
          "name": "",
          "type": "uint256"
        }
      ],
      "stateMutability": "nonpayable",
      "type": "function"
    },
    {
      "inputs": [
        {
          "internalType": "address",
          "name": "nftContract",
          "type": "address"
        },
        {
          "internalType": "uint256",
          "name": "tokenId",
          "type": "uint256"
        },
        {
          "internalType": "uint256",
          "name": "price",
          "type": "uint256"
        },
        {
          "internalType": "uint256",
          "name": "duration",
          "type": "uint256"
        }
      ],
      "name": "createOffer",
      "outputs": [
        {
          "internalType": "uint256",
          "name": "",
          "type": "uint256"
        }
      ],
      "stateMutability": "payable",
      "type": "function"
    },
    {
      "inputs": [
        {
          "internalType": "address",
          "name": "nftContract",
          "type": "address"
        },
        {
          "internalType": "uint256",
          "name": "tokenId",
          "type": "uint256"
        }
      ],
      "name": "getActiveListing",
      "outputs": [
        {
          "components": [
            {
              "internalType": "uint256",
              "name": "id",
              "type": "uint256"
            },
            {
              "internalType": "address",
              "name": "seller",
              "type": "address"
            },
            {
              "internalType": "address",
              "name": "nftContract",
              "type": "address"
            },
            {
              "internalType": "uint256",
              "name": "tokenId",
              "type": "uint256"
            },
            {
              "internalType": "uint256",
              "name": "price",
              "type": "uint256"
            },
            {
              "internalType": "bool",
              "name": "isActive",
              "type": "bool"
            },
            {
              "internalType": "uint256",
              "name": "createdAt",
              "type": "uint256"
            }
          ],
          "internalType": "struct Marketplace.Listing",
          "name": "",
          "type": "tuple"
        }
      ],
      "stateMutability": "view",
      "type": "function"
    },
    {
      "inputs": [
        {
          "internalType": "address",
          "name": "nftContract",
          "type": "address"
        },
        {
          "internalType": "uint256",
          "name": "tokenId",
          "type": "uint256"
        }
      ],
      "name": "getTokenOffers",
      "outputs": [
        {
          "components": [
            {
              "internalType": "uint256",
              "name": "id",
              "type": "uint256"
            },
            {
              "internalType": "address",
              "name": "buyer",
              "type": "address"
            },
            {
              "internalType": "address",
              "name": "nftContract",
              "type": "address"
            },
            {
              "internalType": "uint256",
              "name": "tokenId",
              "type": "uint256"
            },
            {
              "internalType": "uint256",
              "name": "price",
              "type": "uint256"
            },
            {
              "internalType": "bool",
              "name": "isActive",
              "type": "bool"
            },
            {
              "internalType": "uint256",
              "name": "createdAt",
              "type": "uint256"
            },
            {
              "internalType": "uint256",
              "name": "expiresAt",
              "type": "uint256"
            }
          ],
          "internalType": "struct Marketplace.Offer[]",
          "name": "",
          "type": "tuple[]"
        }
      ],
      "stateMutability": "view",
      "type": "function"
    },
    {
      "inputs": [
        {
          "internalType": "address",
          "name": "user",
          "type": "address"
        }
      ],
      "name": "getUserListings",
      "outputs": [
        {
          "components": [
            {
              "internalType": "uint256",
              "name": "id",
              "type": "uint256"
            },
            {
              "internalType": "address",
              "name": "seller",
              "type": "address"
            },
            {
              "internalType": "address",
              "name": "nftContract",
              "type": "address"
            },
            {
              "internalType": "uint256",
              "name": "tokenId",
              "type": "uint256"
            },
            {
              "internalType": "uint256",
              "name": "price",
              "type": "uint256"
            },
            {
              "internalType": "bool",
              "name": "isActive",
              "type": "bool"
            },
            {
              "internalType": "uint256",
              "name": "createdAt",
              "type": "uint256"
            }
          ],
          "internalType": "struct Marketplace.Listing[]",
          "name": "",
          "type": "tuple[]"
        }
      ],
      "stateMutability": "view",
      "type": "function"
    },
    {
      "inputs": [
        {
          "internalType": "address",
          "name": "user",
          "type": "address"
        }
      ],
      "name": "getUserOffers",
      "outputs": [
        {
          "components": [
            {
              "internalType": "uint256",
              "name": "id",
              "type": "uint256"
            },
            {
              "internalType": "address",
              "name": "buyer",
              "type": "address"
            },
            {
              "internalType": "address",
              "name": "nftContract",
              "type": "address"
            },
            {
              "internalType": "uint256",
              "name": "tokenId",
              "type": "uint256"
            },
            {
              "internalType": "uint256",
              "name": "price",
              "type": "uint256"
            },
            {
              "internalType": "bool",
              "name": "isActive",
              "type": "bool"
            },
            {
              "internalType": "uint256",
              "name": "createdAt",
              "type": "uint256"
            },
            {
              "internalType": "uint256",
              "name": "expiresAt",
              "type": "uint256"
            }
          ],
          "internalType": "struct Marketplace.Offer[]",
          "name": "",
          "type": "tuple[]"
        }
      ],
      "stateMutability": "view",
      "type": "function"
    },
    {
      "inputs": [
        {
          "internalType": "uint256",
          "name": "",
          "type": "uint256"
        }
      ],
      "name": "listings",
      "outputs": [
        {
          "internalType": "uint256",
          "name": "id",
          "type": "uint256"
        },
        {
          "internalType": "address",
          "name": "seller",
          "type": "address"
        },
        {
          "internalType": "address",
          "name": "nftContract",
          "type": "address"
        },
        {
          "internalType": "uint256",
          "name": "tokenId",
          "type": "uint256"
        },
        {
          "internalType": "uint256",
          "name": "price",
          "type": "uint256"
        },
        {
          "internalType": "bool",
          "name": "isActive",
          "type": "bool"
        },
        {
          "internalType": "uint256",
          "name": "createdAt",
          "type": "uint256"
        }
      ],
      "stateMutability": "view",
      "type": "function"
    },
    {
      "inputs": [
        {
          "internalType": "uint256",
          "name": "",
          "type": "uint256"
        }
      ],
      "name": "offers",
      "outputs": [
        {
          "internalType": "uint256",
          "name": "id",
          "type": "uint256"
        },
        {
          "internalType": "address",
          "name": "buyer",
          "type": "address"
        },
        {
          "internalType": "address",
          "name": "nftContract",
          "type": "address"
        },
        {
          "internalType": "uint256",
          "name": "tokenId",
          "type": "uint256"
        },
        {
          "internalType": "uint256",
          "name": "price",
          "type": "uint256"
        },
        {
          "internalType": "bool",
          "name": "isActive",
          "type": "bool"
        },
        {
          "internalType": "uint256",
          "name": "createdAt",
          "type": "uint256"
        },
        {
          "internalType": "uint256",
          "name": "expiresAt",
          "type": "uint256"
        }
      ],
      "stateMutability": "view",
      "type": "function"
    },
    {
      "inputs": [],
      "name": "owner",
      "outputs": [
        {
          "internalType": "address",
          "name": "",
          "type": "address"
        }
      ],
      "stateMutability": "view",
      "type": "function"
    },
    {
      "inputs": [],
      "name": "platformFee",
      "outputs": [
        {
          "internalType": "uint256",
          "name": "",
          "type": "uint256"
        }
      ],
      "stateMutability": "view",
      "type": "function"
    },
    {
      "inputs": [],
      "name": "renounceOwnership",
      "outputs": [],
      "stateMutability": "nonpayable",
      "type": "function"
    },
    {
      "inputs": [
        {
          "internalType": "uint256",
          "name": "newFee",
          "type": "uint256"
        }
      ],
      "name": "setPlatformFee",
      "outputs": [],
      "stateMutability": "nonpayable",
      "type": "function"
    },
    {
      "inputs": [
        {
          "internalType": "address",
          "name": "",
          "type": "address"
        },
        {
          "internalType": "uint256",
          "name": "",
          "type": "uint256"
        },
        {
          "internalType": "uint256",
          "name": "",
          "type": "uint256"
        }
      ],
      "name": "tokenOffers",
      "outputs": [
        {
          "internalType": "uint256",
          "name": "",
          "type": "uint256"
        }
      ],
      "stateMutability": "view",
      "type": "function"
    },
    {
      "inputs": [
        {
          "internalType": "address",
          "name": "newOwner",
          "type": "address"
        }
      ],
      "name": "transferOwnership",
      "outputs": [],
      "stateMutability": "nonpayable",
      "type": "function"
    },
    {
      "inputs": [
        {
          "internalType": "address",
          "name": "",
          "type": "address"
        },
        {
          "internalType": "uint256",
          "name": "",
          "type": "uint256"
        }
      ],
      "name": "userListings",
      "outputs": [
        {
          "internalType": "uint256",
          "name": "",
          "type": "uint256"
        }
      ],
      "stateMutability": "view",
      "type": "function"
    },
    {
      "inputs": [
        {
          "internalType": "address",
          "name": "",
          "type": "address"
        },
        {
          "internalType": "uint256",
          "name": "",
          "type": "uint256"
        }
      ],
      "name": "userOffers",
      "outputs": [
        {
          "internalType": "uint256",
          "name": "",
          "type": "uint256"
        }
      ],
      "stateMutability": "view",
      "type": "function"
    }
  ],
  "bytecode": "0x6080806040523460785760015f55331560655760018054336001600160a01b0319821681179092556001600160a01b03167f8be0079c531659141344cd1fd0a4f28419497f9722a3daafe3b4186f6b6457e05f80a360fa600a55611aff908161007d8239f35b631e4fbdf760e01b5f525f60045260245ffd5b5f80fdfe6080806040526004361015610012575f80fd5b5f905f3560e01c9081630c6a1b9e146114c25750806312e8e2c31461146457806324780c561461112b57806326232a2e1461110e578063305a67a81461103f5780634884f45914610e62578063539f8e6514610e1e578063661d2c2c14610ce4578063715018a614610c8757806386cfa7d314610c3f5780638a72ea6a14610bb25780638da5cb5b14610b89578063bad27f9b14610a86578063bd5fec6514610a2f578063c815729d146106ed578063d898aaf2146104db578063de74e57b1461045a578063eb18a9d8146102ab578063ef706adf146101d3578063f2fde38b1461014a5763f4b1250814610105575f80fd5b34610147576040366003190112610147576020906040906001600160a01b0361012c6115ff565b16815260068352818120602435825283522054604051908152f35b80fd5b5034610147576020366003190112610147576101646115ff565b61016c611a84565b6001600160a01b031680156101bf57600180546001600160a01b0319811683179091556001600160a01b03167f8be0079c531659141344cd1fd0a4f28419497f9722a3daafe3b4186f6b6457e08380a380f35b631e4fbdf760e01b82526004829052602482fd5b50346101475760203660031901126101475760043580825260056020526040822060018101546001600160a01b03163303610276578280806004846005839601805461022160ff8216611a45565b60ff19169055015481811561026d575b3390f115610260577fc28b4aed030bfacc245c0501326e1beb8c0ef0d60e4edc21067fdeb52da2a7aa8280a280f35b50604051903d90823e3d90fd5b506108fc610231565b60405162461bcd60e51b815260206004820152600d60248201526c2737ba103a343290313abcb2b960991b6044820152606490fd5b5034610147576020366003190112610147576001600160a01b036102cd6115ff565b1681526008602052604081206040518082602082945493848152019085526020852092855b8181106104415750506103079250038261179c565b8051610312816117be565b90610320604051928361179c565b80825261032f601f19916117be565b01835b81811061042a575050825b82518110156103d9578061035360019285611855565b51855260046020526040852060066040519161036e83611780565b80548352848060a01b0385820154166020840152848060a01b036002820154166040840152600381015460608401526004810154608084015260ff600582015416151560a0840152015460c08201526103c78285611855565b526103d28184611855565b500161033d565b8184604051918291602083016020845282518091526020604085019301915b818110610406575050500390f35b91935091602060e08261041c60019488516116fc565b0194019101918493926103f8565b602090610435611a0f565b82828601015201610332565b84548352600194850194869450602090930192016102f2565b503461014757602036600319011261014757604060e091600435815260046020522080549060018060a01b036001820154169060018060a01b036002820154166003820154600483015491600660ff600586015416940154946040519687526020870152604086015260608501526080840152151560a083015260c0820152f35b506080366003190112610147576104f06115ff565b60643590602435604435610502611aab565b61050d811515611869565b610519813410156119ac565b610e10841015806106e0575b156106a857610535600354611910565b938460035542018042116106945791600193916020969360076040519161055b8361174f565b8883528861061f888c860133815260408701998c8060a01b0316998a815260608801908a825260808901928a8452604060a08b01956001875260c08c0198428a5260e08d019a8b5281526020600590522099518a558e8060a01b039051168e8a01908f8060a01b03166001600160601b0360a01b8254161790558d8060a01b0390511660028901908e8060a01b03166001600160601b0360a01b825416179055516003880155516004870155511515600586019060ff801983541691151516179055565b51600684015551910155828452600787526040842082855287526106468660408620611932565b3384526009875261065a8660408620611932565b60405191825286820152847f6cde6cb15ae436d9a233ffac7fee903539ea6b27dc2065434ae7d3900b6cdd7a60403393a455604051908152f35b634e487b7160e01b86526011600452602486fd5b60405162461bcd60e51b815260206004820152601060248201526f24b73b30b634b210323ab930ba34b7b760811b6044820152606490fd5b5062278d00841115610525565b50346101475760203660031901126101475760043561070a611aab565b8082526005602052604082206005810161072760ff825416611a45565b60078201544210156109fa5760028201908460018060a01b038354169360038101948554906040516331a9108f60e11b8152826004820152602081602481855afa80156109ef5761078a9186916109c0575b506001600160a01b031633146118d4565b600460018060a01b03600185015416930154926107b76127106107af600a54876119ef565b048095611a02565b92823b156109bc57604051632142170760e11b81523360048201526001600160a01b0392909216602483015260448201529084908290606490829084905af19081156109865784916109a3575b508080809381811561099a575b3390f11561026057600154829182918291906001600160a01b0316828215610991575bf11561098657805460ff19169055546001600160a01b03168352600760209081526040808520925485529190528220825b8154811015610953578261087982846116d3565b90549060031b1c14158061092a575b610895575b600101610865565b61089f81836116d3565b90549060031b1c845260056020526005604085200160ff1981541690556108c681836116d3565b90549060031b1c845260056020528380808060018060a01b036001604083200154166108f286886116d3565b90549060031b1c82526005602052600460408320015490828215610921575bf161088d576040513d85823e3d90fd5b506108fc610911565b5061093581836116d3565b90549060031b1c8452600560205260ff600560408620015416610888565b50507f397f87b3946767b09967764d50032941de13a2606bcb39dfed61d7b1ed0192cc6020604051848152a26001815580f35b6040513d86823e3d90fd5b506108fc610834565b506108fc610811565b816109ad9161179c565b6109b857825f610804565b8280fd5b8580fd5b6109e2915060203d6020116109e8575b6109da818361179c565b8101906118b5565b5f610779565b503d6109d0565b6040513d87823e3d90fd5b60405162461bcd60e51b815260206004820152600d60248201526c13d999995c88195e1c1a5c9959609a1b6044820152606490fd5b503461014757604036600319011261014757610a496115ff565b6001600160a01b0316815260096020526040812080546024359290831015610147576020610a7784846116d3565b90549060031b1c604051908152f35b503461014757604036600319011261014757610aa06115ff565b610aa8611a0f565b506001600160a01b0316815260066020908152604080832060243584529091528120548015610b50578160409160e09352600460205220600660405191610aee83611780565b8054835260018101546001600160a01b0390811660208501526002820154166040808501919091526003820154606085015260048201546080850152600582015460ff16151560a085015291015460c08301525190610b4e9082906116fc565bf35b60405162461bcd60e51b81526020600482015260116024820152704e6f20616374697665206c697374696e6760781b6044820152606490fd5b50346101475780600319360112610147576001546040516001600160a01b039091168152602090f35b503461014757602036600319011261014757604061010091600435815260056020522080549060018060a01b036001820154169060018060a01b03600282015416600382015460048301549060ff6005850154169260076006860154950154956040519788526020880152604087015260608601526080850152151560a084015260c083015260e0820152f35b503461014757604036600319011261014757610c596115ff565b6001600160a01b0316815260086020526040812080546024359290831015610147576020610a7784846116d3565b5034610147578060031936011261014757610ca0611a84565b600180546001600160a01b0319811690915581906001600160a01b03167f8be0079c531659141344cd1fd0a4f28419497f9722a3daafe3b4186f6b6457e08280a380f35b5034610147576020366003190112610147576001600160a01b03610d066115ff565b1681526009602052604081206040518082602082945493848152019085526020852092855b818110610e05575050610d409250038261179c565b610d4a81516117d6565b91805b8251811015610df35780610d6360019285611855565b518352600560205260408320600760405191610d7e8361174f565b80548352848060a01b0385820154166020840152848060a01b036002820154166040840152600381015460608401526004810154608084015260ff600582015416151560a0840152600681015460c0840152015460e0820152610de18287611855565b52610dec8186611855565b5001610d4d565b60405180610e018682611615565b0390f35b8454835260019485019486945060209093019201610d2b565b503461014757610e2d366116a9565b929160018060a01b0316825260076020526040822090825260205260408120908154831015610147576020610a7784846116d3565b50602036600319011261103b57600435610e7a611aab565b805f52600460205260405f20906005820191610e9960ff84541661196b565b600481015492610eab843410156119ac565b60018060a01b0360018301541690612710610ec8600a54876119ef565b04610ed38187611a02565b6002850180546003909601805490969195916001600160a01b0316803b1561103b57604051632142170760e11b81526001600160a01b038416600482015233602482015260448101929092525f908290606490829084905af1801561103057611017575b50888080809594819482821561100e575bf11561026057600154829182918291906001600160a01b0316828215611005575bf1156109ef57843411610fd4575b60ff19815416905560018060a01b039054168452600660205260408420905484526020528260408120556040519182527f8e378317cc1b9c64766fd136e5849da5f702d26a8f8b750115b7422909b2309f60203393a36001815580f35b85808080610fe28934611a02565b818115610ffc575b3390f1610f77576040513d87823e3d90fd5b506108fc610fea565b506108fc610f69565b506108fc610f48565b61102691939299505f9061179c565b5f9790915f610f37565b6040513d5f823e3d90fd5b5f80fd5b3461103b57602036600319011261103b57600435805f52600460205260405f2060018060a01b0360018201541633036110d85760058101805461108460ff821661196b565b60ff1916905560018060a01b036002820154165f526006602052600360405f209101545f526020525f60408120557f411aee90354c51b1b04cd563fcab2617142a9d50da19232d888547c8a1b7fd8a5f80a2005b60405162461bcd60e51b815260206004820152600e60248201526d2737ba103a34329039b2b63632b960911b6044820152606490fd5b3461103b575f36600319011261103b576020600a54604051908152f35b3461103b57611139366116a9565b9091611143611aab565b61114e821515611869565b6040516331a9108f60e11b8152600481018490526001600160a01b039190911690602081602481855afa801561103057611199915f9161144557506001600160a01b031633146118d4565b60405163020604bf60e21b815260048101849052602081602481855afa908115611030575f91611426575b506001600160a01b0316301480156113b4575b1561136f57805f52600660205260405f20835f5260205260405f205461133957602092611205600254611910565b928360025560405161121681611780565b84815260068682013381526112ce6040840187815260608501878152608086019087825260a08701926001845260c08801954287528c5f5260048e5260405f209851895560018060a01b03905116600189019060018060a01b03166001600160601b0360a01b82541617905560018060a01b03905116600288019060018060a01b03166001600160601b0360a01b825416179055516003870155516004860155511515600585019060ff801983541691151516179055565b51910155825f526006855260405f20825f5285528360405f2055335f52600885526112fc8460405f20611932565b60405191825284820152827f508c75a3cb42c068e54cf9e0b738921b4e2375725c5965ef4a110475606fc05a60403393a460015f55604051908152f35b60405162461bcd60e51b815260206004820152600e60248201526d105b1c9958591e481b1a5cdd195960921b6044820152606490fd5b60405162461bcd60e51b815260206004820152601860248201527f4d61726b6574706c616365206e6f7420617070726f76656400000000000000006044820152606490fd5b5060405163e985e9c560e01b8152336004820152306024820152602081604481855afa908115611030575f916113eb575b506111d7565b90506020813d60201161141e575b816114066020938361179c565b8101031261103b5751801515810361103b57846113e5565b3d91506113f9565b61143f915060203d6020116109e8576109da818361179c565b846111c4565b61145e915060203d6020116109e8576109da818361179c565b85610779565b3461103b57602036600319011261103b57600435611480611a84565b6103e8811161148e57600a55005b60405162461bcd60e51b815260206004820152600c60248201526b08ccaca40e8dede40d0d2ced60a31b6044820152606490fd5b3461103b57604036600319011261103b576001600160a01b036114e36115ff565b165f52600760205260405f206024355f5260205260405f208181549182825260208201905f5260205f20925f5b8181106115e65750506115259250038261179c565b61152f81516117d6565b905f5b81518110156115d8578061154860019284611855565b515f52600560205260405f206007604051916115638361174f565b80548352848060a01b0385820154166020840152848060a01b036002820154166040840152600381015460608401526004810154608084015260ff600582015416151560a0840152600681015460c0840152015460e08201526115c68286611855565b526115d18185611855565b5001611532565b60405180610e018582611615565b8454835260019485019486945060209093019201611510565b600435906001600160a01b038216820361103b57565b60206040818301928281528451809452019201905f5b8181106116385750505090565b909192602061010060019260e0875180518352858060a01b03858201511685840152858060a01b036040820151166040840152606081015160608401526080810151608084015260a0810151151560a084015260c081015160c0840152015160e0820152019401910191909161162b565b606090600319011261103b576004356001600160a01b038116810361103b57906024359060443590565b80548210156116e8575f5260205f2001905f90565b634e487b7160e01b5f52603260045260245ffd5b60c080918051845260018060a01b03602082015116602085015260018060a01b036040820151166040850152606081015160608501526080810151608085015260a0810151151560a08501520151910152565b610100810190811067ffffffffffffffff82111761176c57604052565b634e487b7160e01b5f52604160045260245ffd5b60e0810190811067ffffffffffffffff82111761176c57604052565b90601f8019910116810190811067ffffffffffffffff82111761176c57604052565b67ffffffffffffffff811161176c5760051b60200190565b906117e0826117be565b6117ed604051918261179c565b82815280926117fe601f19916117be565b01905f5b82811061180e57505050565b60209060405161181d8161174f565b5f81525f838201525f60408201525f60608201525f60808201525f60a08201525f60c08201525f60e082015282828501015201611802565b80518210156116e85760209160051b010190565b1561187057565b60405162461bcd60e51b815260206004820152601c60248201527f5072696365206d7573742062652067726561746572207468616e2030000000006044820152606490fd5b9081602091031261103b57516001600160a01b038116810361103b5790565b156118db57565b60405162461bcd60e51b815260206004820152600d60248201526c2737ba103a34329037bbb732b960991b6044820152606490fd5b5f19811461191e5760010190565b634e487b7160e01b5f52601160045260245ffd5b80546801000000000000000081101561176c57611954916001820181556116d3565b819291549060031b91821b915f19901b1916179055565b1561197257565b60405162461bcd60e51b81526020600482015260126024820152714c697374696e67206e6f742061637469766560701b6044820152606490fd5b156119b357565b60405162461bcd60e51b8152602060048201526014602482015273125b9cdd59999a58da595b9d081c185e5b595b9d60621b6044820152606490fd5b8181029291811591840414171561191e57565b9190820391821161191e57565b60405190611a1c82611780565b5f60c0838281528260208201528260408201528260608201528260808201528260a08201520152565b15611a4c57565b60405162461bcd60e51b815260206004820152601060248201526f4f66666572206e6f742061637469766560801b6044820152606490fd5b6001546001600160a01b03163303611a9857565b63118cdaa760e01b5f523360045260245ffd5b60025f5414611aba5760025f55565b633ee5aeb560e01b5f5260045ffdfea26469706673582212207fd6a6420b11a49264e164c3567ab4186138cb48e6aefe4f2fcf9881cf9e0d9464736f6c634300081c0033",
  "linkReferences": {},
  "deployedLinkReferences": {}
}