{
  "_format": "hh-sol-artifact-1",
  "contractName": "SocialGraph",
  "sourceName": "contracts/SocialGraph.sol",
  "abi": [
    {
      "inputs": [],
      "stateMutability": "nonpayable",
      "type": "constructor"
    },
    {
      "inputs": [
        {
          "internalType": "address",
          "name": "owner",
          "type": "address"
        }
      ],
      "name": "OwnableInvalidOwner",
      "type": "error"
    },
    {
      "inputs": [
        {
          "internalType": "address",
          "name": "account",
          "type": "address"
        }
      ],
      "name": "OwnableUnauthorizedAccount",
      "type": "error"
    },
    {
      "anonymous": false,
      "inputs": [
        {
          "indexed": true,
          "internalType": "uint256",
          "name": "commentId",
          "type": "uint256"
        },
        {
          "indexed": true,
          "internalType": "uint256",
          "name": "postId",
          "type": "uint256"
        },
        {
          "indexed": true,
          "internalType": "address",
          "name": "author",
          "type": "address"
        }
      ],
      "name": "CommentCreated",
      "type": "event"
    },
    {
      "anonymous": false,
      "inputs": [
        {
          "indexed": true,
          "internalType": "uint256",
          "name": "commentId",
          "type": "uint256"
        },
        {
          "indexed": true,
          "internalType": "uint256",
          "name": "postId",
          "type": "uint256"
        },
        {
          "indexed": true,
          "internalType": "address",
          "name": "author",
          "type": "address"
        }
      ],
      "name": "CommentDeleted",
      "type": "event"
    },
    {
      "anonymous": false,
      "inputs": [
        {
          "indexed": true,
          "internalType": "uint256",
          "name": "commentId",
          "type": "uint256"
        },
        {
          "indexed": true,
          "internalType": "address",
          "name": "user",
          "type": "address"
        }
      ],
      "name": "CommentLiked",
      "type": "event"
    },
    {
      "anonymous": false,
      "inputs": [
        {
          "indexed": true,
          "internalType": "uint256",
          "name": "commentId",
          "type": "uint256"
        },
        {
          "indexed": true,
          "internalType": "address",
          "name": "user",
          "type": "address"
        }
      ],
      "name": "CommentUnliked",
      "type": "event"
    },
    {
      "anonymous": false,
      "inputs": [
        {
          "indexed": true,
          "internalType": "address",
          "name": "previousOwner",
          "type": "address"
        },
        {
          "indexed": true,
          "internalType": "address",
          "name": "newOwner",
          "type": "address"
        }
      ],
      "name": "OwnershipTransferred",
      "type": "event"
    },
    {
      "anonymous": false,
      "inputs": [
        {
          "indexed": true,
          "internalType": "uint256",
          "name": "postId",
          "type": "uint256"
        },
        {
          "indexed": true,
          "internalType": "address",
          "name": "user",
          "type": "address"
        }
      ],
      "name": "PostBookmarked",
      "type": "event"
    },
    {
      "anonymous": false,
      "inputs": [
        {
          "indexed": true,
          "internalType": "uint256",
          "name": "postId",
          "type": "uint256"
        },
        {
          "indexed": true,
          "internalType": "address",
          "name": "author",
          "type": "address"
        },
        {
          "indexed": false,
          "internalType": "string",
          "name": "content",
          "type": "string"
        }
      ],
      "name": "PostCreated",
      "type": "event"
    },
    {
      "anonymous": false,
      "inputs": [
        {
          "indexed": true,
          "internalType": "uint256",
          "name": "postId",
          "type": "uint256"
        },
        {
          "indexed": true,
          "internalType": "address",
          "name": "author",
          "type": "address"
        }
      ],
      "name": "PostDeleted",
      "type": "event"
    },
    {
      "anonymous": false,
      "inputs": [
        {
          "indexed": true,
          "internalType": "uint256",
          "name": "postId",
          "type": "uint256"
        },
        {
          "indexed": true,
          "internalType": "address",
          "name": "user",
          "type": "address"
        }
      ],
      "name": "PostLiked",
      "type": "event"
    },
    {
      "anonymous": false,
      "inputs": [
        {
          "indexed": true,
          "internalType": "uint256",
          "name": "postId",
          "type": "uint256"
        },
        {
          "indexed": true,
          "internalType": "address",
          "name": "user",
          "type": "address"
        }
      ],
      "name": "PostPinned",
      "type": "event"
    },
    {
      "anonymous": false,
      "inputs": [
        {
          "indexed": true,
          "internalType": "uint256",
          "name": "quoteId",
          "type": "uint256"
        },
        {
          "indexed": true,
          "internalType": "uint256",
          "name": "quotedPostId",
          "type": "uint256"
        },
        {
          "indexed": true,
          "internalType": "address",
          "name": "author",
          "type": "address"
        },
        {
          "indexed": false,
          "internalType": "string",
          "name": "content",
          "type": "string"
        }
      ],
      "name": "PostQuoted",
      "type": "event"
    },
    {
      "anonymous": false,
      "inputs": [
        {
          "indexed": true,
          "internalType": "uint256",
          "name": "postId",
          "type": "uint256"
        },
        {
          "indexed": true,
          "internalType": "address",
          "name": "user",
          "type": "address"
        }
      ],
      "name": "PostReposted",
      "type": "event"
    },
    {
      "anonymous": false,
      "inputs": [
        {
          "indexed": true,
          "internalType": "uint256",
          "name": "postId",
          "type": "uint256"
        },
        {
          "indexed": true,
          "internalType": "address",
          "name": "user",
          "type": "address"
        }
      ],
      "name": "PostUnbookmarked",
      "type": "event"
    },
    {
      "anonymous": false,
      "inputs": [
        {
          "indexed": true,
          "internalType": "uint256",
          "name": "postId",
          "type": "uint256"
        },
        {
          "indexed": true,
          "internalType": "address",
          "name": "user",
          "type": "address"
        }
      ],
      "name": "PostUnliked",
      "type": "event"
    },
    {
      "anonymous": false,
      "inputs": [
        {
          "indexed": true,
          "internalType": "uint256",
          "name": "postId",
          "type": "uint256"
        },
        {
          "indexed": true,
          "internalType": "address",
          "name": "user",
          "type": "address"
        }
      ],
      "name": "PostUnpinned",
      "type": "event"
    },
    {
      "anonymous": false,
      "inputs": [
        {
          "indexed": true,
          "internalType": "uint256",
          "name": "postId",
          "type": "uint256"
        },
        {
          "indexed": true,
          "internalType": "address",
          "name": "user",
          "type": "address"
        }
      ],
      "name": "PostUnreposted",
      "type": "event"
    },
    {
      "anonymous": false,
      "inputs": [
        {
          "indexed": true,
          "internalType": "uint256",
          "name": "quoteId",
          "type": "uint256"
        },
        {
          "indexed": true,
          "internalType": "address",
          "name": "author",
          "type": "address"
        }
      ],
      "name": "QuoteDeleted",
      "type": "event"
    },
    {
      "anonymous": false,
      "inputs": [
        {
          "indexed": true,
          "internalType": "uint256",
          "name": "quoteId",
          "type": "uint256"
        },
        {
          "indexed": true,
          "internalType": "address",
          "name": "user",
          "type": "address"
        }
      ],
      "name": "QuoteLiked",
      "type": "event"
    },
    {
      "anonymous": false,
      "inputs": [
        {
          "indexed": true,
          "internalType": "uint256",
          "name": "quoteId",
          "type": "uint256"
        },
        {
          "indexed": true,
          "internalType": "address",
          "name": "user",
          "type": "address"
        }
      ],
      "name": "QuoteUnliked",
      "type": "event"
    },
    {
      "anonymous": false,
      "inputs": [
        {
          "indexed": true,
          "internalType": "address",
          "name": "follower",
          "type": "address"
        },
        {
          "indexed": true,
          "internalType": "address",
          "name": "following",
          "type": "address"
        }
      ],
      "name": "UserFollowed",
      "type": "event"
    },
    {
      "anonymous": false,
      "inputs": [
        {
          "indexed": true,
          "internalType": "address",
          "name": "follower",
          "type": "address"
        },
        {
          "indexed": true,
          "internalType": "address",
          "name": "following",
          "type": "address"
        }
      ],
      "name": "UserUnfollowed",
      "type": "event"
    },
    {
      "inputs": [
        {
          "internalType": "uint256",
          "name": "postId",
          "type": "uint256"
        }
      ],
      "name": "bookmarkPost",
      "outputs": [],
      "stateMutability": "nonpayable",
      "type": "function"
    },
    {
      "inputs": [
        {
          "internalType": "uint256",
          "name": "",
          "type": "uint256"
        },
        {
          "internalType": "address",
          "name": "",
          "type": "address"
        }
      ],
      "name": "commentLikes",
      "outputs": [
        {
          "internalType": "bool",
          "name": "",
          "type": "bool"
        }
      ],
      "stateMutability": "view",
      "type": "function"
    },
    {
      "inputs": [
        {
          "internalType": "uint256",
          "name": "",
          "type": "uint256"
        }
      ],
      "name": "comments",
      "outputs": [
        {
          "internalType": "uint256",
          "name": "id",
          "type": "uint256"
        },
        {
          "internalType": "uint256",
          "name": "postId",
          "type": "uint256"
        },
        {
          "internalType": "address",
          "name": "author",
          "type": "address"
        },
        {
          "internalType": "string",
          "name": "content",
          "type": "string"
        },
        {
          "internalType": "uint256",
          "name": "timestamp",
          "type": "uint256"
        },
        {
          "internalType": "uint256",
          "name": "likeCount",
          "type": "uint256"
        },
        {
          "internalType": "bool",
          "name": "isDeleted",
          "type": "bool"
        }
      ],
      "stateMutability": "view",
      "type": "function"
    },
    {
      "inputs": [
        {
          "internalType": "uint256",
          "name": "postId",
          "type": "uint256"
        },
        {
          "internalType": "string",
          "name": "content",
          "type": "string"
        }
      ],
      "name": "createComment",
      "outputs": [
        {
          "internalType": "uint256",
          "name": "",
          "type": "uint256"
        }
      ],
      "stateMutability": "nonpayable",
      "type": "function"
    },
    {
      "inputs": [
        {
          "internalType": "string",
          "name": "content",
          "type": "string"
        },
        {
          "internalType": "string",
          "name": "ipfsHash",
          "type": "string"
        }
      ],
      "name": "createPost",
      "outputs": [
        {
          "internalType": "uint256",
          "name": "",
          "type": "uint256"
        }
      ],
      "stateMutability": "nonpayable",
      "type": "function"
    },
    {
      "inputs": [
        {
          "internalType": "uint256",
          "name": "commentId",
          "type": "uint256"
        }
      ],
      "name": "deleteComment",
      "outputs": [],
      "stateMutability": "nonpayable",
      "type": "function"
    },
    {
      "inputs": [
        {
          "internalType": "uint256",
          "name": "postId",
          "type": "uint256"
        }
      ],
      "name": "deletePost",
      "outputs": [],
      "stateMutability": "nonpayable",
      "type": "function"
    },
    {
      "inputs": [
        {
          "internalType": "uint256",
          "name": "quoteId",
          "type": "uint256"
        }
      ],
      "name": "deleteQuote",
      "outputs": [],
      "stateMutability": "nonpayable",
      "type": "function"
    },
    {
      "inputs": [
        {
          "internalType": "address",
          "name": "userToFollow",
          "type": "address"
        }
      ],
      "name": "followUser",
      "outputs": [],
      "stateMutability": "nonpayable",
      "type": "function"
    },
    {
      "inputs": [
        {
          "internalType": "address",
          "name": "",
          "type": "address"
        }
      ],
      "name": "followerCount",
      "outputs": [
        {
          "internalType": "uint256",
          "name": "",
          "type": "uint256"
        }
      ],
      "stateMutability": "view",
      "type": "function"
    },
    {
      "inputs": [
        {
          "internalType": "address",
          "name": "",
          "type": "address"
        },
        {
          "internalType": "uint256",
          "name": "",
          "type": "uint256"
        }
      ],
      "name": "followers",
      "outputs": [
        {
          "internalType": "address",
          "name": "",
          "type": "address"
        }
      ],
      "stateMutability": "view",
      "type": "function"
    },
    {
      "inputs": [
        {
          "internalType": "address",
          "name": "",
          "type": "address"
        },
        {
          "internalType": "uint256",
          "name": "",
          "type": "uint256"
        }
      ],
      "name": "following",
      "outputs": [
        {
          "internalType": "address",
          "name": "",
          "type": "address"
        }
      ],
      "stateMutability": "view",
      "type": "function"
    },
    {
      "inputs": [
        {
          "internalType": "address",
          "name": "",
          "type": "address"
        }
      ],
      "name": "followingCount",
      "outputs": [
        {
          "internalType": "uint256",
          "name": "",
          "type": "uint256"
        }
      ],
      "stateMutability": "view",
      "type": "function"
    },
    {
      "inputs": [
        {
          "internalType": "address",
          "name": "user",
          "type": "address"
        }
      ],
      "name": "getFollowers",
      "outputs": [
        {
          "internalType": "address[]",
          "name": "",
          "type": "address[]"
        }
      ],
      "stateMutability": "view",
      "type": "function"
    },
    {
      "inputs": [
        {
          "internalType": "address",
          "name": "user",
          "type": "address"
        }
      ],
      "name": "getFollowing",
      "outputs": [
        {
          "internalType": "address[]",
          "name": "",
          "type": "address[]"
        }
      ],
      "stateMutability": "view",
      "type": "function"
    },
    {
      "inputs": [
        {
          "internalType": "address",
          "name": "user",
          "type": "address"
        }
      ],
      "name": "getPinnedPost",
      "outputs": [
        {
          "internalType": "uint256",
          "name": "",
          "type": "uint256"
        }
      ],
      "stateMutability": "view",
      "type": "function"
    },
    {
      "inputs": [
        {
          "internalType": "uint256",
          "name": "postId",
          "type": "uint256"
        }
      ],
      "name": "getPostComments",
      "outputs": [
        {
          "internalType": "uint256[]",
          "name": "",
          "type": "uint256[]"
        }
      ],
      "stateMutability": "view",
      "type": "function"
    },
    {
      "inputs": [
        {
          "internalType": "uint256",
          "name": "postId",
          "type": "uint256"
        }
      ],
      "name": "getPostQuotes",
      "outputs": [
        {
          "internalType": "uint256[]",
          "name": "",
          "type": "uint256[]"
        }
      ],
      "stateMutability": "view",
      "type": "function"
    },
    {
      "inputs": [
        {
          "internalType": "address",
          "name": "user",
          "type": "address"
        }
      ],
      "name": "getUserBookmarks",
      "outputs": [
        {
          "internalType": "uint256[]",
          "name": "",
          "type": "uint256[]"
        }
      ],
      "stateMutability": "view",
      "type": "function"
    },
    {
      "inputs": [
        {
          "internalType": "address",
          "name": "user",
          "type": "address"
        }
      ],
      "name": "getUserComments",
      "outputs": [
        {
          "internalType": "uint256[]",
          "name": "",
          "type": "uint256[]"
        }
      ],
      "stateMutability": "view",
      "type": "function"
    },
    {
      "inputs": [
        {
          "internalType": "address",
          "name": "user",
          "type": "address"
        }
      ],
      "name": "getUserPosts",
      "outputs": [
        {
          "internalType": "uint256[]",
          "name": "",
          "type": "uint256[]"
        }
      ],
      "stateMutability": "view",
      "type": "function"
    },
    {
      "inputs": [
        {
          "internalType": "address",
          "name": "user",
          "type": "address"
        }
      ],
      "name": "getUserQuotes",
      "outputs": [
        {
          "internalType": "uint256[]",
          "name": "",
          "type": "uint256[]"
        }
      ],
      "stateMutability": "view",
      "type": "function"
    },
    {
      "inputs": [
        {
          "internalType": "address",
          "name": "user",
          "type": "address"
        }
      ],
      "name": "getUserReposts",
      "outputs": [
        {
          "internalType": "uint256[]",
          "name": "",
          "type": "uint256[]"
        }
      ],
      "stateMutability": "view",
      "type": "function"
    },
    {
      "inputs": [
        {
          "internalType": "uint256",
          "name": "postId",
          "type": "uint256"
        },
        {
          "internalType": "address",
          "name": "user",
          "type": "address"
        }
      ],
      "name": "hasBookmarked",
      "outputs": [
        {
          "internalType": "bool",
          "name": "",
          "type": "bool"
        }
      ],
      "stateMutability": "view",
      "type": "function"
    },
    {
      "inputs": [
        {
          "internalType": "uint256",
          "name": "commentId",
          "type": "uint256"
        },
        {
          "internalType": "address",
          "name": "user",
          "type": "address"
        }
      ],
      "name": "hasLikedComment",
      "outputs": [
        {
          "internalType": "bool",
          "name": "",
          "type": "bool"
        }
      ],
      "stateMutability": "view",
      "type": "function"
    },
    {
      "inputs": [
        {
          "internalType": "uint256",
          "name": "postId",
          "type": "uint256"
        },
        {
          "internalType": "address",
          "name": "user",
          "type": "address"
        }
      ],
      "name": "hasLikedPost",
      "outputs": [
        {
          "internalType": "bool",
          "name": "",
          "type": "bool"
        }
      ],
      "stateMutability": "view",
      "type": "function"
    },
    {
      "inputs": [
        {
          "internalType": "uint256",
          "name": "postId",
          "type": "uint256"
        },
        {
          "internalType": "address",
          "name": "user",
          "type": "address"
        }
      ],
      "name": "hasReposted",
      "outputs": [
        {
          "internalType": "bool",
          "name": "",
          "type": "bool"
        }
      ],
      "stateMutability": "view",
      "type": "function"
    },
    {
      "inputs": [
        {
          "internalType": "address",
          "name": "",
          "type": "address"
        },
        {
          "internalType": "address",
          "name": "",
          "type": "address"
        }
      ],
      "name": "isFollowing",
      "outputs": [
        {
          "internalType": "bool",
          "name": "",
          "type": "bool"
        }
      ],
      "stateMutability": "view",
      "type": "function"
    },
    {
      "inputs": [
        {
          "internalType": "uint256",
          "name": "commentId",
          "type": "uint256"
        }
      ],
      "name": "likeComment",
      "outputs": [],
      "stateMutability": "nonpayable",
      "type": "function"
    },
    {
      "inputs": [
        {
          "internalType": "uint256",
          "name": "postId",
          "type": "uint256"
        }
      ],
      "name": "likePost",
      "outputs": [],
      "stateMutability": "nonpayable",
      "type": "function"
    },
    {
      "inputs": [
        {
          "internalType": "uint256",
          "name": "quoteId",
          "type": "uint256"
        }
      ],
      "name": "likeQuote",
      "outputs": [],
      "stateMutability": "nonpayable",
      "type": "function"
    },
    {
      "inputs": [],
      "name": "owner",
      "outputs": [
        {
          "internalType": "address",
          "name": "",
          "type": "address"
        }
      ],
      "stateMutability": "view",
      "type": "function"
    },
    {
      "inputs": [
        {
          "internalType": "uint256",
          "name": "postId",
          "type": "uint256"
        }
      ],
      "name": "pinPost",
      "outputs": [],
      "stateMutability": "nonpayable",
      "type": "function"
    },
    {
      "inputs": [
        {
          "internalType": "address",
          "name": "",
          "type": "address"
        }
      ],
      "name": "pinnedPost",
      "outputs": [
        {
          "internalType": "uint256",
          "name": "",
          "type": "uint256"
        }
      ],
      "stateMutability": "view",
      "type": "function"
    },
    {
      "inputs": [
        {
          "internalType": "address",
          "name": "",
          "type": "address"
        },
        {
          "internalType": "uint256",
          "name": "",
          "type": "uint256"
        }
      ],
      "name": "postBookmarks",
      "outputs": [
        {
          "internalType": "bool",
          "name": "",
          "type": "bool"
        }
      ],
      "stateMutability": "view",
      "type": "function"
    },
    {
      "inputs": [
        {
          "internalType": "uint256",
          "name": "",
          "type": "uint256"
        },
        {
          "internalType": "uint256",
          "name": "",
          "type": "uint256"
        }
      ],
      "name": "postComments",
      "outputs": [
        {
          "internalType": "uint256",
          "name": "",
          "type": "uint256"
        }
      ],
      "stateMutability": "view",
      "type": "function"
    },
    {
      "inputs": [
        {
          "internalType": "uint256",
          "name": "",
          "type": "uint256"
        },
        {
          "internalType": "address",
          "name": "",
          "type": "address"
        }
      ],
      "name": "postLikes",
      "outputs": [
        {
          "internalType": "bool",
          "name": "",
          "type": "bool"
        }
      ],
      "stateMutability": "view",
      "type": "function"
    },
    {
      "inputs": [
        {
          "internalType": "uint256",
          "name": "",
          "type": "uint256"
        },
        {
          "internalType": "uint256",
          "name": "",
          "type": "uint256"
        }
      ],
      "name": "postQuotes",
      "outputs": [
        {
          "internalType": "uint256",
          "name": "",
          "type": "uint256"
        }
      ],
      "stateMutability": "view",
      "type": "function"
    },
    {
      "inputs": [
        {
          "internalType": "uint256",
          "name": "",
          "type": "uint256"
        },
        {
          "internalType": "address",
          "name": "",
          "type": "address"
        }
      ],
      "name": "postReposts",
      "outputs": [
        {
          "internalType": "bool",
          "name": "",
          "type": "bool"
        }
      ],
      "stateMutability": "view",
      "type": "function"
    },
    {
      "inputs": [
        {
          "internalType": "uint256",
          "name": "",
          "type": "uint256"
        }
      ],
      "name": "posts",
      "outputs": [
        {
          "internalType": "uint256",
          "name": "id",
          "type": "uint256"
        },
        {
          "internalType": "address",
          "name": "author",
          "type": "address"
        },
        {
          "internalType": "string",
          "name": "content",
          "type": "string"
        },
        {
          "internalType": "string",
          "name": "ipfsHash",
          "type": "string"
        },
        {
          "internalType": "uint256",
          "name": "timestamp",
          "type": "uint256"
        },
        {
          "internalType": "uint256",
          "name": "likeCount",
          "type": "uint256"
        },
        {
          "internalType": "uint256",
          "name": "commentCount",
          "type": "uint256"
        },
        {
          "internalType": "uint256",
          "name": "shareCount",
          "type": "uint256"
        },
        {
          "internalType": "bool",
          "name": "isDeleted",
          "type": "bool"
        }
      ],
      "stateMutability": "view",
      "type": "function"
    },
    {
      "inputs": [
        {
          "internalType": "uint256",
          "name": "quotedPostId",
          "type": "uint256"
        },
        {
          "internalType": "string",
          "name": "content",
          "type": "string"
        }
      ],
      "name": "quotePost",
      "outputs": [
        {
          "internalType": "uint256",
          "name": "",
          "type": "uint256"
        }
      ],
      "stateMutability": "nonpayable",
      "type": "function"
    },
    {
      "inputs": [
        {
          "internalType": "uint256",
          "name": "",
          "type": "uint256"
        }
      ],
      "name": "quotePosts",
      "outputs": [
        {
          "internalType": "uint256",
          "name": "id",
          "type": "uint256"
        },
        {
          "internalType": "address",
          "name": "author",
          "type": "address"
        },
        {
          "internalType": "string",
          "name": "content",
          "type": "string"
        },
        {
          "internalType": "uint256",
          "name": "quotedPostId",
          "type": "uint256"
        },
        {
          "internalType": "uint256",
          "name": "timestamp",
          "type": "uint256"
        },
        {
          "internalType": "uint256",
          "name": "likeCount",
          "type": "uint256"
        },
        {
          "internalType": "uint256",
          "name": "commentCount",
          "type": "uint256"
        },
        {
          "internalType": "uint256",
          "name": "shareCount",
          "type": "uint256"
        },
        {
          "internalType": "bool",
          "name": "isDeleted",
          "type": "bool"
        }
      ],
      "stateMutability": "view",
      "type": "function"
    },
    {
      "inputs": [],
      "name": "renounceOwnership",
      "outputs": [],
      "stateMutability": "nonpayable",
      "type": "function"
    },
    {
      "inputs": [
        {
          "internalType": "uint256",
          "name": "postId",
          "type": "uint256"
        }
      ],
      "name": "repost",
      "outputs": [],
      "stateMutability": "nonpayable",
      "type": "function"
    },
    {
      "inputs": [
        {
          "internalType": "address",
          "name": "newOwner",
          "type": "address"
        }
      ],
      "name": "transferOwnership",
      "outputs": [],
      "stateMutability": "nonpayable",
      "type": "function"
    },
    {
      "inputs": [
        {
          "internalType": "uint256",
          "name": "postId",
          "type": "uint256"
        }
      ],
      "name": "unbookmarkPost",
      "outputs": [],
      "stateMutability": "nonpayable",
      "type": "function"
    },
    {
      "inputs": [
        {
          "internalType": "address",
          "name": "userToUnfollow",
          "type": "address"
        }
      ],
      "name": "unfollowUser",
      "outputs": [],
      "stateMutability": "nonpayable",
      "type": "function"
    },
    {
      "inputs": [
        {
          "internalType": "uint256",
          "name": "commentId",
          "type": "uint256"
        }
      ],
      "name": "unlikeComment",
      "outputs": [],
      "stateMutability": "nonpayable",
      "type": "function"
    },
    {
      "inputs": [
        {
          "internalType": "uint256",
          "name": "postId",
          "type": "uint256"
        }
      ],
      "name": "unlikePost",
      "outputs": [],
      "stateMutability": "nonpayable",
      "type": "function"
    },
    {
      "inputs": [
        {
          "internalType": "uint256",
          "name": "quoteId",
          "type": "uint256"
        }
      ],
      "name": "unlikeQuote",
      "outputs": [],
      "stateMutability": "nonpayable",
      "type": "function"
    },
    {
      "inputs": [],
      "name": "unpinPost",
      "outputs": [],
      "stateMutability": "nonpayable",
      "type": "function"
    },
    {
      "inputs": [
        {
          "internalType": "uint256",
          "name": "postId",
          "type": "uint256"
        }
      ],
      "name": "unrepost",
      "outputs": [],
      "stateMutability": "nonpayable",
      "type": "function"
    },
    {
      "inputs": [
        {
          "internalType": "address",
          "name": "",
          "type": "address"
        },
        {
          "internalType": "uint256",
          "name": "",
          "type": "uint256"
        }
      ],
      "name": "userBookmarks",
      "outputs": [
        {
          "internalType": "uint256",
          "name": "",
          "type": "uint256"
        }
      ],
      "stateMutability": "view",
      "type": "function"
    },
    {
      "inputs": [
        {
          "internalType": "address",
          "name": "",
          "type": "address"
        },
        {
          "internalType": "uint256",
          "name": "",
          "type": "uint256"
        }
      ],
      "name": "userComments",
      "outputs": [
        {
          "internalType": "uint256",
          "name": "",
          "type": "uint256"
        }
      ],
      "stateMutability": "view",
      "type": "function"
    },
    {
      "inputs": [
        {
          "internalType": "address",
          "name": "",
          "type": "address"
        },
        {
          "internalType": "uint256",
          "name": "",
          "type": "uint256"
        }
      ],
      "name": "userPosts",
      "outputs": [
        {
          "internalType": "uint256",
          "name": "",
          "type": "uint256"
        }
      ],
      "stateMutability": "view",
      "type": "function"
    },
    {
      "inputs": [
        {
          "internalType": "address",
          "name": "",
          "type": "address"
        },
        {
          "internalType": "uint256",
          "name": "",
          "type": "uint256"
        }
      ],
      "name": "userQuotes",
      "outputs": [
        {
          "internalType": "uint256",
          "name": "",
          "type": "uint256"
        }
      ],
      "stateMutability": "view",
      "type": "function"
    },
    {
      "inputs": [
        {
          "internalType": "address",
          "name": "",
          "type": "address"
        },
        {
          "internalType": "uint256",
          "name": "",
          "type": "uint256"
        }
      ],
      "name": "userReposts",
      "outputs": [
        {
          "internalType": "uint256",
          "name": "",
          "type": "uint256"
        }
      ],
      "stateMutability": "view",
      "type": "function"
    }
  ],
  "bytecode": "0x608080604052346071573315605e575f8054336001600160a01b0319821681178355916001600160a01b03909116907f8be0079c531659141344cd1fd0a4f28419497f9722a3daafe3b4186f6b6457e09080a361303a90816100768239f35b631e4fbdf760e01b5f525f60045260245ffd5b5f80fdfe60806040526004361015610011575f80fd5b5f3560e01c8063012cc1e2146129e6578063094cd5ee146128c15780630b1e7f83146128055780630e1b26f814611ebd5780630ea37c64146126ec57806311cbf28e1461264157806313824a25146125cf5780631c90629114612299578063251cf4ea146124ed5780632b3c6e221461247b57806330b3a8901461244357806336f240c8146122e257806338904ec914612299578063392338f514611ef55780633d7c3cb714611ebd57806340a1798514611be1578063435d18ea14610a65578063501ec5d71461184e5780635193c94c1461181f57806361ceee54146117d6578063645487071461179e57806367c783fa146116a15780636db1b09314611672578063714e7aa21461148e578063715018a61461161b578063725009d31461154957806373069d2c146114d75780637783dea01461148e57806379129471146114455780637d0b1026146112d25780638064d149146112895780638da5cb5b146112625780638ebb4c15146111d15780639139cda51461118857806391537a1c1461113f57806399ec3a42146110e85780639a2194a9146110765780639d0813b514610fb9578063a1b5db4e14610f70578063a6cdb6c014610f0c578063a70806f714610daa578063abdca68314610d22578063ac8f501014610bbc578063b433fb3e14610b29578063c2fe202214610aae578063ca1f0cad14610a65578063ca3952b3146109f3578063ccaad2de14610928578063d524ff76146108b8578063d60c934c14610778578063d8236dff146106ed578063dbea7f4a146106a4578063ebd009d314610642578063f107cfcb1461041f578063f2fde38b1461039a578063fa028305146103425763fa188de91461028c575f80fd5b3461033e57602036600319011261033e57600435805f5260046020526102b760405f20541515612e26565b5f818152600e602090815260408083203384529091529020546102dc9060ff16612f76565b5f818152600e602090815260408083203384528252808320805460ff1916905583835260049091529020600501805461031490612ec9565b905533907f82092d1196022c48d901e5dc4b17451dbce942b8a9ded42fc6f2a4a5e8fd89b95f80a3005b5f80fd5b3461033e57604036600319011261033e5761035b612c28565b6001600160a01b03165f9081526012602052604090208054602435919082101561033e5760209161038b91612d2c565b90549060031b1c604051908152f35b3461033e57602036600319011261033e576103b3612c28565b6103bb612fde565b6001600160a01b0316801561040c575f80546001600160a01b03198116831782556001600160a01b0316907f8be0079c531659141344cd1fd0a4f28419497f9722a3daafe3b4186f6b6457e09080a3005b631e4fbdf760e01b5f525f60045260245ffd5b3461033e57602036600319011261033e57610438612c28565b335f52600960205260405f2060018060a01b0382165f5260205260ff60405f2054161561060d57335f9081526009602090815260408083206001600160a01b0394909416808452938252808320805460ff19169055600a90915281205b805480831015610605576104a98383612d2c565b905460039190911b1c6001600160a01b031633146104cc57509060010190610495565b5f1981019081116105e95761052d926105046104eb6105289385612d2c565b905460039190911b1c6001600160a01b03169184612d2c565b81546001600160a01b0393841660039290921b91821b9390911b1916919091179055565b612fb2565b335f52600b60205260405f205f905b8054808310156105fd57836105518484612d2c565b905460039190911b1c6001600160a01b0316146105735750906001019061053c565b5f1981019081116105e957610592926105046104eb6105289385612d2c565b805f52600c60205260405f206105a88154612ec9565b9055335f52600d60205260405f206105c08154612ec9565b9055337fe7339343c6edff57f2d15278c419523844cea30ae5ee2146aa22cb9e3107dab75f80a3005b634e487b7160e01b5f52601160045260245ffd5b505050610592565b50505061052d565b60405162461bcd60e51b815260206004820152600d60248201526c4e6f7420666f6c6c6f77696e6760981b6044820152606490fd5b3461033e57604036600319011261033e5761065b612c28565b6001600160a01b03165f908152600a602052604090208054602435919082101561033e5760209161068b91612d2c565b905460405160039290921b1c6001600160a01b03168152f35b3461033e57604036600319011261033e576001600160a01b036106c5612c28565b165f52601560205260405f206024355f52602052602060ff60405f2054166040519015158152f35b3461033e57602036600319011261033e576001600160a01b0361070e612c28565b165f52600b60205260405f206040519081602082549182815201915f5260205f20905f5b818110610759576107558561074981870382612b42565b60405191829182612d55565b0390f35b82546001600160a01b0316845260209093019260019283019201610732565b3461033e57602036600319011261033e57600435335f52601560205260405f20815f5260205260ff60405f2054161561087e57335f52601560205260405f20815f5260205260405f2060ff198154169055335f52601660205260405f205f905b80548083101561087657836107ed8484612d2c565b90549060031b1c14610804575090600101906107d8565b5f1981019081116105e95761084e926108316108236108499385612d2c565b90549060031b1c9184612d2c565b90919082549060031b91821b915f19901b1916179055565b612ed5565b33907fced93166cc6d38ad3460edd44b8664c0dd1e313900f5bcff71ab7315df97b0bd5f80a3005b50505061084e565b60405162461bcd60e51b8152602060048201526012602482015271139bdd08189bdbdadb585c9ad959081e595d60721b6044820152606490fd5b3461033e57602036600319011261033e576004355f52600760205260405f206040519081602082549182815201915f5260205f20905f5b818110610912576107558561090681870382612b42565b60405191829182612c54565b82548452602090930192600192830192016108ef565b3461033e57602036600319011261033e57600435805f52600560205261095360405f20541515612d97565b5f818152600f602090815260408083203384529091529020546109789060ff16612f76565b5f818152600f602090815260408083203384528252808320805460ff1916905583835260059182905290912001546109d3575b33907fca9a5541c0b22886f920ba8e818181b95e96be9b85a0d8d6ee60170ac253b3fa5f80a3005b805f526005602052600560405f20016109ec8154612ec9565b90556109ab565b3461033e57602036600319011261033e576001600160a01b03610a14612c28565b165f52601260205260405f206040519081602082549182815201915f5260205f20905f5b818110610a4f576107558561090681870382612b42565b8254845260209093019260019283019201610a38565b3461033e57604036600319011261033e57610a7e612c3e565b6004355f52600e60205260405f209060018060a01b03165f52602052602060ff60405f2054166040519015158152f35b3461033e57602036600319011261033e576001600160a01b03610acf612c28565b165f52600a60205260405f206040519081602082549182815201915f5260205f20905f5b818110610b0a576107558561074981870382612b42565b82546001600160a01b0316845260209093019260019283019201610af3565b3461033e575f36600319011261033e57335f52601760205260405f205415610b8657335f818152601760205260408120805490829055907f95a24773b0ae982903eb7dc9bdf9a7009b2451410f2781696401f09b052810ba9080a3005b60405162461bcd60e51b815260206004820152600e60248201526d139bc81c1a5b9b9959081c1bdcdd60921b6044820152606490fd5b3461033e57602036600319011261033e57600435805f526006602052610be760405f20541515612f10565b805f52600660205260ff600860405f20015416610ce5575f818152600660205260409020600101546001600160a01b03163303610ca0575f81815260066020908152604080832060038101546008909101805460ff19166001179055808452600490925290912060070154610c80575b5033907f374294316dbca1354452369653f3df9d8008edd9bffd812c04e397b18fe4f9da5f80a3005b5f526004602052600760405f2001610c988154612ec9565b905581610c57565b60405162461bcd60e51b815260206004820152601c60248201527f4f6e6c7920617574686f722063616e2064656c6574652071756f7465000000006044820152606490fd5b60405162461bcd60e51b8152602060048201526015602482015274145d5bdd1948185b1c9958591e4819195b195d1959605a1b6044820152606490fd5b3461033e57602036600319011261033e57600435805f526006602052610d4d60405f20541515612f10565b805f526006602052600560405f200154610d8a575b33907f789859e4b63e2772cc4af9b7e14c8e0cf85d519d8850367ea7abd84565d54a825f80a3005b805f526006602052600560405f2001610da38154612ec9565b9055610d62565b3461033e57602036600319011261033e57610dc3612c28565b6001600160a01b03811690338214610ece57335f52600960205260405f20825f5260205260ff60405f205416610e9557610e3e90335f52600960205260405f20835f5260205260405f20600160ff19825416179055825f52600a602052610e2d3360405f20612f53565b335f52600b60205260405f20612f53565b805f52600c60205260405f20610e548154612e18565b9055335f52600d60205260405f20610e6c8154612e18565b9055337f30b3435b456f45779984ddfa456115ee4c20d9e446979b1b9e90dbb7e12b90b75f80a3005b60405162461bcd60e51b8152602060048201526011602482015270416c726561647920666f6c6c6f77696e6760781b6044820152606490fd5b60405162461bcd60e51b815260206004820152601660248201527521b0b73737ba103337b63637bb903cb7bab939b2b63360511b6044820152606490fd5b3461033e57602036600319011261033e576004355f52600860205260405f206040519081602082549182815201915f5260205f20905f5b818110610f5a576107558561090681870382612b42565b8254845260209093019260019283019201610f43565b3461033e57604036600319011261033e57610f89612c28565b6001600160a01b03165f9081526014602052604090208054602435919082101561033e5760209161038b91612d2c565b3461033e57602036600319011261033e57600435805f526006602052610fe460405f20541515612f10565b805f52600660205260ff600860405f2001541661103e57805f526006602052600560405f20016110148154612e18565b905533907f80868682464f7abbfb5e9dfdd947184c36a52f88fc8fc4ba1112967c332546415f80a3005b60405162461bcd60e51b815260206004820152601060248201526f145d5bdd19481a5cc819195b195d195960821b6044820152606490fd5b3461033e57602036600319011261033e576001600160a01b03611097612c28565b165f52601060205260405f206040519081602082549182815201915f5260205f20905f5b8181106110d2576107558561090681870382612b42565b82548452602090930192600192830192016110bb565b3461033e57604036600319011261033e57611101612c28565b611109612c3e565b9060018060a01b03165f52600960205260405f209060018060a01b03165f52602052602060ff60405f2054166040519015158152f35b3461033e57604036600319011261033e576001600160a01b03611160612c3e565b165f52601560205260405f206004355f52602052602060ff60405f2054166040519015158152f35b3461033e57604036600319011261033e576111a1612c28565b6001600160a01b03165f908152600b602052604090208054602435919082101561033e5760209161068b91612d2c565b3461033e57602036600319011261033e576004355f52600560205260405f20805460018201549160018060a01b0360028201541661121160038301612b64565b9161124c60048201549360ff60066005850154940154169360405197889788526020880152604087015260e0606087015260e0860190612c04565b92608085015260a0840152151560c08301520390f35b3461033e575f36600319011261033e575f546040516001600160a01b039091168152602090f35b3461033e57604036600319011261033e576112a2612c28565b6001600160a01b03165f9081526010602052604090208054602435919082101561033e5760209161038b91612d2c565b3461033e57602036600319011261033e57600435805f5260056020526112fd60405f20541515612d97565b805f52600560205260ff600660405f20015416611400575f818152600560205260409020600201546001600160a01b031633036113bb57805f526005602052600160405f200154815f526005602052600660405f2001600160ff19825416179055805f526004602052600660405f20015461139b575b33917f6ee692db105027f6f2626ec7348b1fee62bdd8b6aa9c2999ceed2aebd4dc3ee95f80a4005b805f526004602052600660405f20016113b48154612ec9565b9055611373565b60405162461bcd60e51b815260206004820152601e60248201527f4f6e6c7920617574686f722063616e2064656c65746520636f6d6d656e7400006044820152606490fd5b60405162461bcd60e51b815260206004820152601760248201527f436f6d6d656e7420616c72656164792064656c657465640000000000000000006044820152606490fd5b3461033e57604036600319011261033e5761145e612c28565b6001600160a01b03165f9081526011602052604090208054602435919082101561033e5760209161038b91612d2c565b3461033e57604036600319011261033e576114a7612c3e565b6004355f52601360205260405f209060018060a01b03165f52602052602060ff60405f2054166040519015158152f35b3461033e57602036600319011261033e576001600160a01b036114f8612c28565b165f52601660205260405f206040519081602082549182815201915f5260205f20905f5b818110611533576107558561090681870382612b42565b825484526020909301926001928301920161151c565b3461033e57602036600319011261033e57600435805f52600460205261157460405f20541515612e26565b805f52600460205261159060ff600860405f2001541615612e68565b5f818152600e602090815260408083203384529091529020546115b69060ff1615612ddc565b5f818152600e602090815260408083203384528252808320805460ff191660011790558383526004909152902060050180546115f190612e18565b905533907fcf765d6f163c9b0d832e2a94f4c8e9bffd32a2c3ca5fdbb8cc67b5fe1441f4135f80a3005b3461033e575f36600319011261033e57611633612fde565b5f80546001600160a01b0319811682556001600160a01b03167f8be0079c531659141344cd1fd0a4f28419497f9722a3daafe3b4186f6b6457e08280a3005b3461033e5761168036612d16565b905f52600860205260405f20805482101561033e5760209161038b91612d2c565b3461033e57602036600319011261033e57600435805f5260046020526116cc60405f20541515612e26565b805f5260046020526116e860ff600860405f2001541615612e68565b335f52601560205260405f20815f5260205260ff60405f20541661176457335f52601560205260405f20815f5260205260405f20600160ff19825416179055335f52601660205261173c8160405f20612ea6565b33907fa1a96af0df8b295a8060763a566b43be73c385d07b56ce97a28d62a7ef6b61695f80a3005b60405162461bcd60e51b8152602060048201526012602482015271105b1c9958591e48189bdbdadb585c9ad95960721b6044820152606490fd5b3461033e57602036600319011261033e576001600160a01b036117bf612c28565b165f52600d602052602060405f2054604051908152f35b3461033e57604036600319011261033e576117ef612c28565b6001600160a01b03165f9081526016602052604090208054602435919082101561033e5760209161038b91612d2c565b3461033e5761182d36612d16565b905f52600760205260405f20805482101561033e5760209161038b91612d2c565b3461033e5761185c36612ce3565b815f52600460205260405f205415611b9c57815f52600460205260ff600860405f20015416611b5e57805115611b1957611897600354612e18565b9081600355604051926118a984612b25565b82845260208401933385526040810194838652606082018381526080830142815260a084015f815260c08501915f835260e08601935f85526101008701955f87528a5f52600660205260405f209751885560018060a01b03905116600188019060018060a01b03166001600160601b0360a01b825416179055600287019a519a8b5167ffffffffffffffff8111611b0557601f9c6119478354612aed565b9d8e11611abf575b60209d508d90601f8311600114611a4f5791806119c09b9a9896949260089a9896945f92611a44575b50508160011b915f199060031b1c19161790555b51600388015551600487015551600586015551600685015551600784015551151591019060ff801983541691151516179055565b805f52600884526119d48360405f20612ea6565b335f52601284526119e88360405f20612ea6565b805f5260048452600760405f2001611a008154612e18565b9055827f167239e3e9afb1d011f45475df9ac6d1c017ccc7731f9dfae5d8edf76a9f40a660405186815280611a39339689830190612c04565b0390a4604051908152f35b015190505f80611978565b90601f19831691845f52815f20925f5b818110611aa7575092600192859260089c9a98966119c09f9e9c9a989610611a8f575b505050811b01905561198c565b01515f1960f88460031b161c191690555f8080611a82565b92936020600181928786015181550195019301611a5f565b825f5260205f20601f830160051c81019e60208410611afb575b601f0160051c019d8e5b8110611aef575061194f565b5f81556001018e611ae3565b909e508e90611ad9565b634e487b7160e01b5f52604160045260245ffd5b60405162461bcd60e51b815260206004820152601d60248201527f51756f746520636f6e74656e742063616e6e6f7420626520656d7074790000006044820152606490fd5b60405162461bcd60e51b8152602060048201526016602482015275145d5bdd1959081c1bdcdd081a5cc819195b195d195960521b6044820152606490fd5b60405162461bcd60e51b815260206004820152601a60248201527f51756f74656420706f737420646f6573206e6f742065786973740000000000006044820152606490fd5b3461033e57611bef36612ce3565b90805f526004602052611c0760405f20541515612e26565b805f526004602052611c2360ff600860405f2001541615612e68565b815115611e7857611c35600254612e18565b8060025560405160e0810181811067ffffffffffffffff821117611b05576040528181526020810183815260408201338152606083019586526080830142815260a08401915f835260c08501935f8552865f52600560205260405f209551865551600186015560018060a01b03905116600285019060018060a01b03166001600160601b0360a01b82541617905560038401965196875167ffffffffffffffff8111611b0557611ce58254612aed565b98601f8a11611e33575b602099508990601f8311600114611dc75791806006969492611d4b999896945f92611dbc575b50508160011b915f199060031b1c19161790555b51600485015551600584015551151591019060ff801983541691151516179055565b815f5260078352611d5f8160405f20612ea6565b815f5260048352600660405f2001611d778154612e18565b9055335f5260118352611d8d8160405f20612ea6565b604051913390827fb26b28af845c655de8a0781b33321442c59fca924e20664d2d40e97a43c45f6f5f80a48152f35b015190508c80611d15565b90601f19831691845f52815f20925f5b818110611e1c5750926001928592611d4b9b9a989660069a989610611e04575b505050811b019055611d29565b01515f1960f88460031b161c191690558c8080611df7565b92938d600181928786015181550195019301611dd7565b825f5260205f20601f830160051c81019a60208410611e6e575b601f0160051c01995b8a8110611e635750611cef565b5f8155600101611e56565b909a508a90611e4d565b60405162461bcd60e51b815260206004820152601760248201527f436f6d6d656e742063616e6e6f7420626520656d7074790000000000000000006044820152606490fd5b3461033e57602036600319011261033e576001600160a01b03611ede612c28565b165f526017602052602060405f2054604051908152f35b3461033e57604036600319011261033e5760043567ffffffffffffffff811161033e57611f26903690600401612c8d565b60243567ffffffffffffffff811161033e57611f46903690600401612c8d565b90611f52600154612e18565b9081600155604051611f6381612b25565b8281526020810133815260408201838152606083019586526080830142815260a084015f815260c08501915f835260e08601935f85526101008701955f8752895f52600460205260405f209751885560018060a01b03905116600188019060018060a01b03166001600160601b0360a01b82541617905560028701905180519067ffffffffffffffff8211611b05578190611ffe8454612aed565b601f8111612249575b50602090601f83116001146121e6575f926121db575b50508160011b915f199060031b1c19161790555b60038601985198895167ffffffffffffffff8111611b05576120538254612aed565b9a601f8c11612196575b60209b508b90601f83116001146121285791806008989694926120c79b9a9896945f9261211d575b50508160011b915f199060031b1c19161790555b51600487015551600586015551600685015551600784015551151591019060ff801983541691151516179055565b335f52601083526120db8260405f20612ea6565b817f8e40a51278abe2f4b410c0a96ff0bdd024b22666ca334062bf72afd596984bd660405185815280612112339588830190612c04565b0390a3604051908152f35b015190508e80612085565b90601f19831691845f52815f20925f5b81811061217f57509260019285926120c79d9c9a989660089c9a989610612167575b505050811b019055612099565b01515f1960f88460031b161c191690558e808061215a565b92938f600181928786015181550195019301612138565b825f5260205f20601f830160051c81019c602084106121d1575b601f0160051c019b5b8c81106121c6575061205d565b5f81556001016121b9565b909c508c906121b0565b015190508c8061201d565b5f8581528281209350601f198516905b8181106122315750908460019594939210612219575b505050811b019055612031565b01515f1960f88460031b161c191690558c808061220c565b929360206001819287860151815501950193016121f6565b909150835f5260205f20601f840160051c8101916020851061228f575b90601f859493920160051c01905b8181106122815750612007565b5f8155849350600101612274565b9091508190612266565b3461033e57604036600319011261033e576122b2612c3e565b6004355f52600f60205260405f209060018060a01b03165f52602052602060ff60405f2054166040519015158152f35b3461033e57602036600319011261033e57600435805f52600460205261230d60405f20541515612e26565b5f81815260136020908152604080832033845290915290205460ff161561240b575f8181526013602090815260408083203384528252808320805460ff1916905583835260049091529020600701546123eb575b335f52601460205260405f205f905b8054808310156123e357836123858484612d2c565b90549060031b1c1461239c57509060010190612370565b5f1981019081116105e9576123bb926108316108236108499385612d2c565b33907f2e533c99f5f9e3a9df37e4ae7a059e920fc9f04c6a098f096b29127459c1ee6c5f80a3005b5050506123bb565b805f526004602052600760405f20016124048154612ec9565b9055612361565b60405162461bcd60e51b815260206004820152601060248201526f139bdd081c995c1bdcdd1959081e595d60821b6044820152606490fd5b3461033e57602036600319011261033e576001600160a01b03612464612c28565b165f52600c602052602060405f2054604051908152f35b3461033e57602036600319011261033e576001600160a01b0361249c612c28565b165f52601160205260405f206040519081602082549182815201915f5260205f20905f5b8181106124d7576107558561090681870382612b42565b82548452602090930192600192830192016124c0565b3461033e57602036600319011261033e57600435805f52600460205261251860405f20541515612e26565b805f52600460205261253460ff600860405f2001541615612e68565b5f818152600460205260409020600101546001600160a01b0316330361258a57335f5260176020528060405f205533907fde2256a13c546694f0c19dec7fc7a9fd28d39a7ce2cf0ae220453bf9c5f8d9165f80a3005b60405162461bcd60e51b815260206004820152601e60248201527f4f6e6c7920617574686f722063616e2070696e20746865697220706f737400006044820152606490fd5b3461033e57602036600319011261033e576001600160a01b036125f0612c28565b165f52601460205260405f206040519081602082549182815201915f5260205f20905f5b81811061262b576107558561090681870382612b42565b8254845260209093019260019283019201612614565b3461033e57602036600319011261033e576004355f908152600660205260409020805460018201546001600160a01b03169161267f60028201612b64565b600382015491600481015460058201546006830154916126c660ff600860078701549601541695604051998a998a5260208a015261012060408a0152610120890190612c04565b956060880152608087015260a086015260c085015260e084015215156101008301520390f35b3461033e57602036600319011261033e57600435805f52600460205261271760405f20541515612e26565b805f52600460205261273360ff600860405f2001541615612e68565b5f81815260136020908152604080832033845290915290205460ff166127cd575f8181526013602090815260408083203384528252808320805460ff1916600117905583835260049091529020600701805461278e90612e18565b9055335f5260146020526127a58160405f20612ea6565b33907f3f3ca5f6b0b1ef617c874b3cfb655ce98fde2743a8339f887203e5e1aeea43605f80a3005b60405162461bcd60e51b815260206004820152601060248201526f105b1c9958591e481c995c1bdcdd195960821b6044820152606490fd5b3461033e57602036600319011261033e576004355f52600460205260405f20805460018060a01b036001830154169161284060028201612b64565b61284c60038301612b64565b9160048101549260058201546128a060068401549261289260ff6008600788015497015416966040519a8b9a8b5260208b015261012060408b01526101208a0190612c04565b9088820360608a0152612c04565b94608087015260a086015260c085015260e084015215156101008301520390f35b3461033e57602036600319011261033e57600435805f5260046020526128ec60405f20541515612e26565b805f52600460205260ff600860405f200154166129aa575f818152600460205260409020600101546001600160a01b0316330361296557805f526004602052600860405f2001600160ff1982541617905533907f1da4a15b15417b54b8b3bea2ca87cfc4c94f0fee7d86702d0dab9e2906e7a7d35f80a3005b60405162461bcd60e51b815260206004820152601b60248201527f4f6e6c7920617574686f722063616e2064656c65746520706f737400000000006044820152606490fd5b60405162461bcd60e51b8152602060048201526014602482015273141bdcdd08185b1c9958591e4819195b195d195960621b6044820152606490fd5b3461033e57602036600319011261033e57600435805f526005602052612a1160405f20541515612d97565b805f52600560205260ff600660405f20015416612ab3575f818152600f60209081526040808320338452909152902054612a4e9060ff1615612ddc565b5f818152600f602090815260408083203384528252808320805460ff19166001179055838352600591829052909120018054612a8990612e18565b905533907ff130ed2efa2f29aaeb0d5dd95532c1cfeef37afc311d3b52ca7666dadb6602a25f80a3005b60405162461bcd60e51b815260206004820152601260248201527110dbdb5b595b9d081a5cc819195b195d195960721b6044820152606490fd5b90600182811c92168015612b1b575b6020831014612b0757565b634e487b7160e01b5f52602260045260245ffd5b91607f1691612afc565b610120810190811067ffffffffffffffff821117611b0557604052565b90601f8019910116810190811067ffffffffffffffff821117611b0557604052565b9060405191825f825492612b7784612aed565b8084529360018116908115612be25750600114612b9e575b50612b9c92500383612b42565b565b90505f9291925260205f20905f915b818310612bc6575050906020612b9c928201015f612b8f565b6020919350806001915483858901015201910190918492612bad565b905060209250612b9c94915060ff191682840152151560051b8201015f612b8f565b805180835260209291819084018484015e5f828201840152601f01601f1916010190565b600435906001600160a01b038216820361033e57565b602435906001600160a01b038216820361033e57565b60206040818301928281528451809452019201905f5b818110612c775750505090565b8251845260209384019390920191600101612c6a565b81601f8201121561033e5780359067ffffffffffffffff8211611b055760405192612cc2601f8401601f191660200185612b42565b8284526020838301011161033e57815f926020809301838601378301015290565b90604060031983011261033e57600435916024359067ffffffffffffffff821161033e57612d1391600401612c8d565b90565b604090600319011261033e576004359060243590565b8054821015612d41575f5260205f2001905f90565b634e487b7160e01b5f52603260045260245ffd5b60206040818301928281528451809452019201905f5b818110612d785750505090565b82516001600160a01b0316845260209384019390920191600101612d6b565b15612d9e57565b60405162461bcd60e51b815260206004820152601660248201527510dbdb5b595b9d08191bd95cc81b9bdd08195e1a5cdd60521b6044820152606490fd5b15612de357565b60405162461bcd60e51b815260206004820152600d60248201526c105b1c9958591e481b1a5ad959609a1b6044820152606490fd5b5f1981146105e95760010190565b15612e2d57565b60405162461bcd60e51b8152602060048201526013602482015272141bdcdd08191bd95cc81b9bdd08195e1a5cdd606a1b6044820152606490fd5b15612e6f57565b60405162461bcd60e51b815260206004820152600f60248201526e141bdcdd081a5cc819195b195d1959608a1b6044820152606490fd5b90815491600160401b831015611b055782610831916001612b9c95018155612d2c565b80156105e9575f190190565b80548015612efc575f190190612eeb8282612d2c565b8154905f199060031b1b1916905555565b634e487b7160e01b5f52603160045260245ffd5b15612f1757565b60405162461bcd60e51b8152602060048201526014602482015273145d5bdd1948191bd95cc81b9bdd08195e1a5cdd60621b6044820152606490fd5b90815491600160401b831015611b055782610504916001612b9c95018155612d2c565b15612f7d57565b60405162461bcd60e51b815260206004820152600d60248201526c139bdd081b1a5ad959081e595d609a1b6044820152606490fd5b80548015612efc575f190190612fc88282612d2c565b81549060018060a01b039060031b1b1916905555565b5f546001600160a01b03163303612ff157565b63118cdaa760e01b5f523360045260245ffdfea2646970667358221220a22873305f161f094e3ae99949a263a2cfb2eed3e5b1e60d3349c3c7a477e8a364736f6c634300081c0033",
  "linkReferences": {},
  "deployedLinkReferences": {}
}