{
  "_format": "hh-sol-artifact-1",
  "contractName": "TippingSystem",
  "sourceName": "contracts/TippingSystem.sol",
  "abi": [
    {
      "inputs": [],
      "stateMutability": "nonpayable",
      "type": "constructor"
    },
    {
      "inputs": [
        {
          "internalType": "address",
          "name": "owner",
          "type": "address"
        }
      ],
      "name": "OwnableInvalidOwner",
      "type": "error"
    },
    {
      "inputs": [
        {
          "internalType": "address",
          "name": "account",
          "type": "address"
        }
      ],
      "name": "OwnableUnauthorizedAccount",
      "type": "error"
    },
    {
      "inputs": [],
      "name": "ReentrancyGuardReentrantCall",
      "type": "error"
    },
    {
      "anonymous": false,
      "inputs": [
        {
          "indexed": true,
          "internalType": "address",
          "name": "previousOwner",
          "type": "address"
        },
        {
          "indexed": true,
          "internalType": "address",
          "name": "newOwner",
          "type": "address"
        }
      ],
      "name": "OwnershipTransferred",
      "type": "event"
    },
    {
      "anonymous": false,
      "inputs": [
        {
          "indexed": false,
          "internalType": "uint256",
          "name": "newFee",
          "type": "uint256"
        }
      ],
      "name": "PlatformFeeUpdated",
      "type": "event"
    },
    {
      "anonymous": false,
      "inputs": [
        {
          "indexed": true,
          "internalType": "uint256",
          "name": "tipId",
          "type": "uint256"
        },
        {
          "indexed": true,
          "internalType": "address",
          "name": "tipper",
          "type": "address"
        },
        {
          "indexed": true,
          "internalType": "address",
          "name": "recipient",
          "type": "address"
        },
        {
          "indexed": false,
          "internalType": "uint256",
          "name": "amount",
          "type": "uint256"
        },
        {
          "indexed": false,
          "internalType": "address",
          "name": "tokenAddress",
          "type": "address"
        },
        {
          "indexed": false,
          "internalType": "uint256",
          "name": "songId",
          "type": "uint256"
        }
      ],
      "name": "TipSent",
      "type": "event"
    },
    {
      "inputs": [],
      "name": "emergencyWithdraw",
      "outputs": [],
      "stateMutability": "nonpayable",
      "type": "function"
    },
    {
      "inputs": [],
      "name": "getPlatformStats",
      "outputs": [
        {
          "internalType": "uint256",
          "name": "totalTips",
          "type": "uint256"
        },
        {
          "internalType": "uint256",
          "name": "totalVolume",
          "type": "uint256"
        },
        {
          "internalType": "uint256",
          "name": "platformFeesCollected",
          "type": "uint256"
        }
      ],
      "stateMutability": "view",
      "type": "function"
    },
    {
      "inputs": [
        {
          "internalType": "uint256",
          "name": "songId",
          "type": "uint256"
        }
      ],
      "name": "getSongTips",
      "outputs": [
        {
          "internalType": "uint256[]",
          "name": "",
          "type": "uint256[]"
        }
      ],
      "stateMutability": "view",
      "type": "function"
    },
    {
      "inputs": [
        {
          "internalType": "uint256",
          "name": "tipId",
          "type": "uint256"
        }
      ],
      "name": "getTip",
      "outputs": [
        {
          "components": [
            {
              "internalType": "uint256",
              "name": "id",
              "type": "uint256"
            },
            {
              "internalType": "address",
              "name": "tipper",
              "type": "address"
            },
            {
              "internalType": "address",
              "name": "recipient",
              "type": "address"
            },
            {
              "internalType": "uint256",
              "name": "amount",
              "type": "uint256"
            },
            {
              "internalType": "string",
              "name": "message",
              "type": "string"
            },
            {
              "internalType": "uint256",
              "name": "timestamp",
              "type": "uint256"
            },
            {
              "internalType": "address",
              "name": "tokenAddress",
              "type": "address"
            },
            {
              "internalType": "uint256",
              "name": "songId",
              "type": "uint256"
            }
          ],
          "internalType": "struct TippingSystem.Tip",
          "name": "",
          "type": "tuple"
        }
      ],
      "stateMutability": "view",
      "type": "function"
    },
    {
      "inputs": [
        {
          "internalType": "address",
          "name": "user",
          "type": "address"
        }
      ],
      "name": "getTotalTipsReceived",
      "outputs": [
        {
          "internalType": "uint256",
          "name": "",
          "type": "uint256"
        }
      ],
      "stateMutability": "view",
      "type": "function"
    },
    {
      "inputs": [
        {
          "internalType": "address",
          "name": "user",
          "type": "address"
        }
      ],
      "name": "getUserReceivedTips",
      "outputs": [
        {
          "internalType": "uint256[]",
          "name": "",
          "type": "uint256[]"
        }
      ],
      "stateMutability": "view",
      "type": "function"
    },
    {
      "inputs": [
        {
          "internalType": "address",
          "name": "user",
          "type": "address"
        }
      ],
      "name": "getUserSentTips",
      "outputs": [
        {
          "internalType": "uint256[]",
          "name": "",
          "type": "uint256[]"
        }
      ],
      "stateMutability": "view",
      "type": "function"
    },
    {
      "inputs": [],
      "name": "owner",
      "outputs": [
        {
          "internalType": "address",
          "name": "",
          "type": "address"
        }
      ],
      "stateMutability": "view",
      "type": "function"
    },
    {
      "inputs": [],
      "name": "platformFee",
      "outputs": [
        {
          "internalType": "uint256",
          "name": "",
          "type": "uint256"
        }
      ],
      "stateMutability": "view",
      "type": "function"
    },
    {
      "inputs": [],
      "name": "renounceOwnership",
      "outputs": [],
      "stateMutability": "nonpayable",
      "type": "function"
    },
    {
      "inputs": [
        {
          "internalType": "address",
          "name": "recipient",
          "type": "address"
        },
        {
          "internalType": "string",
          "name": "message",
          "type": "string"
        },
        {
          "internalType": "uint256",
          "name": "songId",
          "type": "uint256"
        }
      ],
      "name": "sendTip",
      "outputs": [],
      "stateMutability": "payable",
      "type": "function"
    },
    {
      "inputs": [
        {
          "internalType": "address",
          "name": "recipient",
          "type": "address"
        },
        {
          "internalType": "address",
          "name": "tokenAddress",
          "type": "address"
        },
        {
          "internalType": "uint256",
          "name": "amount",
          "type": "uint256"
        },
        {
          "internalType": "string",
          "name": "message",
          "type": "string"
        },
        {
          "internalType": "uint256",
          "name": "songId",
          "type": "uint256"
        }
      ],
      "name": "sendTipERC20",
      "outputs": [],
      "stateMutability": "nonpayable",
      "type": "function"
    },
    {
      "inputs": [
        {
          "internalType": "uint256",
          "name": "newFee",
          "type": "uint256"
        }
      ],
      "name": "setPlatformFee",
      "outputs": [],
      "stateMutability": "nonpayable",
      "type": "function"
    },
    {
      "inputs": [
        {
          "internalType": "uint256",
          "name": "",
          "type": "uint256"
        },
        {
          "internalType": "uint256",
          "name": "",
          "type": "uint256"
        }
      ],
      "name": "songTips",
      "outputs": [
        {
          "internalType": "uint256",
          "name": "",
          "type": "uint256"
        }
      ],
      "stateMutability": "view",
      "type": "function"
    },
    {
      "inputs": [
        {
          "internalType": "uint256",
          "name": "",
          "type": "uint256"
        }
      ],
      "name": "tips",
      "outputs": [
        {
          "internalType": "uint256",
          "name": "id",
          "type": "uint256"
        },
        {
          "internalType": "address",
          "name": "tipper",
          "type": "address"
        },
        {
          "internalType": "address",
          "name": "recipient",
          "type": "address"
        },
        {
          "internalType": "uint256",
          "name": "amount",
          "type": "uint256"
        },
        {
          "internalType": "string",
          "name": "message",
          "type": "string"
        },
        {
          "internalType": "uint256",
          "name": "timestamp",
          "type": "uint256"
        },
        {
          "internalType": "address",
          "name": "tokenAddress",
          "type": "address"
        },
        {
          "internalType": "uint256",
          "name": "songId",
          "type": "uint256"
        }
      ],
      "stateMutability": "view",
      "type": "function"
    },
    {
      "inputs": [
        {
          "internalType": "address",
          "name": "",
          "type": "address"
        }
      ],
      "name": "totalTipsReceived",
      "outputs": [
        {
          "internalType": "uint256",
          "name": "",
          "type": "uint256"
        }
      ],
      "stateMutability": "view",
      "type": "function"
    },
    {
      "inputs": [
        {
          "internalType": "address",
          "name": "newOwner",
          "type": "address"
        }
      ],
      "name": "transferOwnership",
      "outputs": [],
      "stateMutability": "nonpayable",
      "type": "function"
    },
    {
      "inputs": [
        {
          "internalType": "address",
          "name": "",
          "type": "address"
        },
        {
          "internalType": "uint256",
          "name": "",
          "type": "uint256"
        }
      ],
      "name": "userReceivedTips",
      "outputs": [
        {
          "internalType": "uint256",
          "name": "",
          "type": "uint256"
        }
      ],
      "stateMutability": "view",
      "type": "function"
    },
    {
      "inputs": [
        {
          "internalType": "address",
          "name": "",
          "type": "address"
        },
        {
          "internalType": "uint256",
          "name": "",
          "type": "uint256"
        }
      ],
      "name": "userSentTips",
      "outputs": [
        {
          "internalType": "uint256",
          "name": "",
          "type": "uint256"
        }
      ],
      "stateMutability": "view",
      "type": "function"
    },
    {
      "inputs": [],
      "name": "withdrawTips",
      "outputs": [],
      "stateMutability": "nonpayable",
      "type": "function"
    },
    {
      "stateMutability": "payable",
      "type": "receive"
    }
  ],
  "bytecode": "0x6080806040523460785760015f55331560655760018054336001600160a01b0319821681179092556001600160a01b03167f8be0079c531659141344cd1fd0a4f28419497f9722a3daafe3b4186f6b6457e05f80a360326008556113ac908161007d8239f35b631e4fbdf760e01b5f525f60045260245ffd5b5f80fdfe6080604052600436101561001a575b3615610018575f80fd5b005b5f3560e01c806312e8e2c314610f32578063136d888314610e3957806326232a2e14610e1c5780633aaa74b2146102135780633d37b32914610dd35780635b703f5c14610c3e5780635bb610ca14610bcc5780636a0dedc414610b5a578063715018a614610aff578063772b5a5b146107365780638765d1fd146105ba5780638da5cb5b1461070e5780639ee8abc81461069a578063a5c68c59146105f2578063cd34d1e9146105ba578063cd84b88914610233578063db2e21bc14610213578063f11a1655146101ca578063f2fde38b146101445763fc3c07440361000e5734610140576040366003190112610140576024356004355f52600660205260405f2080548210156101405760209161013191610fd2565b90549060031b1c604051908152f35b5f80fd5b346101405760203660031901126101405761015d610fbc565b6101656112f8565b6001600160a01b031680156101b757600180546001600160a01b0319811683179091556001600160a01b03167f8be0079c531659141344cd1fd0a4f28419497f9722a3daafe3b4186f6b6457e05f80a3005b631e4fbdf760e01b5f525f60045260245ffd5b34610140576040366003190112610140576101e3610fbc565b6001600160a01b03165f908152600560205260409020805460243591908210156101405760209161013191610fd2565b34610140575f3660031901126101405761022b6112f8565b610018611200565b606036600319011261014057610247610fbc565b60243567ffffffffffffffff811161014057610267903690600401611097565b6044359161027361131f565b6001600160a01b031691610288831515611262565b6102933415156112a2565b61029e6002546111c5565b90816002556127106102b2600854346111e0565b046102bd81346111f3565b93604051906102cb82611058565b84825233602080840191825260408085018a8152606086018a8152608087019586524260a088019081525f60c0890181815260e08a018c81528d8352600397889052959091209851895595516001890180546001600160a01b03199081166001600160a01b0393841617909155935160028a018054909516911617909255519286019290925592518051600486019167ffffffffffffffff82116105a65761037383546110ed565b601f8111610561575b50602090601f83116001146104f85760079695949392915f91836104ed575b50508160011b915f199060031b1c19161790555b51600585015560018060a01b03905116600684019060018060a01b03166bffffffffffffffffffffffff60a01b82541617905551910155335f5260056020526103fb8360405f2061133d565b845f5260046020526104108360405f2061133d565b845f52600760205260405f206104278582546111d3565b9055816104d3575b5f848681156104c9575b5f92839283928392f1156104b5578015801561048f575b50506040519283525f602084015260408301527fbb9fc6de61bfed1dab614e526e4aede044045573f5b35fb4813df3c75fc8baa360603393a460015f55005b5f808093819360018060a01b03600154169083906104c0575bf1156104b5578480610450565b6040513d5f823e3d90fd5b506108fc6104a8565b6108fc9250610439565b815f5260066020526104e88360405f2061133d565b61042f565b015190508d8061039b565b90601f19831691845f52815f20925f5b818110610549575091600193918560079a999897969410610531575b505050811b0190556103af565b01515f1960f88460031b161c191690558d8080610524565b92936020600181928786015181550195019301610508565b835f5260205f20601f840160051c8101916020851061059c575b601f0160051c01905b818110610591575061037c565b5f8155600101610584565b909150819061057b565b634e487b7160e01b5f52604160045260245ffd5b34610140576020366003190112610140576001600160a01b036105db610fbc565b165f526007602052602060405f2054604051908152f35b34610140576020366003190112610140576004355f52600360205260405f20805460018060a01b036001830154169160018060a01b0360028201541660038201549161068661064360048301611125565b600583015494600760018060a01b036006860154169401549460405198899889526020890152604088015260608701526101006080870152610100860190610ffb565b9260a085015260c084015260e08301520390f35b34610140576020366003190112610140576004355f52600660205260405f206040519081602082549182815201915f5260205f20905f5b8181106106f8576106f4856106e881870382611075565b6040519182918261101f565b0390f35b82548452602090930192600192830192016106d1565b34610140575f366003190112610140576001546040516001600160a01b039091168152602090f35b346101405760a03660031901126101405761074f610fbc565b6024356001600160a01b03811691908290036101405760443560643567ffffffffffffffff811161014057610788903690600401611097565b916084359061079561131f565b6001600160a01b0316936107aa851515611262565b8015610ac2576107bb8315156112a2565b6107c66002546111c5565b92836002556107e56127106107dd600854846111e0565b0480926111f3565b94604051906107f382611058565b85825233602080840191825260408085018b8152606086018b8152608087019586524260a0880190815260c088018a815260e089018c81525f8e8152600397889052959095209851895595516001890180546001600160a01b03199081166001600160a01b0393841617909155935160028a018054909516911617909255519286019290925592518051600486019167ffffffffffffffff82116105a65761089b83546110ed565b601f8111610a7d575b50602090601f8311600114610a145760079695949392915f9183610a09575b50508160011b915f199060031b1c19161790555b51600585015560018060a01b03905116600684019060018060a01b03166bffffffffffffffffffffffff60a01b82541617905551910155335f5260056020526109238460405f2061133d565b855f5260046020526109388460405f2061133d565b855f52600760205260405f2061094f8682546111d3565b9055826109ef575b5f858781156109e5575b5f92839283928392f1156104b557801580156109b6575b5050604051938452602084015260408301527fbb9fc6de61bfed1dab614e526e4aede044045573f5b35fb4813df3c75fc8baa360603393a460015f55005b5f808093819360018060a01b03600154169083906109dc575bf1156104b5578580610978565b506108fc6109cf565b6108fc9250610961565b825f526006602052610a048460405f2061133d565b610957565b015190508e806108c3565b90601f19831691845f52815f20925f5b818110610a65575091600193918560079a999897969410610a4d575b505050811b0190556108d7565b01515f1960f88460031b161c191690558e8080610a40565b92936020600181928786015181550195019301610a24565b835f5260205f20601f840160051c81019160208510610ab8575b601f0160051c01905b818110610aad57506108a4565b5f8155600101610aa0565b9091508190610a97565b60405162461bcd60e51b8152602060048201526015602482015274496e76616c696420746f6b656e206164647265737360581b6044820152606490fd5b34610140575f36600319011261014057610b176112f8565b600180546001600160a01b031981169091555f906001600160a01b03167f8be0079c531659141344cd1fd0a4f28419497f9722a3daafe3b4186f6b6457e08280a3005b34610140576020366003190112610140576001600160a01b03610b7b610fbc565b165f52600460205260405f206040519081602082549182815201915f5260205f20905f5b818110610bb6576106f4856106e881870382611075565b8254845260209093019260019283019201610b9f565b34610140576020366003190112610140576001600160a01b03610bed610fbc565b165f52600560205260405f206040519081602082549182815201915f5260205f20905f5b818110610c28576106f4856106e881870382611075565b8254845260209093019260019283019201610c11565b34610140576020366003190112610140576004355f60e0604051610c6181611058565b828152826020820152826040820152826060820152606060808201528260a08201528260c08201520152805f52600360205260405f205415610d99575f52600360205260405f20604051610cb481611058565b8154815260018201546001600160a01b03908116602083019081526002840154909116604083019081526003840154606084019081529193610d78610cfb60048301611125565b6080860190815260058301549460a08701958652600760018060a01b036006860154169460c0890195865201549460e0880195865260405198899860208a525160208a015260018060a01b03905116604089015260018060a01b0390511660608801525160808701525161010060a0870152610120860190610ffb565b925160c0850152516001600160a01b031660e0840152516101008301520390f35b60405162461bcd60e51b8152602060048201526012602482015271151a5c08191bd95cc81b9bdd08195e1a5cdd60721b6044820152606490fd5b3461014057604036600319011261014057610dec610fbc565b6001600160a01b03165f908152600460205260409020805460243591908210156101405760209161013191610fd2565b34610140575f366003190112610140576020600854604051908152f35b34610140575f366003190112610140576002545f905f60019260085493846127100361271081119561271014905b85831115610e8657606086868660405192835260208301526040820152f35b90919392610ea490855f526003602052600360405f200154906111d3565b92845f526003602052600360405f2001546127108102908082046127101490151715610f1e5787610f1e5783610f0a57610f0391610ef784610efd9304885f526003602052600360405f200154906111f3565b906111d3565b946111c5565b9190610e67565b634e487b7160e01b5f52601260045260245ffd5b634e487b7160e01b5f52601160045260245ffd5b3461014057602036600319011261014057600435610f4e6112f8565b6101f48111610f88576020817f45610d581145924dd7090a5017e5f2b1d6f42213bb2e95707ff86846bbfcb1ca92600855604051908152a1005b60405162461bcd60e51b815260206004820152600c60248201526b08ccaca40e8dede40d0d2ced60a31b6044820152606490fd5b600435906001600160a01b038216820361014057565b8054821015610fe7575f5260205f2001905f90565b634e487b7160e01b5f52603260045260245ffd5b805180835260209291819084018484015e5f828201840152601f01601f1916010190565b60206040818301928281528451809452019201905f5b8181106110425750505090565b8251845260209384019390920191600101611035565b610100810190811067ffffffffffffffff8211176105a657604052565b90601f8019910116810190811067ffffffffffffffff8211176105a657604052565b81601f820112156101405780359067ffffffffffffffff82116105a657604051926110cc601f8401601f191660200185611075565b8284526020838301011161014057815f926020809301838601378301015290565b90600182811c9216801561111b575b602083101461110757565b634e487b7160e01b5f52602260045260245ffd5b91607f16916110fc565b9060405191825f825492611138846110ed565b80845293600181169081156111a3575060011461115f575b5061115d92500383611075565b565b90505f9291925260205f20905f915b81831061118757505090602061115d928201015f611150565b602091935080600191548385890101520191019091849261116e565b90506020925061115d94915060ff191682840152151560051b8201015f611150565b5f198114610f1e5760010190565b91908201809211610f1e57565b81810292918115918404141715610f1e57565b91908203918211610f1e57565b478015611224576001545f918291829182916001600160a01b031682f1156104b557565b60405162461bcd60e51b81526020600482015260166024820152754e6f2062616c616e636520746f20776974686472617760501b6044820152606490fd5b1561126957565b60405162461bcd60e51b8152602060048201526011602482015270125b9d985b1a59081c9958da5c1a595b9d607a1b6044820152606490fd5b156112a957565b60405162461bcd60e51b815260206004820152602160248201527f54697020616d6f756e74206d7573742062652067726561746572207468616e206044820152600360fc1b6064820152608490fd5b6001546001600160a01b0316330361130c57565b63118cdaa760e01b5f523360045260245ffd5b60025f541461132e5760025f55565b633ee5aeb560e01b5f5260045ffd5b8054680100000000000000008110156105a65761135f91600182018155610fd2565b819291549060031b91821b915f19901b191617905556fea264697066735822122076f8235482d240ea64f949549ee8e021bfb7c31e9c5be95a2f5170f6fa7d907864736f6c634300081c0033",
  "linkReferences": {},
  "deployedLinkReferences": {}
}