{
  "_format": "hh-sol-artifact-1",
  "contractName": "UserProfile",
  "sourceName": "contracts/UserProfile.sol",
  "abi": [
    {
      "inputs": [],
      "stateMutability": "nonpayable",
      "type": "constructor"
    },
    {
      "inputs": [
        {
          "internalType": "address",
          "name": "owner",
          "type": "address"
        }
      ],
      "name": "OwnableInvalidOwner",
      "type": "error"
    },
    {
      "inputs": [
        {
          "internalType": "address",
          "name": "account",
          "type": "address"
        }
      ],
      "name": "OwnableUnauthorizedAccount",
      "type": "error"
    },
    {
      "anonymous": false,
      "inputs": [
        {
          "indexed": false,
          "internalType": "uint256",
          "name": "oldFee",
          "type": "uint256"
        },
        {
          "indexed": false,
          "internalType": "uint256",
          "name": "newFee",
          "type": "uint256"
        }
      ],
      "name": "ArtistUpgradeFeeUpdated",
      "type": "event"
    },
    {
      "anonymous": false,
      "inputs": [
        {
          "indexed": true,
          "internalType": "address",
          "name": "user",
          "type": "address"
        },
        {
          "indexed": false,
          "internalType": "uint256",
          "name": "feePaid",
          "type": "uint256"
        }
      ],
      "name": "ArtistUpgraded",
      "type": "event"
    },
    {
      "anonymous": false,
      "inputs": [
        {
          "indexed": true,
          "internalType": "address",
          "name": "artist",
          "type": "address"
        },
        {
          "indexed": false,
          "internalType": "uint256",
          "name": "expiryTime",
          "type": "uint256"
        }
      ],
      "name": "ArtistVerified",
      "type": "event"
    },
    {
      "anonymous": false,
      "inputs": [
        {
          "indexed": true,
          "internalType": "address",
          "name": "previousOwner",
          "type": "address"
        },
        {
          "indexed": true,
          "internalType": "address",
          "name": "newOwner",
          "type": "address"
        }
      ],
      "name": "OwnershipTransferred",
      "type": "event"
    },
    {
      "anonymous": false,
      "inputs": [
        {
          "indexed": true,
          "internalType": "address",
          "name": "user",
          "type": "address"
        },
        {
          "indexed": true,
          "internalType": "uint256",
          "name": "beatsId",
          "type": "uint256"
        },
        {
          "indexed": false,
          "internalType": "string",
          "name": "username",
          "type": "string"
        }
      ],
      "name": "ProfileCreated",
      "type": "event"
    },
    {
      "anonymous": false,
      "inputs": [
        {
          "indexed": true,
          "internalType": "address",
          "name": "user",
          "type": "address"
        }
      ],
      "name": "ProfileUpdated",
      "type": "event"
    },
    {
      "anonymous": false,
      "inputs": [
        {
          "indexed": true,
          "internalType": "address",
          "name": "oldTreasury",
          "type": "address"
        },
        {
          "indexed": true,
          "internalType": "address",
          "name": "newTreasury",
          "type": "address"
        }
      ],
      "name": "TreasuryUpdated",
      "type": "event"
    },
    {
      "anonymous": false,
      "inputs": [
        {
          "indexed": true,
          "internalType": "address",
          "name": "user",
          "type": "address"
        },
        {
          "indexed": false,
          "internalType": "string",
          "name": "oldUsername",
          "type": "string"
        },
        {
          "indexed": false,
          "internalType": "string",
          "name": "newUsername",
          "type": "string"
        }
      ],
      "name": "UsernameChanged",
      "type": "event"
    },
    {
      "anonymous": false,
      "inputs": [
        {
          "indexed": true,
          "internalType": "address",
          "name": "user",
          "type": "address"
        }
      ],
      "name": "VerificationExpired",
      "type": "event"
    },
    {
      "anonymous": false,
      "inputs": [
        {
          "indexed": true,
          "internalType": "address",
          "name": "user",
          "type": "address"
        },
        {
          "indexed": false,
          "internalType": "uint256",
          "name": "newExpiryTime",
          "type": "uint256"
        },
        {
          "indexed": false,
          "internalType": "uint256",
          "name": "feePaid",
          "type": "uint256"
        }
      ],
      "name": "VerificationRenewed",
      "type": "event"
    },
    {
      "inputs": [],
      "name": "VERIFICATION_DURATION",
      "outputs": [
        {
          "internalType": "uint256",
          "name": "",
          "type": "uint256"
        }
      ],
      "stateMutability": "view",
      "type": "function"
    },
    {
      "inputs": [
        {
          "internalType": "address",
          "name": "",
          "type": "address"
        }
      ],
      "name": "addressToBid",
      "outputs": [
        {
          "internalType": "uint256",
          "name": "",
          "type": "uint256"
        }
      ],
      "stateMutability": "view",
      "type": "function"
    },
    {
      "inputs": [
        {
          "internalType": "address",
          "name": "",
          "type": "address"
        }
      ],
      "name": "addressToUsername",
      "outputs": [
        {
          "internalType": "string",
          "name": "",
          "type": "string"
        }
      ],
      "stateMutability": "view",
      "type": "function"
    },
    {
      "inputs": [
        {
          "internalType": "address",
          "name": "",
          "type": "address"
        }
      ],
      "name": "artistData",
      "outputs": [
        {
          "internalType": "string",
          "name": "artistName",
          "type": "string"
        },
        {
          "internalType": "string",
          "name": "genre",
          "type": "string"
        },
        {
          "internalType": "uint256",
          "name": "totalStreams",
          "type": "uint256"
        },
        {
          "internalType": "uint256",
          "name": "totalLikes",
          "type": "uint256"
        },
        {
          "internalType": "uint256",
          "name": "songCount",
          "type": "uint256"
        },
        {
          "internalType": "uint256",
          "name": "followerCount",
          "type": "uint256"
        },
        {
          "internalType": "bool",
          "name": "isIndependent",
          "type": "bool"
        },
        {
          "internalType": "string",
          "name": "recordLabel",
          "type": "string"
        }
      ],
      "stateMutability": "view",
      "type": "function"
    },
    {
      "inputs": [],
      "name": "artistUpgradeFee",
      "outputs": [
        {
          "internalType": "uint256",
          "name": "",
          "type": "uint256"
        }
      ],
      "stateMutability": "view",
      "type": "function"
    },
    {
      "inputs": [
        {
          "internalType": "uint256",
          "name": "",
          "type": "uint256"
        }
      ],
      "name": "bidToAddress",
      "outputs": [
        {
          "internalType": "address",
          "name": "",
          "type": "address"
        }
      ],
      "stateMutability": "view",
      "type": "function"
    },
    {
      "inputs": [
        {
          "internalType": "string",
          "name": "newUsername",
          "type": "string"
        }
      ],
      "name": "changeUsername",
      "outputs": [],
      "stateMutability": "nonpayable",
      "type": "function"
    },
    {
      "inputs": [
        {
          "internalType": "address",
          "name": "user",
          "type": "address"
        }
      ],
      "name": "checkAndUpdateVerification",
      "outputs": [],
      "stateMutability": "nonpayable",
      "type": "function"
    },
    {
      "inputs": [
        {
          "internalType": "string",
          "name": "username",
          "type": "string"
        },
        {
          "internalType": "string",
          "name": "displayName",
          "type": "string"
        },
        {
          "internalType": "string",
          "name": "bio",
          "type": "string"
        },
        {
          "internalType": "string",
          "name": "avatarHash",
          "type": "string"
        },
        {
          "internalType": "string",
          "name": "location",
          "type": "string"
        },
        {
          "internalType": "bool",
          "name": "isArtist",
          "type": "bool"
        }
      ],
      "name": "createProfile",
      "outputs": [],
      "stateMutability": "nonpayable",
      "type": "function"
    },
    {
      "inputs": [
        {
          "internalType": "uint256",
          "name": "beatsId",
          "type": "uint256"
        }
      ],
      "name": "getAddressByBeatsId",
      "outputs": [
        {
          "internalType": "address",
          "name": "",
          "type": "address"
        }
      ],
      "stateMutability": "view",
      "type": "function"
    },
    {
      "inputs": [
        {
          "internalType": "string",
          "name": "username",
          "type": "string"
        }
      ],
      "name": "getAddressByUsername",
      "outputs": [
        {
          "internalType": "address",
          "name": "",
          "type": "address"
        }
      ],
      "stateMutability": "view",
      "type": "function"
    },
    {
      "inputs": [
        {
          "internalType": "address",
          "name": "artist",
          "type": "address"
        }
      ],
      "name": "getArtistData",
      "outputs": [
        {
          "components": [
            {
              "internalType": "string",
              "name": "artistName",
              "type": "string"
            },
            {
              "internalType": "string",
              "name": "genre",
              "type": "string"
            },
            {
              "internalType": "uint256",
              "name": "totalStreams",
              "type": "uint256"
            },
            {
              "internalType": "uint256",
              "name": "totalLikes",
              "type": "uint256"
            },
            {
              "internalType": "uint256",
              "name": "songCount",
              "type": "uint256"
            },
            {
              "internalType": "uint256",
              "name": "followerCount",
              "type": "uint256"
            },
            {
              "internalType": "bool",
              "name": "isIndependent",
              "type": "bool"
            },
            {
              "internalType": "string",
              "name": "recordLabel",
              "type": "string"
            }
          ],
          "internalType": "struct UserProfile.ArtistData",
          "name": "",
          "type": "tuple"
        }
      ],
      "stateMutability": "view",
      "type": "function"
    },
    {
      "inputs": [],
      "name": "getArtistUpgradeFee",
      "outputs": [
        {
          "internalType": "uint256",
          "name": "",
          "type": "uint256"
        }
      ],
      "stateMutability": "view",
      "type": "function"
    },
    {
      "inputs": [
        {
          "internalType": "address",
          "name": "user",
          "type": "address"
        }
      ],
      "name": "getBeatsIdByAddress",
      "outputs": [
        {
          "internalType": "uint256",
          "name": "",
          "type": "uint256"
        }
      ],
      "stateMutability": "view",
      "type": "function"
    },
    {
      "inputs": [
        {
          "internalType": "address",
          "name": "user",
          "type": "address"
        }
      ],
      "name": "getDaysUntilExpiry",
      "outputs": [
        {
          "internalType": "uint256",
          "name": "",
          "type": "uint256"
        }
      ],
      "stateMutability": "view",
      "type": "function"
    },
    {
      "inputs": [
        {
          "internalType": "address",
          "name": "user",
          "type": "address"
        }
      ],
      "name": "getProfile",
      "outputs": [
        {
          "components": [
            {
              "internalType": "address",
              "name": "userAddress",
              "type": "address"
            },
            {
              "internalType": "uint256",
              "name": "beatsId",
              "type": "uint256"
            },
            {
              "internalType": "string",
              "name": "username",
              "type": "string"
            },
            {
              "internalType": "string",
              "name": "displayName",
              "type": "string"
            },
            {
              "internalType": "string",
              "name": "bio",
              "type": "string"
            },
            {
              "internalType": "string",
              "name": "avatarHash",
              "type": "string"
            },
            {
              "internalType": "string",
              "name": "bannerHash",
              "type": "string"
            },
            {
              "internalType": "string",
              "name": "location",
              "type": "string"
            },
            {
              "internalType": "string",
              "name": "website",
              "type": "string"
            },
            {
              "components": [
                {
                  "internalType": "string",
                  "name": "instagram",
                  "type": "string"
                },
                {
                  "internalType": "string",
                  "name": "twitter",
                  "type": "string"
                },
                {
                  "internalType": "string",
                  "name": "youtube",
                  "type": "string"
                },
                {
                  "internalType": "string",
                  "name": "spotify",
                  "type": "string"
                },
                {
                  "internalType": "string",
                  "name": "soundcloud",
                  "type": "string"
                },
                {
                  "internalType": "string",
                  "name": "bandcamp",
                  "type": "string"
                },
                {
                  "internalType": "string",
                  "name": "discord",
                  "type": "string"
                },
                {
                  "internalType": "string",
                  "name": "telegram",
                  "type": "string"
                }
              ],
              "internalType": "struct UserProfile.SocialLinks",
              "name": "socialLinks",
              "type": "tuple"
            },
            {
              "internalType": "bool",
              "name": "isVerified",
              "type": "bool"
            },
            {
              "internalType": "bool",
              "name": "isArtist",
              "type": "bool"
            },
            {
              "internalType": "uint256",
              "name": "reputationScore",
              "type": "uint256"
            },
            {
              "internalType": "uint256",
              "name": "createdAt",
              "type": "uint256"
            },
            {
              "internalType": "uint256",
              "name": "updatedAt",
              "type": "uint256"
            }
          ],
          "internalType": "struct UserProfile.Profile",
          "name": "",
          "type": "tuple"
        }
      ],
      "stateMutability": "view",
      "type": "function"
    },
    {
      "inputs": [
        {
          "internalType": "uint256",
          "name": "beatsId",
          "type": "uint256"
        }
      ],
      "name": "getProfileByBeatsId",
      "outputs": [
        {
          "components": [
            {
              "internalType": "address",
              "name": "userAddress",
              "type": "address"
            },
            {
              "internalType": "uint256",
              "name": "beatsId",
              "type": "uint256"
            },
            {
              "internalType": "string",
              "name": "username",
              "type": "string"
            },
            {
              "internalType": "string",
              "name": "displayName",
              "type": "string"
            },
            {
              "internalType": "string",
              "name": "bio",
              "type": "string"
            },
            {
              "internalType": "string",
              "name": "avatarHash",
              "type": "string"
            },
            {
              "internalType": "string",
              "name": "bannerHash",
              "type": "string"
            },
            {
              "internalType": "string",
              "name": "location",
              "type": "string"
            },
            {
              "internalType": "string",
              "name": "website",
              "type": "string"
            },
            {
              "components": [
                {
                  "internalType": "string",
                  "name": "instagram",
                  "type": "string"
                },
                {
                  "internalType": "string",
                  "name": "twitter",
                  "type": "string"
                },
                {
                  "internalType": "string",
                  "name": "youtube",
                  "type": "string"
                },
                {
                  "internalType": "string",
                  "name": "spotify",
                  "type": "string"
                },
                {
                  "internalType": "string",
                  "name": "soundcloud",
                  "type": "string"
                },
                {
                  "internalType": "string",
                  "name": "bandcamp",
                  "type": "string"
                },
                {
                  "internalType": "string",
                  "name": "discord",
                  "type": "string"
                },
                {
                  "internalType": "string",
                  "name": "telegram",
                  "type": "string"
                }
              ],
              "internalType": "struct UserProfile.SocialLinks",
              "name": "socialLinks",
              "type": "tuple"
            },
            {
              "internalType": "bool",
              "name": "isVerified",
              "type": "bool"
            },
            {
              "internalType": "bool",
              "name": "isArtist",
              "type": "bool"
            },
            {
              "internalType": "uint256",
              "name": "reputationScore",
              "type": "uint256"
            },
            {
              "internalType": "uint256",
              "name": "createdAt",
              "type": "uint256"
            },
            {
              "internalType": "uint256",
              "name": "updatedAt",
              "type": "uint256"
            }
          ],
          "internalType": "struct UserProfile.Profile",
          "name": "",
          "type": "tuple"
        }
      ],
      "stateMutability": "view",
      "type": "function"
    },
    {
      "inputs": [],
      "name": "getTotalProfiles",
      "outputs": [
        {
          "internalType": "uint256",
          "name": "",
          "type": "uint256"
        }
      ],
      "stateMutability": "view",
      "type": "function"
    },
    {
      "inputs": [
        {
          "internalType": "address",
          "name": "user",
          "type": "address"
        }
      ],
      "name": "getUsernameByAddress",
      "outputs": [
        {
          "internalType": "string",
          "name": "",
          "type": "string"
        }
      ],
      "stateMutability": "view",
      "type": "function"
    },
    {
      "inputs": [],
      "name": "getVerificationDurationDays",
      "outputs": [
        {
          "internalType": "uint256",
          "name": "",
          "type": "uint256"
        }
      ],
      "stateMutability": "pure",
      "type": "function"
    },
    {
      "inputs": [
        {
          "internalType": "address",
          "name": "user",
          "type": "address"
        }
      ],
      "name": "getVerificationExpiry",
      "outputs": [
        {
          "internalType": "uint256",
          "name": "",
          "type": "uint256"
        }
      ],
      "stateMutability": "view",
      "type": "function"
    },
    {
      "inputs": [],
      "name": "getVerifiedArtists",
      "outputs": [
        {
          "internalType": "address[]",
          "name": "",
          "type": "address[]"
        }
      ],
      "stateMutability": "view",
      "type": "function"
    },
    {
      "inputs": [
        {
          "internalType": "address",
          "name": "artist",
          "type": "address"
        },
        {
          "internalType": "uint256",
          "name": "streams",
          "type": "uint256"
        },
        {
          "internalType": "uint256",
          "name": "likes",
          "type": "uint256"
        },
        {
          "internalType": "uint256",
          "name": "songs",
          "type": "uint256"
        }
      ],
      "name": "incrementArtistStats",
      "outputs": [],
      "stateMutability": "nonpayable",
      "type": "function"
    },
    {
      "inputs": [
        {
          "internalType": "address",
          "name": "",
          "type": "address"
        }
      ],
      "name": "isUserVerified",
      "outputs": [
        {
          "internalType": "bool",
          "name": "",
          "type": "bool"
        }
      ],
      "stateMutability": "view",
      "type": "function"
    },
    {
      "inputs": [
        {
          "internalType": "address",
          "name": "user",
          "type": "address"
        }
      ],
      "name": "isVerificationActive",
      "outputs": [
        {
          "internalType": "bool",
          "name": "",
          "type": "bool"
        }
      ],
      "stateMutability": "view",
      "type": "function"
    },
    {
      "inputs": [],
      "name": "nextBeatsId",
      "outputs": [
        {
          "internalType": "uint256",
          "name": "",
          "type": "uint256"
        }
      ],
      "stateMutability": "view",
      "type": "function"
    },
    {
      "inputs": [],
      "name": "owner",
      "outputs": [
        {
          "internalType": "address",
          "name": "",
          "type": "address"
        }
      ],
      "stateMutability": "view",
      "type": "function"
    },
    {
      "inputs": [
        {
          "internalType": "address",
          "name": "user",
          "type": "address"
        }
      ],
      "name": "profileExists",
      "outputs": [
        {
          "internalType": "bool",
          "name": "",
          "type": "bool"
        }
      ],
      "stateMutability": "view",
      "type": "function"
    },
    {
      "inputs": [
        {
          "internalType": "address",
          "name": "",
          "type": "address"
        }
      ],
      "name": "profiles",
      "outputs": [
        {
          "internalType": "address",
          "name": "userAddress",
          "type": "address"
        },
        {
          "internalType": "uint256",
          "name": "beatsId",
          "type": "uint256"
        },
        {
          "internalType": "string",
          "name": "username",
          "type": "string"
        },
        {
          "internalType": "string",
          "name": "displayName",
          "type": "string"
        },
        {
          "internalType": "string",
          "name": "bio",
          "type": "string"
        },
        {
          "internalType": "string",
          "name": "avatarHash",
          "type": "string"
        },
        {
          "internalType": "string",
          "name": "bannerHash",
          "type": "string"
        },
        {
          "internalType": "string",
          "name": "location",
          "type": "string"
        },
        {
          "internalType": "string",
          "name": "website",
          "type": "string"
        },
        {
          "components": [
            {
              "internalType": "string",
              "name": "instagram",
              "type": "string"
            },
            {
              "internalType": "string",
              "name": "twitter",
              "type": "string"
            },
            {
              "internalType": "string",
              "name": "youtube",
              "type": "string"
            },
            {
              "internalType": "string",
              "name": "spotify",
              "type": "string"
            },
            {
              "internalType": "string",
              "name": "soundcloud",
              "type": "string"
            },
            {
              "internalType": "string",
              "name": "bandcamp",
              "type": "string"
            },
            {
              "internalType": "string",
              "name": "discord",
              "type": "string"
            },
            {
              "internalType": "string",
              "name": "telegram",
              "type": "string"
            }
          ],
          "internalType": "struct UserProfile.SocialLinks",
          "name": "socialLinks",
          "type": "tuple"
        },
        {
          "internalType": "bool",
          "name": "isVerified",
          "type": "bool"
        },
        {
          "internalType": "bool",
          "name": "isArtist",
          "type": "bool"
        },
        {
          "internalType": "uint256",
          "name": "reputationScore",
          "type": "uint256"
        },
        {
          "internalType": "uint256",
          "name": "createdAt",
          "type": "uint256"
        },
        {
          "internalType": "uint256",
          "name": "updatedAt",
          "type": "uint256"
        }
      ],
      "stateMutability": "view",
      "type": "function"
    },
    {
      "inputs": [],
      "name": "renewVerification",
      "outputs": [],
      "stateMutability": "payable",
      "type": "function"
    },
    {
      "inputs": [],
      "name": "renounceOwnership",
      "outputs": [],
      "stateMutability": "nonpayable",
      "type": "function"
    },
    {
      "inputs": [
        {
          "internalType": "uint256",
          "name": "newFee",
          "type": "uint256"
        }
      ],
      "name": "setArtistUpgradeFee",
      "outputs": [],
      "stateMutability": "nonpayable",
      "type": "function"
    },
    {
      "inputs": [
        {
          "internalType": "address",
          "name": "newTreasury",
          "type": "address"
        }
      ],
      "name": "setTreasury",
      "outputs": [],
      "stateMutability": "nonpayable",
      "type": "function"
    },
    {
      "inputs": [
        {
          "internalType": "address",
          "name": "newOwner",
          "type": "address"
        }
      ],
      "name": "transferOwnership",
      "outputs": [],
      "stateMutability": "nonpayable",
      "type": "function"
    },
    {
      "inputs": [],
      "name": "treasury",
      "outputs": [
        {
          "internalType": "address",
          "name": "",
          "type": "address"
        }
      ],
      "stateMutability": "view",
      "type": "function"
    },
    {
      "inputs": [
        {
          "internalType": "string",
          "name": "artistName",
          "type": "string"
        },
        {
          "internalType": "string",
          "name": "genre",
          "type": "string"
        },
        {
          "internalType": "bool",
          "name": "isIndependent",
          "type": "bool"
        },
        {
          "internalType": "string",
          "name": "recordLabel",
          "type": "string"
        }
      ],
      "name": "updateArtistData",
      "outputs": [],
      "stateMutability": "nonpayable",
      "type": "function"
    },
    {
      "inputs": [
        {
          "internalType": "string",
          "name": "displayName",
          "type": "string"
        },
        {
          "internalType": "string",
          "name": "bio",
          "type": "string"
        },
        {
          "internalType": "string",
          "name": "avatarHash",
          "type": "string"
        },
        {
          "internalType": "string",
          "name": "bannerHash",
          "type": "string"
        },
        {
          "internalType": "string",
          "name": "location",
          "type": "string"
        },
        {
          "internalType": "string",
          "name": "website",
          "type": "string"
        }
      ],
      "name": "updateProfile",
      "outputs": [],
      "stateMutability": "nonpayable",
      "type": "function"
    },
    {
      "inputs": [
        {
          "internalType": "address",
          "name": "user",
          "type": "address"
        },
        {
          "internalType": "uint256",
          "name": "newScore",
          "type": "uint256"
        }
      ],
      "name": "updateReputation",
      "outputs": [],
      "stateMutability": "nonpayable",
      "type": "function"
    },
    {
      "inputs": [
        {
          "internalType": "string",
          "name": "instagram",
          "type": "string"
        },
        {
          "internalType": "string",
          "name": "twitter",
          "type": "string"
        },
        {
          "internalType": "string",
          "name": "youtube",
          "type": "string"
        },
        {
          "internalType": "string",
          "name": "spotify",
          "type": "string"
        },
        {
          "internalType": "string",
          "name": "soundcloud",
          "type": "string"
        },
        {
          "internalType": "string",
          "name": "bandcamp",
          "type": "string"
        },
        {
          "internalType": "string",
          "name": "discord",
          "type": "string"
        },
        {
          "internalType": "string",
          "name": "telegram",
          "type": "string"
        }
      ],
      "name": "updateSocialLinks",
      "outputs": [],
      "stateMutability": "nonpayable",
      "type": "function"
    },
    {
      "inputs": [
        {
          "internalType": "string",
          "name": "artistName",
          "type": "string"
        },
        {
          "internalType": "string",
          "name": "genre",
          "type": "string"
        },
        {
          "internalType": "bool",
          "name": "isIndependent",
          "type": "bool"
        },
        {
          "internalType": "string",
          "name": "recordLabel",
          "type": "string"
        }
      ],
      "name": "upgradeToArtist",
      "outputs": [],
      "stateMutability": "payable",
      "type": "function"
    },
    {
      "inputs": [
        {
          "internalType": "string",
          "name": "",
          "type": "string"
        }
      ],
      "name": "usernameToAddress",
      "outputs": [
        {
          "internalType": "address",
          "name": "",
          "type": "address"
        }
      ],
      "stateMutability": "view",
      "type": "function"
    },
    {
      "inputs": [
        {
          "internalType": "address",
          "name": "",
          "type": "address"
        }
      ],
      "name": "verificationExpiry",
      "outputs": [
        {
          "internalType": "uint256",
          "name": "",
          "type": "uint256"
        }
      ],
      "stateMutability": "view",
      "type": "function"
    },
    {
      "inputs": [
        {
          "internalType": "uint256",
          "name": "",
          "type": "uint256"
        }
      ],
      "name": "verifiedArtists",
      "outputs": [
        {
          "internalType": "address",
          "name": "",
          "type": "address"
        }
      ],
      "stateMutability": "view",
      "type": "function"
    },
    {
      "inputs": [
        {
          "internalType": "address",
          "name": "artistAddress",
          "type": "address"
        }
      ],
      "name": "verifyArtist",
      "outputs": [],
      "stateMutability": "nonpayable",
      "type": "function"
    },
    {
      "inputs": [],
      "name": "withdraw",
      "outputs": [],
      "stateMutability": "nonpayable",
      "type": "function"
    },
    {
      "stateMutability": "payable",
      "type": "receive"
    }
  ],
  "bytecode": "0x6080806040523460955733156082575f8054336001600160a01b0319821681178355916001600160a01b03909116907f8be0079c531659141344cd1fd0a4f28419497f9722a3daafe3b4186f6b6457e09080a360016007556801158e460913d00000600b55600c80546001600160a01b031916331790556155db908161009a8239f35b631e4fbdf760e01b5f525f60045260245ffd5b5f80fdfe608080604052600436101561001c575b50361561001a575f80fd5b005b5f3560e01c90816301afd52d14614c9d5750806305cfa06f14614c5b5780630cbc41ad14614ae95780630f53a47014614aa25780631736303414614a775780631b6b8914146149b35780631dd1a0201461485f57806330ba102d14613cfb5780633ccfd60b146147aa578063421f9346146115325780634c7061b11461462d57806350bbed201461460057806361babc6e14613e3957806361d027b314613e115780636322961d146102175780636fbda99b14613d335780636fdf96b414613cfb578063715018a614613ca4578063733abc6e14613c0457806375885b9214613be957806377c846af1461383857806382200700146132ad57806385bf34871461093a5780638da5cb5b1461328657806395da9ca0146131be578063a166a2c214613046578063a4a729f414611564578063a4b9f7a814611532578063ace417e0146114f5578063b4e5062814610902578063bab17ce9146114b8578063bbe156271461132f578063bbf8c75e14610957578063cdbb225f1461093a578063ceeb4baa14610902578063db34069c14610876578063df75f28b146104c6578063e07a0baa14610476578063ed1a998d14610476578063f0f44260146103be578063f2fde38b14610339578063f5c91a08146102db578063f7267b1314610299578063f7829d711461027c5763f825f14314610217575f61000f565b34610278576020366003190112610278576004356001600160401b038111610278576102496020913690600401615016565b8160405191805191829101835e600390820190815281900382019020546040516001600160a01b039091168152f35b5f80fd5b34610278575f366003190112610278576020600754604051908152f35b3461027857602036600319011261027857600435600854811015610278576102c2602091615164565b905460405160039290921b1c6001600160a01b03168152f35b34610278576040366003190112610278576102f4614cb8565b6102fc61555f565b6001600160a01b039081165f818152600160205260409020549091610323911615156152db565b5f526001602052602435601260405f2001555f80f35b3461027857602036600319011261027857610352614cb8565b61035a61555f565b6001600160a01b031680156103ab575f80546001600160a01b03198116831782556001600160a01b0316907f8be0079c531659141344cd1fd0a4f28419497f9722a3daafe3b4186f6b6457e09080a3005b631e4fbdf760e01b5f525f60045260245ffd5b34610278576020366003190112610278576103d7614cb8565b6103df61555f565b6001600160a01b0316801561043157600c80546001600160a01b0319811683179091556001600160a01b03167f4ab5be82436d353e61ca18726e984e561f5c1cc7c6d38b29d2553c790434705a5f80a3005b60405162461bcd60e51b815260206004820152601860248201527f496e76616c6964207472656173757279206164647265737300000000000000006044820152606490fd5b34610278576020366003190112610278576001600160a01b03610497614cb8565b165f5260046020526104c26104ae60405f20614f5b565b604051918291602083526020830190614cce565b0390f35b34610278576104d43661505c565b9291335f5260016020526104f460ff601160405f20015460081c16615190565b335f52600260205260405f209280519081610764575b505080518061064d575b505061052f90600683019060ff801983541691151516179055565b8151908161053957005b600701906001600160401b038111610639576105558254614eca565b601f81116105f4575b50602092601f821160011461059857928192935f9261058d575b50508160011b915f199060031b1c1916179055005b015190508380610578565b601f19821693835f52805f20915f5b8681106105dc57508360019596106105c4575b505050811b019055005b01515f1960f88460031b161c191690558380806105ba565b919260206001819286850151815501940192016105a7565b825f5260205f20601f830160051c8101916020841061062f575b601f0160051c01905b818110610624575061055e565b5f8155600101610617565b909150819061060e565b634e487b7160e01b5f52604160045260245ffd5b60018401916001600160401b0382116106395761066a8354614eca565b601f811161071f575b50602090601f83116001146106b75761052f949392915f91836106ac575b50508160011b915f199060031b1c19161790555b9084610514565b015190508780610691565b90601f19831691845f52815f20925f5b818110610707575091600193918561052f98979694106106ef575b505050811b0190556106a5565b01515f1960f88460031b161c191690558780806106e2565b929360206001819287860151815501950193016106c7565b835f5260205f20601f840160051c8101916020851061075a575b601f0160051c01905b81811061074f5750610673565b5f8155600101610742565b9091508190610739565b6001600160401b03821161063957819061077e8654614eca565b601f8111610826575b50602090601f83116001146107c3575f926107b8575b50508160011b915f199060031b1c19161783555b848061050a565b01519050868061079d565b5f8781528281209350601f198516905b81811061080e57509084600195949392106107f6575b505050811b0183556107b1565b01515f1960f88460031b161c191690558680806107e9565b929360206001819287860151815501950193016107d3565b909150855f5260205f20601f840160051c8101916020851061086c575b90601f859493920160051c01905b81811061085e5750610787565b5f8155849350600101610851565b9091508190610843565b346102785760803660031901126102785761088f614cb8565b61089761555f565b6001600160a01b03165f8181526001602052604090206011015460081c60ff166108bd57005b5f526002602052600460405f20600281016108db60243582546153de565b9055600381016108ee60443582546153de565b9055016108fe60643582546153de565b9055005b34610278576020366003190112610278576001600160a01b03610923614cb8565b165f526006602052602060405f2054604051908152f35b34610278575f366003190112610278576020600b54604051908152f35b3461027857610100366003190112610278576004356001600160401b03811161027857610988903690600401615016565b6024356001600160401b038111610278576109a7903690600401615016565b6044356001600160401b038111610278576109c6903690600401615016565b916064356001600160401b038111610278576109e6903690600401615016565b6084356001600160401b03811161027857610a05903690600401615016565b60a4356001600160401b03811161027857610a24903690600401615016565b9160c4356001600160401b03811161027857610a44903690600401615016565b9560e4356001600160401b03811161027857610a64903690600401615016565b95335f526001602052610a8460018060a01b0360405f20541615156152db565b335f52600160205260405f209560098701908051906001600160401b038211610639578190610ab38454614eca565b601f81116112df575b50602090601f831160011461127c575f92611271575b50508160011b915f199060031b1c19161790555b8051600a8701916001600160401b038211610639578190610b078454614eca565b601f8111611221575b50602090601f83116001146111be575f926111b3575b50508160011b915f199060031b1c19161790555b8051600b8601916001600160401b038211610639578190610b5b8454614eca565b601f8111611163575b50602090601f8311600114611100575f926110f5575b50508160011b915f199060031b1c19161790555b8051600c8501916001600160401b038211610639578190610baf8454614eca565b601f81116110a5575b50602090601f8311600114611042575f92611037575b50508160011b915f199060031b1c19161790555b8051600d8401916001600160401b038211610639578190610c038454614eca565b601f8111610fe7575b50602090601f8311600114610f84575f92610f79575b50508160011b915f199060031b1c19161790555b8051600e8301916001600160401b038211610639578190610c578454614eca565b601f8111610f29575b50602090601f8311600114610ec6575f92610ebb575b50508160011b915f199060031b1c19161790555b600f810183516001600160401b03811161063957610ca88254614eca565b601f8111610e76575b506020601f8211600114610e11578190601095965f92610e06575b50508160011b915f199060031b1c19161790555b0181516001600160401b03811161063957610cfb8254614eca565b601f8111610dc1575b50602092601f8211600114610d6257928192935f92610d57575b50508160011b915f199060031b1c19161790555b335f52600160205242601460405f200155335f5160206155865f395f51905f525f80a2005b015190508380610d1e565b601f19821693835f52805f20915f5b868110610da95750836001959610610d91575b505050811b019055610d32565b01515f1960f88460031b161c19169055838080610d84565b91926020600181928685015181550194019201610d71565b825f5260205f20601f830160051c81019160208410610dfc575b601f0160051c01905b818110610df15750610d04565b5f8155600101610de4565b9091508190610ddb565b015190508680610ccc565b601f19821695835f52815f20965f5b818110610e5e5750916010969791846001959410610e46575b505050811b019055610ce0565b01515f1960f88460031b161c19169055868080610e39565b83830151895560019098019760209384019301610e20565b825f5260205f20601f830160051c81019160208410610eb1575b601f0160051c01905b818110610ea65750610cb1565b5f8155600101610e99565b9091508190610e90565b015190508680610c76565b5f8581528281209350601f198516905b818110610f115750908460019594939210610ef9575b505050811b019055610c8a565b01515f1960f88460031b161c19169055868080610eec565b92936020600181928786015181550195019301610ed6565b909150835f5260205f20601f840160051c81019160208510610f6f575b90601f859493920160051c01905b818110610f615750610c60565b5f8155849350600101610f54565b9091508190610f46565b015190508780610c22565b5f8581528281209350601f198516905b818110610fcf5750908460019594939210610fb7575b505050811b019055610c36565b01515f1960f88460031b161c19169055878080610faa565b92936020600181928786015181550195019301610f94565b909150835f5260205f20601f840160051c8101916020851061102d575b90601f859493920160051c01905b81811061101f5750610c0c565b5f8155849350600101611012565b9091508190611004565b015190508880610bce565b5f8581528281209350601f198516905b81811061108d5750908460019594939210611075575b505050811b019055610be2565b01515f1960f88460031b161c19169055888080611068565b92936020600181928786015181550195019301611052565b909150835f5260205f20601f840160051c810191602085106110eb575b90601f859493920160051c01905b8181106110dd5750610bb8565b5f81558493506001016110d0565b90915081906110c2565b015190508980610b7a565b5f8581528281209350601f198516905b81811061114b5750908460019594939210611133575b505050811b019055610b8e565b01515f1960f88460031b161c19169055898080611126565b92936020600181928786015181550195019301611110565b909150835f5260205f20601f840160051c810191602085106111a9575b90601f859493920160051c01905b81811061119b5750610b64565b5f815584935060010161118e565b9091508190611180565b015190508a80610b26565b5f8581528281209350601f198516905b81811061120957509084600195949392106111f1575b505050811b019055610b3a565b01515f1960f88460031b161c191690558a80806111e4565b929360206001819287860151815501950193016111ce565b909150835f5260205f20601f840160051c81019160208510611267575b90601f859493920160051c01905b8181106112595750610b10565b5f815584935060010161124c565b909150819061123e565b015190508b80610ad2565b5f8581528281209350601f198516905b8181106112c757509084600195949392106112af575b505050811b019055610ae6565b01515f1960f88460031b161c191690558b80806112a2565b9293602060018192878601518155019501930161128c565b909150835f5260205f20601f840160051c81019160208510611325575b90601f859493920160051c01905b8181106113175750610abc565b5f815584935060010161130a565b90915081906112fc565b34610278576020366003190112610278576001600160a01b03611350614cb8565b165f52600160205260405f20600160a01b600190038154166001820154916002810161137b90614f5b565b61138760038301614f5b565b9161139460048201614f5b565b926113a160058301614f5b565b6113ad60068401614f5b565b6113b960078501614f5b565b6113c560088601614f5b565b916113d2600987016150d2565b9360118701549860128801549660138901549860140154996040519d8e809e81526020015260408d016101e090526101e08d0161140e91614cce565b8c810360608e015261141f91614cce565b8b810360808d015261143091614cce565b8a810360a08c015261144191614cce565b89810360c08b015261145291614cce565b88810360e08a015261146391614cce565b87810361010089015261147591614cce565b86810361012088015261148791614cf2565b9360ff8116151561014087015260081c60ff1615156101608601526101808501526101a08401526101c08301520390f35b34610278575f366003190112610278576007545f1981019081116114e157602090604051908152f35b634e487b7160e01b5f52601160045260245ffd5b34610278576020366003190112610278576001600160a01b03611516614cb8565b165f526009602052602060ff60405f2054166040519015158152f35b34610278576020366003190112610278576004355f526005602052602060018060a01b0360405f205416604051908152f35b346102785760c0366003190112610278576004356001600160401b03811161027857611594903690600401615016565b6024356001600160401b038111610278576115b3903690600401615016565b906044356001600160401b038111610278576115d3903690600401615016565b6064356001600160401b038111610278576115f2903690600401615016565b6084356001600160401b03811161027857611611903690600401615016565b9360a4358015159283820361027857335f908152600160205260409020546001600160a01b03166130085761164a6003875110156154a1565b611658601e875111156154e2565b61168760405187518060208a01835e60039082019081528190036020019020546001600160a01b031615615522565b5f5b865181101561177b5760ff60f81b6020828901015116600360fc1b811015908161176c575b8115611748575b8115611724575b8115611716575b50156116d157600101611689565b60405162461bcd60e51b815260206004820152601b60248201527f496e76616c696420757365726e616d65206368617261637465727300000000006044820152606490fd5b605f60f81b149050896116c3565b9050606160f81b8110158061173a575b906116bc565b50603d60f91b811115611734565b9050604160f81b8110158061175e575b906116b5565b50602d60f91b811115611758565b603960f81b81111591506116ae565b5060075495939487905f1988146114e15760018801600755604051966117a088614f02565b6020976040516117b08a82614f3a565b5f815281526040516117c28a82614f3a565b5f8152898201526040516117d68a82614f3a565b5f815260408201526040516117eb8a82614f3a565b5f815260608201526040516118008a82614f3a565b5f815260808201526040516118158a82614f3a565b5f815260a082015260405161182a8a82614f3a565b5f815260c082015260405161183f8a82614f3a565b5f815260e08201526040519361185485614f1e565b338552898501958b875260408601948a8652896060880152608087015260a08601526040516118838b82614f3a565b5f815260c086015260e085015260405161189d8a82614f3a565b5f81526101008501526101208401525f6101408401526101608301525f610180830152426101a0830152426101c0830152335f526001875260405f209260018060a01b0360018060a01b03845116166bffffffffffffffffffffffff60a01b855416178455516001840155518051906001600160401b0382116106395781906119296002860154614eca565b601f8111612fba575b508890601f8311600114612f4d575f92612f42575b50508160011b915f199060031b1c19161760028301555b60608101518051906001600160401b0382116106395781906119836003860154614eca565b601f8111612ef4575b508890601f8311600114612e87575f92612e7c575b50508160011b915f199060031b1c19161760038301555b60808101518051906001600160401b0382116106395781906119dd6004860154614eca565b601f8111612e2e575b508890601f8311600114612dc1575f92612db6575b50508160011b915f199060031b1c19161760048301555b60a08101518051906001600160401b038211610639578190611a376005860154614eca565b601f8111612d68575b508890601f8311600114612cfb575f92612cf0575b50508160011b915f199060031b1c19161760058301555b60c08101518051906001600160401b038211610639578190611a916006860154614eca565b601f8111612ca2575b508890601f8311600114612c35575f92612c2a575b50508160011b915f199060031b1c19161760068301555b60e08101518051906001600160401b038211610639578190611aeb6007860154614eca565b601f8111612bdc575b508890601f8311600114612b6f575f92612b64575b50508160011b915f199060031b1c19161760078301555b6101008101518051906001600160401b038211610639578190611b466008860154614eca565b601f8111612b16575b508890601f8311600114612aa9575f92612a9e575b50508160011b915f199060031b1c19161760088301555b61012081015180518051906001600160401b038211610639578190611ba36009870154614eca565b601f8111612a50575b508990601f83116001146129e3575f926129d8575b50508160011b915f199060031b1c19161760098401555b868101518051906001600160401b038211610639578190611bfc600a870154614eca565b601f811161298a575b508990601f831160011461291d575f92612912575b50508160011b915f199060031b1c191617600a8401555b60408101518051906001600160401b038211610639578190611c56600b870154614eca565b601f81116128c4575b508990601f8311600114612857575f9261284c575b50508160011b915f199060031b1c191617600b8401555b60608101518051906001600160401b038211610639578190611cb0600c870154614eca565b601f81116127fe575b508990601f8311600114612791575f92612786575b50508160011b915f199060031b1c191617600c8401555b60808101518051906001600160401b038211610639578190611d0a600d870154614eca565b601f8111612738575b508990601f83116001146126cb575f926126c0575b50508160011b915f199060031b1c191617600d8401555b60a08101518051906001600160401b038211610639578190611d64600e870154614eca565b601f8111612672575b508990601f8311600114612605575f926125fa575b50508160011b915f199060031b1c191617600e8401555b60c08101518051906001600160401b03821161063957611dbc600f860154614eca565b601f81116125b8575b508890601f831160011461254a5760e09392915f918361253f575b50508160011b915f199060031b1c191617600f8501555b01518051906001600160401b03821161063957611e176010850154614eca565b601f81116124f9575b508790601f8311600114612488579180601494926101c0945f9261247d575b50508160011b915f199060031b1c19161760108501555b60118401611e776101408301511515829060ff801983541691151516179055565b610160820151151561ff0082549160081b169061ff00191617905561018081015160128501556101a081015160138501550151910155604051848185518060208801835e60039082019081520301902080546001600160a01b031916339081179091555f908152600485526040902083516001600160401b03811161063957611f008254614eca565b601f811161243a575b508086601f82116001146123d9575f916123ce575b508160011b915f199060031b1c19161790555b5f85815260058552604080822080546001600160a01b031916339081179091558252600686529020859055611f9f575b50611f9a7f02ed4ee0412e67bbc9ed1687f3ad6bb7134d359d45994f3bf5302e91d81cf61f916040519182918583523395830190614cce565b0390a3005b60405190611fac82614f02565b815260405190611fbc8483614f3a565b5f8252838101918252604081015f8152606082015f8152608083015f815260a08401915f835260c08501936001855260405196611ff98a89614f3a565b5f885260e08701978852335f5260028a5260405f2096518051906001600160401b0382116106395781908c61202e8b54614eca565b601f811161237d575b50508c90601f8311600114612319575f9261230e575b50508160011b915f199060031b1c19161787555b51805160018801916001600160401b038211610639578b6120828454614eca565b601f81116122c9575b50508b90601f83116001146122585791806120f59896949260079b9a9896945f9261224d575b50508160011b915f199060031b1c19161790555b516002870155516003860155516004850155516005840155511515600683019060ff801983541691151516179055565b0190518051906001600160401b038211610639576121138354614eca565b601f811161220a575b508490601f8311600114612181579180611f9a94927f02ed4ee0412e67bbc9ed1687f3ad6bb7134d359d45994f3bf5302e91d81cf61f96945f92612176575b50508160011b915f199060031b1c19161790555b9150611f61565b01519050888061215b565b90601f19831691845f52865f20925f5b888282106121f45750509260019285927f02ed4ee0412e67bbc9ed1687f3ad6bb7134d359d45994f3bf5302e91d81cf61f9896611f9a9896106121dc575b505050811b01905561216f565b01515f1960f88460031b161c191690558880806121cf565b6001859682939686015181550195019301612191565b835f52855f20601f840160051c810191878510612243575b601f0160051c01905b818110612238575061211c565b5f815560010161222b565b9091508190612222565b015190508f806120b1565b5f8481528d8120929190601f198516908f5b8282106122b257505092600192859260079d9c9a98966120f59c9a98961061229a575b505050811b0190556120c5565b01515f1960f88460031b161c191690558f808061228d565b60018596829396860151815501950193018f61226a565b845f52815f2090601f850160051c8201928510612304575b601f0160051c01905b8181106122f9578d915061208b565b5f81556001016122ea565b90915081906122e1565b015190508d8061204d565b5f8b81528e81209350601f198516908f5b82821061236657505090846001959493921061234e575b505050811b018755612061565b01515f1960f88460031b161c191690558d8080612341565b60018596829396860151815501950193018f61232a565b909192508a5f52815f2090601f850160051c82019285106123c4575b90601f859493920160051c01905b8181106123b6578e9150612037565b5f81558493506001016123a7565b9091508190612399565b905085015188611f1e565b5f8481528881209250601f198416905b89828210612424575050908360019493921061240c575b5050811b019055611f31565b8701515f1960f88460031b161c191690558880612400565b600184958293958c0151815501940192016123e9565b825f52865f20601f830160051c810191888410612473575b601f0160051c01905b8181106124685750611f09565b5f815560010161245b565b9091508190612452565b015190508b80611e3f565b90601085015f52885f20915f5b8a601f19861682106124e357505092601494926001926101c09583601f198116106124cb575b505050811b016010850155611e56565b01515f1960f88460031b161c191690558b80806124bb565b6001849582939585015181550194019201612495565b601085015f52885f20601f840160051c8101918a8510612535575b601f0160051c01905b81811061252a5750611e20565b5f815560010161251d565b9091508190612514565b015190508b80611de0565b90600f86015f52895f20915f5b8b601f19861682106125a257505091839160019360e09695601f1981161061258a575b505050811b01600f850155611df7565b01515f1960f88460031b161c191690558b808061257a565b6001849582939585015181550194019201612557565b600f86015f52895f20601f840160051c81018b85106125f3575b601f830160051c820181106125e8575050611dc5565b5f81556001016125d2565b50806125d2565b015190508a80611d82565b9250600e86015f52895f20905f935b8b601f198516861061265957506001945083601f19811610612641575b505050811b01600e840155611d99565b01515f1960f88460031b161c191690558a8080612631565b8282015184559485019460019093019290910190612614565b909150600e86015f52895f20601f840160051c81018b85106126b9575b90849392915b601f830160051c820181106126ab575050611d6d565b5f8155859450600101612695565b508061268f565b015190508a80611d28565b9250600d86015f52895f20905f935b8b601f198516861061271f57506001945083601f19811610612707575b505050811b01600d840155611d3f565b01515f1960f88460031b161c191690558a80806126f7565b82820151845594850194600190930192909101906126da565b909150600d86015f52895f20601f840160051c81018b851061277f575b90849392915b601f830160051c82018110612771575050611d13565b5f815585945060010161275b565b5080612755565b015190508a80611cce565b9250600c86015f52895f20905f935b8b601f19851686106127e557506001945083601f198116106127cd575b505050811b01600c840155611ce5565b01515f1960f88460031b161c191690558a80806127bd565b82820151845594850194600190930192909101906127a0565b909150600c86015f52895f20601f840160051c81018b8510612845575b90849392915b601f830160051c82018110612837575050611cb9565b5f8155859450600101612821565b508061281b565b015190508a80611c74565b9250600b86015f52895f20905f935b8b601f19851686106128ab57506001945083601f19811610612893575b505050811b01600b840155611c8b565b01515f1960f88460031b161c191690558a8080612883565b8282015184559485019460019093019290910190612866565b909150600b86015f52895f20601f840160051c81018b851061290b575b90849392915b601f830160051c820181106128fd575050611c5f565b5f81558594506001016128e7565b50806128e1565b015190508a80611c1a565b9250600a86015f52895f20905f935b8b601f198516861061297157506001945083601f19811610612959575b505050811b01600a840155611c31565b01515f1960f88460031b161c191690558a8080612949565b828201518455948501946001909301929091019061292c565b909150600a86015f52895f20601f840160051c81018b85106129d1575b90849392915b601f830160051c820181106129c3575050611c05565b5f81558594506001016129ad565b50806129a7565b015190508a80611bc1565b9250600986015f52895f20905f935b8b601f1985168610612a3757506001945083601f19811610612a1f575b505050811b016009840155611bd8565b01515f1960f88460031b161c191690558a8080612a0f565b82820151845594850194600190930192909101906129f2565b909150600986015f52895f20601f840160051c81018b8510612a97575b90849392915b601f830160051c82018110612a89575050611bac565b5f8155859450600101612a73565b5080612a6d565b015190508980611b64565b9250600885015f52885f20905f935b8a601f1985168610612afd57506001945083601f19811610612ae5575b505050811b016008830155611b7b565b01515f1960f88460031b161c19169055898080612ad5565b8282015184559485019460019093019290910190612ab8565b909150600885015f52885f20601f840160051c81018a8510612b5d575b90849392915b601f830160051c82018110612b4f575050611b4f565b5f8155859450600101612b39565b5080612b33565b015190508980611b09565b9250600785015f52885f20905f935b8a601f1985168610612bc357506001945083601f19811610612bab575b505050811b016007830155611b20565b01515f1960f88460031b161c19169055898080612b9b565b8282015184559485019460019093019290910190612b7e565b909150600785015f52885f20601f840160051c81018a8510612c23575b90849392915b601f830160051c82018110612c15575050611af4565b5f8155859450600101612bff565b5080612bf9565b015190508980611aaf565b9250600685015f52885f20905f935b8a601f1985168610612c8957506001945083601f19811610612c71575b505050811b016006830155611ac6565b01515f1960f88460031b161c19169055898080612c61565b8282015184559485019460019093019290910190612c44565b909150600685015f52885f20601f840160051c81018a8510612ce9575b90849392915b601f830160051c82018110612cdb575050611a9a565b5f8155859450600101612cc5565b5080612cbf565b015190508980611a55565b9250600585015f52885f20905f935b8a601f1985168610612d4f57506001945083601f19811610612d37575b505050811b016005830155611a6c565b01515f1960f88460031b161c19169055898080612d27565b8282015184559485019460019093019290910190612d0a565b909150600585015f52885f20601f840160051c81018a8510612daf575b90849392915b601f830160051c82018110612da1575050611a40565b5f8155859450600101612d8b565b5080612d85565b0151905089806119fb565b9250600485015f52885f20905f935b8a601f1985168610612e1557506001945083601f19811610612dfd575b505050811b016004830155611a12565b01515f1960f88460031b161c19169055898080612ded565b8282015184559485019460019093019290910190612dd0565b909150600485015f52885f20601f840160051c81018a8510612e75575b90849392915b601f830160051c82018110612e675750506119e6565b5f8155859450600101612e51565b5080612e4b565b0151905089806119a1565b9250600385015f52885f20905f935b8a601f1985168610612edb57506001945083601f19811610612ec3575b505050811b0160038301556119b8565b01515f1960f88460031b161c19169055898080612eb3565b8282015184559485019460019093019290910190612e96565b909150600385015f52885f20601f840160051c81018a8510612f3b575b90849392915b601f830160051c82018110612f2d57505061198c565b5f8155859450600101612f17565b5080612f11565b015190508980611947565b9250600285015f52885f20905f935b8a601f1985168610612fa157506001945083601f19811610612f89575b505050811b01600283015561195e565b01515f1960f88460031b161c19169055898080612f79565b8282015184559485019460019093019290910190612f5c565b909150600285015f52885f20601f840160051c81018a8510613001575b90849392915b601f830160051c82018110612ff3575050611932565b5f8155859450600101612fdd565b5080612fd7565b60405162461bcd60e51b815260206004820152601660248201527550726f66696c6520616c72656164792065786973747360501b6044820152606490fd5b346102785760203660031901126102785761305f6151cc565b506004355f908152600560205260409020546001600160a01b03168015613186575f5260016020526104c260405f2060146040519161309d83614f1e565b80546001600160a01b03168352600181015460208401526130c060028201614f5b565b60408401526130d160038201614f5b565b60608401526130e260048201614f5b565b60808401526130f360058201614f5b565b60a084015261310460068201614f5b565b60c084015261311560078201614f5b565b60e084015261312660088201614f5b565b610100840152613138600982016150d2565b61012084015260ff6011820154818116151561014086015260081c161515610160840152601281015461018084015260138101546101a084015201546101c082015260405191829182614d9f565b60405162461bcd60e51b815260206004820152601060248201526f125b9d985b1a59081099585d1cc8125160821b6044820152606490fd5b34610278575f366003190112610278576040518060206008549283815201809260085f527ff3f7a9fe364faab93b216da50a3214154f22a0a2b415b23a84c8169e8b636ee3905f5b818110613267575050508161321c910382614f3a565b604051918291602083019060208452518091526040830191905f5b818110613245575050500390f35b82516001600160a01b0316845285945060209384019390920191600101613237565b82546001600160a01b0316845260209093019260019283019201613206565b34610278575f366003190112610278575f546040516001600160a01b039091168152602090f35b6132b63661505c565b9290335f5260016020526132d760018060a01b0360405f20541615156152db565b335f52600160205260ff601160405f20015460081c166137ff576132ff600b54341015615320565b6133225f8080803460018060a01b03600c54165af161331c615363565b50615392565b335f908152600160208181526040808420601101805461ffff19166101011790556009909152909120805460ff19169091179055629e340042908101939084106114e157335f52600a6020528360405f20555f5f600854905b8181106137ca575b5050156137bc575b335f52600160205242601460405f200155604051926133a984614f02565b835260208301908152604083015f8152606084015f815260808501915f835260a08601935f855260c08701951515865260e08701988952335f52600260205260405f2096518051906001600160401b03821161063957819061340b8a54614eca565b601f811161376c575b50602090601f8311600114613709575f926136fe575b50508160011b915f199060031b1c19161787555b51805160018801916001600160401b0382116106395761345e8354614eca565b601f81116136b9575b50602090601f831160011461364b5791806134cf9896949260079b9a9896945f926136405750508160011b915f199060031b1c1916179055516002870155516003860155516004850155516005840155511515600683019060ff801983541691151516179055565b0191519182516001600160401b038111610639576134ed8254614eca565b601f81116135fb575b506020601f821160011461359a57819293945f9261358f575b50508160011b915f199060031b1c19161790555b6040513481527f86db44481166577c08583ccbb1a53f79993219fe821337ea232ee5f465cd9de460203392a26040519081527fea0478052039db977b376a5ddfb6ffd845a28c7f1394fcb16cb072f284bbab0760203392a2335f5160206155865f395f51905f525f80a2005b01519050848061350f565b601f19821690835f52805f20915f5b8181106135e3575095836001959697106135cb575b505050811b019055613523565b01515f1960f88460031b161c191690558480806135be565b9192602060018192868b0151815501940192016135a9565b825f5260205f20601f830160051c81019160208410613636575b601f0160051c01905b81811061362b57506134f6565b5f815560010161361e565b9091508190613615565b015190508d806120b1565b90601f19831691845f52815f20925f5b8181106136a1575092600192859260079d9c9a98966134cf9c9a98961061368957505050811b0190556120c5565b01515f1960f88460031b161c191690558d808061228d565b9293602060018192878601518155019501930161365b565b835f5260205f20601f840160051c810191602085106136f4575b601f0160051c01905b8181106136e95750613467565b5f81556001016136dc565b90915081906136d3565b015190508b8061342a565b5f8b81528281209350601f198516905b818110613754575090846001959493921061373c575b505050811b01875561343e565b01515f1960f88460031b161c191690558b808061372f565b92936020600181928786015181550195019301613719565b909150895f5260205f20601f840160051c810191602085106137b2575b90601f859493920160051c01905b8181106137a45750613414565b5f8155849350600101613797565b9091508190613789565b6137c5336153eb565b61338b565b6137d381615164565b905460039190911b1c6001600160a01b031633146137f35760010161337b565b50505060018680613383565b60405162461bcd60e51b8152602060048201526011602482015270105b1c9958591e48185b88185c9d1a5cdd607a1b6044820152606490fd5b34610278576020366003190112610278576004356001600160401b03811161027857613868903690600401615016565b335f9081526001602052604090205461388b906001600160a01b031615156152db565b6138996003825110156154a1565b6138a7601e825111156154e2565b6040516138d982519160208401928084835e60039082019081528190036020019020546001600160a01b031615615522565b335f5260016020526138f0600260405f2001614f5b565b90604051602081845180838701835e810160038152030190206bffffffffffffffffffffffff60a01b8154169055335f526001602052600260405f200183516001600160401b038111610639576139478254614eca565b601f8111613ba4575b50806020601f8211600114613b43575f91613b38575b508160011b915f199060031b1c19161790555b335f52600160205242601460405f2001556020604051809285518091835e60039082019081520301902080546001600160a01b031916339081179091555f90815260046020526040902082516001600160401b038111610639576139dd8254614eca565b601f8111613af3575b506020601f8211600114613a6d5791817f10022a11494e4dcaccdda542dc8a420f8a1c3397f37d5bd035a805e79e1a32ee9492613a4e945f91613a62575b508160011b915f199060031b1c19161790555b613a5d604051928392604084526040840190614cce565b82810360208401523395614cce565b0390a2005b905086015187613a24565b601f19821690835f52805f20915f5b818110613adb575092613a4e9492600192827f10022a11494e4dcaccdda542dc8a420f8a1c3397f37d5bd035a805e79e1a32ee989610613ac3575b5050811b019055613a37565b8801515f1960f88460031b161c191690558780613ab7565b9192602060018192868b015181550194019201613a7c565b825f5260205f20601f830160051c81019160208410613b2e575b601f0160051c01905b818110613b2357506139e6565b5f8155600101613b16565b9091508190613b0d565b905085015186613966565b5f8481528181209250601f198416905b818110613b8c57509083600194939210613b74575b5050811b019055613979565b8701515f1960f88460031b161c191690558680613b68565b9192602060018192868c015181550194019201613b53565b825f5260205f20601f830160051c81019160208410613bdf575b601f0160051c01905b818110613bd45750613950565b5f8155600101613bc7565b9091508190613bbe565b34610278575f36600319011261027857602060405160788152f35b3461027857602036600319011261027857600435613c2061555f565b8015613c5f5760407fc9546f70351c088b932f3a7359033c2a679244752cb4559fbb00e0dfe06e8ced91600b549080600b5582519182526020820152a1005b60405162461bcd60e51b815260206004820152601a60248201527f466565206d7573742062652067726561746572207468616e20300000000000006044820152606490fd5b34610278575f36600319011261027857613cbc61555f565b5f80546001600160a01b0319811682556001600160a01b03167f8be0079c531659141344cd1fd0a4f28419497f9722a3daafe3b4186f6b6457e08280a3005b34610278576020366003190112610278576001600160a01b03613d1c614cb8565b165f52600a602052602060405f2054604051908152f35b34610278576020366003190112610278576001600160a01b03613d54614cb8565b165f81815260016020526040902054613d77906001600160a01b031615156152db565b805f52600160205260ff601160405f2001541680613dfc575b613d9657005b805f52600a60205260405f20544211613dab57005b805f526001602052601160405f200160ff198154169055805f52600960205260405f2060ff1981541690557f889745ab57b8514dfa66ce0a3be109fecda440bf292b323ffde0df79e350f1d65f80a2005b50805f52600a60205260405f20541515613d90565b34610278575f36600319011261027857600c546040516001600160a01b039091168152602090f35b346102785760c0366003190112610278576004356001600160401b03811161027857613e69903690600401615016565b6024356001600160401b03811161027857613e88903690600401615016565b6044356001600160401b03811161027857613ea7903690600401615016565b916064356001600160401b03811161027857613ec7903690600401615016565b6084356001600160401b03811161027857613ee6903690600401615016565b9360a4356001600160401b03811161027857613f06903690600401615016565b93335f526001602052613f2660018060a01b0360405f20541615156152db565b335f52600160205260405f20938051806144e9575b50508051806143d2575b50508051806142bb575b50508051806141a4575b5050825180614095575b50908092505180613f8a575b50601442910155335f5160206155865f395f51905f525f80a2005b60088201906001600160401b03811161063957613fa78254614eca565b601f8111614050575b506020601f8211600114613fef57819293945f92613fe4575b50508160011b915f199060031b1c19161790555b8082613f6f565b015190508480613fc9565b601f19821690835f52805f20915f5b81811061403857509583600195969710614020575b505050811b019055613fdd565b01515f1960f88460031b161c19169055848080614013565b9192602060018192868b015181550194019201613ffe565b825f5260205f20601f830160051c8101916020841061408b575b601f0160051c01905b8181106140805750613fb0565b5f8155600101614073565b909150819061406a565b60078201906001600160401b038111610639576140b28254614eca565b601f811161415f575b50602094601f82116001146140fe579481929394955f926140f3575b50508160011b915f199060031b1c19161790555b819083613f63565b0151905085806140d7565b601f19821695835f52805f20915f5b8881106141475750836001959697981061412f575b505050811b0190556140eb565b01515f1960f88460031b161c19169055858080614122565b9192602060018192868501518155019401920161410d565b825f5260205f20601f830160051c8101916020841061419a575b601f0160051c01905b81811061418f57506140bb565b5f8155600101614182565b9091508190614179565b60068301916001600160401b0382116106395781906141c38454614eca565b601f811161426b575b50602090601f8311600114614208575f926141fd575b50508160011b915f199060031b1c19161790555b8380613f59565b0151905086806141e2565b5f8581528281209350601f198516905b818110614253575090846001959493921061423b575b505050811b0190556141f6565b01515f1960f88460031b161c1916905586808061422e565b92936020600181928786015181550195019301614218565b909150835f5260205f20601f840160051c810191602085106142b1575b90601f859493920160051c01905b8181106142a357506141cc565b5f8155849350600101614296565b9091508190614288565b60058401916001600160401b0382116106395781906142da8454614eca565b601f8111614382575b50602090601f831160011461431f575f92614314575b50508160011b915f199060031b1c19161790555b8480613f4f565b0151905087806142f9565b5f8581528281209350601f198516905b81811061436a5750908460019594939210614352575b505050811b01905561430d565b01515f1960f88460031b161c19169055878080614345565b9293602060018192878601518155019501930161432f565b909150835f5260205f20601f840160051c810191602085106143c8575b90601f859493920160051c01905b8181106143ba57506142e3565b5f81558493506001016143ad565b909150819061439f565b60048501916001600160401b0382116106395781906143f18454614eca565b601f8111614499575b50602090601f8311600114614436575f9261442b575b50508160011b915f199060031b1c19161790555b8580613f45565b015190508880614410565b5f8581528281209350601f198516905b8181106144815750908460019594939210614469575b505050811b019055614424565b01515f1960f88460031b161c1916905588808061445c565b92936020600181928786015181550195019301614446565b909150835f5260205f20601f840160051c810191602085106144df575b90601f859493920160051c01905b8181106144d157506143fa565b5f81558493506001016144c4565b90915081906144b6565b60038601916001600160401b0382116106395781906145088454614eca565b601f81116145b0575b50602090601f831160011461454d575f92614542575b50508160011b915f199060031b1c19161790555b8680613f3b565b015190508980614527565b5f8581528281209350601f198516905b8181106145985750908460019594939210614580575b505050811b01905561453b565b01515f1960f88460031b161c19169055898080614573565b9293602060018192878601518155019501930161455d565b909150835f5260205f20601f840160051c810191602085106145f6575b90601f859493920160051c01905b8181106145e85750614511565b5f81558493506001016145db565b90915081906145cd565b3461027857602036600319011261027857602061462361461e614cb8565b615455565b6040519015158152f35b3461027857602036600319011261027857614646614cb8565b61464e61555f565b6001600160a01b038181165f81815260016020526040902054909291614676911615156152db565b815f52600160205261469460ff601160405f20015460081c16615190565b815f52600160205260ff601160405f2001541661477257815f526001602052601160405f2001600160ff19825416179055815f52600960205260405f20600160ff19825416179055815f52600a6020525f60408120555f5f600854905b81811061473d575b50501561472e575b507fea0478052039db977b376a5ddfb6ffd845a28c7f1394fcb16cb072f284bbab0760206040515f8152a2005b614737906153eb565b81614701565b8461474782615164565b905460039190911b1c6001600160a01b031614614766576001016146f1565b505050600183806146f9565b60405162461bcd60e51b815260206004820152601060248201526f105b1c9958591e481d995c9a599a595960821b6044820152606490fd5b34610278575f366003190112610278576147c261555f565b478015614823575f8080809360018060a01b038254165af16147e2615363565b50156147ea57005b60405162461bcd60e51b815260206004820152601160248201527015da5d1a191c985dd85b0819985a5b1959607a1b6044820152606490fd5b60405162461bcd60e51b81526020600482015260146024820152734e6f2066756e647320746f20776974686472617760601b6044820152606490fd5b5f36600319011261027857335f9081526001602052604090205461488d906001600160a01b031615156152db565b335f5260016020526148ab60ff601160405f20015460081c16615190565b6148b9600b54341015615320565b6148d65f8080803460018060a01b03600c54165af161331c615363565b335f52600a60205260405f20544281105f146149915750629e340042018042116114e1575b335f52600a6020528060405f2055335f526001602052601160405f2001600160ff19825416179055335f52600960205260405f20600160ff19825416179055335f52600160205242601460405f2001556040519081523460208201527fd447959bc1df7f7d5bcd9dc75903a1db0ffa1df49036c109e1dd5f0fbbdd3c8760403392a2335f5160206155865f395f51905f525f80a2005b629e34008101809111156148fb57634e487b7160e01b5f52601160045260245ffd5b34610278576020366003190112610278576001600160a01b036149d4614cb8565b165f526002602052614a4060405f206104c26149ef82614f5b565b916149fc60018201614f5b565b60028201549160038101546004820154600583015491614a4e614a29600760ff6006880154169601614f5b565b956040519a8b9a6101008c526101008c0190614cce565b908a820360208c0152614cce565b9560408901526060880152608087015260a0860152151560c085015283820360e0850152614cce565b34610278576020366003190112610278576020614a9a614a95614cb8565b61527e565b604051908152f35b3461027857602036600319011261027857614abb614cb8565b614ac36151cc565b5060018060a01b03165f5260016020526104c260405f2060146040519161309d83614f1e565b3461027857602036600319011261027857614b02614cb8565b606060e0604051614b1281614f02565b8281528260208201525f60408201525f838201525f60808201525f60a08201525f60c0820152015260018060a01b0316805f526001602052614b6060ff601160405f20015460081c16615190565b5f526002602052614c1460405f206104c260405191614b7e83614f02565b614b8781614f5b565b8352614b9560018201614f5b565b602084019081526002820154916040850192835260038101546060860190815260048201546080870190815260058301549160a08801928352614c27614bee600760ff6006880154169660c08c01971515885201614f5b565b9560e08a019687526040519a8b9a60208c525161010060208d01526101208c0190614cce565b90518a8203601f190160408c0152614cce565b955160608901525160808801525160a08701525160c086015251151560e085015251838203601f1901610100850152614cce565b34610278576020366003190112610278576001600160a01b03614c7c614cb8565b165f526001602052602060018060a01b0360405f2054161515604051908152f35b34610278575f3660031901126102785780629e340060209252f35b600435906001600160a01b038216820361027857565b805180835260209291819084018484015e5f828201840152601f01601f1916010190565b614d9c9160e0614d8b614d79614d67614d55614d43614d31614d1f89516101008a526101008a0190614cce565b60208a015189820360208b0152614cce565b604089015188820360408a0152614cce565b60608801518782036060890152614cce565b60808701518682036080880152614cce565b60a086015185820360a0870152614cce565b60c085015184820360c0860152614cce565b9201519060e0818403910152614cce565b90565b6020815260018060a01b038251166020820152602082015160408201526101e06101c0614e8f614e77614e5f614e48614e32614e1c614e06614df060408c01518a60608d01526102008c0190614cce565b60608c01518b8203601f190160808d0152614cce565b60808b01518a8203601f190160a08c0152614cce565b60a08a0151898203601f190160c08b0152614cce565b60c0890151888203601f190160e08a0152614cce565b60e0880151878203601f1901610100890152614cce565b610100870151868203601f1901610120880152614cce565b610120860151858203601f1901610140870152614cf2565b93610140810151151561016085015261016081015115156101808501526101808101516101a08501526101a081015182850152015191015290565b90600182811c92168015614ef8575b6020831014614ee457565b634e487b7160e01b5f52602260045260245ffd5b91607f1691614ed9565b61010081019081106001600160401b0382111761063957604052565b6101e081019081106001600160401b0382111761063957604052565b90601f801991011681019081106001600160401b0382111761063957604052565b9060405191825f825492614f6e84614eca565b8084529360018116908115614fd95750600114614f95575b50614f9392500383614f3a565b565b90505f9291925260205f20905f915b818310614fbd575050906020614f93928201015f614f86565b6020919350806001915483858901015201910190918492614fa4565b905060209250614f9394915060ff191682840152151560051b8201015f614f86565b6001600160401b03811161063957601f01601f191660200190565b81601f820112156102785780359061502d82614ffb565b9261503b6040519485614f3a565b8284526020838301011161027857815f926020809301838601378301015290565b906080600319830112610278576004356001600160401b038111610278578261508791600401615016565b916024356001600160401b03811161027857816150a691600401615016565b9160443580151581036102785791606435906001600160401b03821161027857614d9c91600401615016565b906040516150df81614f02565b60e061515f600783956150f181614f5b565b85526150ff60018201614f5b565b602086015261511060028201614f5b565b604086015261512160038201614f5b565b606086015261513260048201614f5b565b608086015261514360058201614f5b565b60a086015261515460068201614f5b565b60c086015201614f5b565b910152565b60085481101561517c5760085f5260205f2001905f90565b634e487b7160e01b5f52603260045260245ffd5b1561519757565b60405162461bcd60e51b815260206004820152600d60248201526c139bdd08185b88185c9d1a5cdd609a1b6044820152606490fd5b604051906151d982614f1e565b5f6101c0838281528260208201526060604082015260608082015260606080820152606060a0820152606060c0820152606060e0820152606061010082015260405161522481614f02565b60608152606060208201526060604082015260608082015260606080820152606060a0820152606060c0820152606060e0820152610120820152826101408201528261016082015282610180820152826101a08201520152565b6001600160a01b03165f818152600a60205260409020541580156152c5575b6152c0575f52600a60205260405f20544281039081116114e15762015180900490565b505f90565b50805f52600a60205260405f205442101561529d565b156152e257565b60405162461bcd60e51b8152602060048201526016602482015275141c9bd99a5b1948191bd95cc81b9bdd08195e1a5cdd60521b6044820152606490fd5b1561532757565b60405162461bcd60e51b8152602060048201526014602482015273125b9cdd59999a58da595b9d081c185e5b595b9d60621b6044820152606490fd5b3d1561538d573d9061537482614ffb565b916153826040519384614f3a565b82523d5f602084013e565b606090565b1561539957565b60405162461bcd60e51b815260206004820152601760248201527f5061796d656e74207472616e73666572206661696c65640000000000000000006044820152606490fd5b919082018092116114e157565b60085468010000000000000000811015610639576001810160085560085481101561517c5760085f527ff3f7a9fe364faab93b216da50a3214154f22a0a2b415b23a84c8169e8b636ee30180546001600160a01b0319166001600160a01b03909216919091179055565b6001600160a01b03165f8181526001602052604090206011015460ff16156152c057805f52600a60205260405f20541561549b575f52600a60205260405f205442111590565b50600190565b156154a857565b60405162461bcd60e51b8152602060048201526012602482015271155cd95c9b985b59481d1bdbc81cda1bdc9d60721b6044820152606490fd5b156154e957565b60405162461bcd60e51b8152602060048201526011602482015270557365726e616d6520746f6f206c6f6e6760781b6044820152606490fd5b1561552957565b60405162461bcd60e51b815260206004820152600e60248201526d2ab9b2b93730b6b2903a30b5b2b760911b6044820152606490fd5b5f546001600160a01b0316330361557257565b63118cdaa760e01b5f523360045260245ffdfebe4ec58a792f909e102ee3d745d0c3b34a4d437a54d903c4db098d31c556422fa2646970667358221220227d3b920d1847e6384d3c48d8f202cd8f693f9d53acd6a2e269b64f969cd20f64736f6c634300081c0033",
  "linkReferences": {},
  "deployedLinkReferences": {}
}