{
  "_format": "hh-sol-artifact-1",
  "contractName": "UserOperationLib",
  "sourceName": "@account-abstraction/contracts/core/UserOperationLib.sol",
  "abi": [
    {
      "inputs": [],
      "name": "PAYMASTER_DATA_OFFSET",
      "outputs": [
        {
          "internalType": "uint256",
          "name": "",
          "type": "uint256"
        }
      ],
      "stateMutability": "view",
      "type": "function"
    },
    {
      "inputs": [],
      "name": "PAYMASTER_POSTOP_GAS_OFFSET",
      "outputs": [
        {
          "internalType": "uint256",
          "name": "",
          "type": "uint256"
        }
      ],
      "stateMutability": "view",
      "type": "function"
    },
    {
      "inputs": [],
      "name": "PAYMASTER_VALIDATION_GAS_OFFSET",
      "outputs": [
        {
          "internalType": "uint256",
          "name": "",
          "type": "uint256"
        }
      ],
      "stateMutability": "view",
      "type": "function"
    }
  ],
  "bytecode": "0x6080806040523460175760b09081601c823930815050f35b5f80fdfe60808060405260043610156011575f80fd5b5f3560e01c90816325093e1b14606757508063b29a8ff41460525763ede31502146039575f80fd5b5f366003190112604e57602060405160348152f35b5f80fd5b5f366003190112604e57602060405160148152f35b5f366003190112604e5780602460209252f3fea264697066735822122038fc0c375c1c0fec742254aef80bb088438aa43d7c7027c3a5f43c5f44b0a29a64736f6c634300081c0033",
  "linkReferences": {},
  "deployedLinkReferences": {}
}