{
  "_format": "hh-sol-artifact-1",
  "contractName": "PlaylistManager",
  "sourceName": "contracts/PlaylistManager.sol",
  "abi": [
    {
      "inputs": [],
      "stateMutability": "nonpayable",
      "type": "constructor"
    },
    {
      "inputs": [
        {
          "internalType": "address",
          "name": "owner",
          "type": "address"
        }
      ],
      "name": "OwnableInvalidOwner",
      "type": "error"
    },
    {
      "inputs": [
        {
          "internalType": "address",
          "name": "account",
          "type": "address"
        }
      ],
      "name": "OwnableUnauthorizedAccount",
      "type": "error"
    },
    {
      "anonymous": false,
      "inputs": [
        {
          "indexed": true,
          "internalType": "uint256",
          "name": "playlistId",
          "type": "uint256"
        },
        {
          "indexed": true,
          "internalType": "address",
          "name": "collaborator",
          "type": "address"
        }
      ],
      "name": "CollaboratorAdded",
      "type": "event"
    },
    {
      "anonymous": false,
      "inputs": [
        {
          "indexed": true,
          "internalType": "uint256",
          "name": "playlistId",
          "type": "uint256"
        },
        {
          "indexed": true,
          "internalType": "address",
          "name": "collaborator",
          "type": "address"
        }
      ],
      "name": "CollaboratorRemoved",
      "type": "event"
    },
    {
      "anonymous": false,
      "inputs": [
        {
          "indexed": true,
          "internalType": "address",
          "name": "previousOwner",
          "type": "address"
        },
        {
          "indexed": true,
          "internalType": "address",
          "name": "newOwner",
          "type": "address"
        }
      ],
      "name": "OwnershipTransferred",
      "type": "event"
    },
    {
      "anonymous": false,
      "inputs": [
        {
          "indexed": true,
          "internalType": "uint256",
          "name": "playlistId",
          "type": "uint256"
        },
        {
          "indexed": true,
          "internalType": "address",
          "name": "creator",
          "type": "address"
        },
        {
          "indexed": false,
          "internalType": "string",
          "name": "name",
          "type": "string"
        }
      ],
      "name": "PlaylistCreated",
      "type": "event"
    },
    {
      "anonymous": false,
      "inputs": [
        {
          "indexed": true,
          "internalType": "uint256",
          "name": "playlistId",
          "type": "uint256"
        },
        {
          "indexed": true,
          "internalType": "address",
          "name": "user",
          "type": "address"
        }
      ],
      "name": "PlaylistLiked",
      "type": "event"
    },
    {
      "anonymous": false,
      "inputs": [
        {
          "indexed": true,
          "internalType": "uint256",
          "name": "playlistId",
          "type": "uint256"
        },
        {
          "indexed": true,
          "internalType": "address",
          "name": "user",
          "type": "address"
        }
      ],
      "name": "PlaylistUnliked",
      "type": "event"
    },
    {
      "anonymous": false,
      "inputs": [
        {
          "indexed": true,
          "internalType": "uint256",
          "name": "playlistId",
          "type": "uint256"
        }
      ],
      "name": "PlaylistUpdated",
      "type": "event"
    },
    {
      "anonymous": false,
      "inputs": [
        {
          "indexed": true,
          "internalType": "uint256",
          "name": "playlistId",
          "type": "uint256"
        },
        {
          "indexed": true,
          "internalType": "uint256",
          "name": "songId",
          "type": "uint256"
        }
      ],
      "name": "SongAddedToPlaylist",
      "type": "event"
    },
    {
      "anonymous": false,
      "inputs": [
        {
          "indexed": true,
          "internalType": "uint256",
          "name": "playlistId",
          "type": "uint256"
        },
        {
          "indexed": true,
          "internalType": "uint256",
          "name": "songId",
          "type": "uint256"
        }
      ],
      "name": "SongRemovedFromPlaylist",
      "type": "event"
    },
    {
      "inputs": [
        {
          "internalType": "uint256",
          "name": "playlistId",
          "type": "uint256"
        },
        {
          "internalType": "address",
          "name": "collaborator",
          "type": "address"
        }
      ],
      "name": "addCollaborator",
      "outputs": [],
      "stateMutability": "nonpayable",
      "type": "function"
    },
    {
      "inputs": [
        {
          "internalType": "uint256",
          "name": "playlistId",
          "type": "uint256"
        },
        {
          "internalType": "uint256",
          "name": "songId",
          "type": "uint256"
        }
      ],
      "name": "addSongToPlaylist",
      "outputs": [],
      "stateMutability": "nonpayable",
      "type": "function"
    },
    {
      "inputs": [
        {
          "internalType": "string",
          "name": "name",
          "type": "string"
        },
        {
          "internalType": "string",
          "name": "description",
          "type": "string"
        },
        {
          "internalType": "string",
          "name": "coverHash",
          "type": "string"
        },
        {
          "internalType": "bool",
          "name": "isPublic",
          "type": "bool"
        }
      ],
      "name": "createPlaylist",
      "outputs": [
        {
          "internalType": "uint256",
          "name": "",
          "type": "uint256"
        }
      ],
      "stateMutability": "nonpayable",
      "type": "function"
    },
    {
      "inputs": [
        {
          "internalType": "uint256",
          "name": "playlistId",
          "type": "uint256"
        }
      ],
      "name": "deletePlaylist",
      "outputs": [],
      "stateMutability": "nonpayable",
      "type": "function"
    },
    {
      "inputs": [
        {
          "internalType": "uint256",
          "name": "playlistId",
          "type": "uint256"
        }
      ],
      "name": "getPlaylist",
      "outputs": [
        {
          "components": [
            {
              "internalType": "uint256",
              "name": "id",
              "type": "uint256"
            },
            {
              "internalType": "address",
              "name": "creator",
              "type": "address"
            },
            {
              "internalType": "string",
              "name": "name",
              "type": "string"
            },
            {
              "internalType": "string",
              "name": "description",
              "type": "string"
            },
            {
              "internalType": "string",
              "name": "coverHash",
              "type": "string"
            },
            {
              "internalType": "uint256[]",
              "name": "songIds",
              "type": "uint256[]"
            },
            {
              "internalType": "address[]",
              "name": "collaborators",
              "type": "address[]"
            },
            {
              "internalType": "bool",
              "name": "isPublic",
              "type": "bool"
            },
            {
              "internalType": "bool",
              "name": "isDeleted",
              "type": "bool"
            },
            {
              "internalType": "uint256",
              "name": "createdAt",
              "type": "uint256"
            },
            {
              "internalType": "uint256",
              "name": "updatedAt",
              "type": "uint256"
            },
            {
              "internalType": "uint256",
              "name": "playCount",
              "type": "uint256"
            },
            {
              "internalType": "uint256",
              "name": "likeCount",
              "type": "uint256"
            }
          ],
          "internalType": "struct PlaylistManager.Playlist",
          "name": "",
          "type": "tuple"
        }
      ],
      "stateMutability": "view",
      "type": "function"
    },
    {
      "inputs": [
        {
          "internalType": "uint256",
          "name": "playlistId",
          "type": "uint256"
        }
      ],
      "name": "getPlaylistCollaborators",
      "outputs": [
        {
          "internalType": "address[]",
          "name": "",
          "type": "address[]"
        }
      ],
      "stateMutability": "view",
      "type": "function"
    },
    {
      "inputs": [
        {
          "internalType": "uint256",
          "name": "offset",
          "type": "uint256"
        },
        {
          "internalType": "uint256",
          "name": "limit",
          "type": "uint256"
        }
      ],
      "name": "getPublicPlaylists",
      "outputs": [
        {
          "internalType": "uint256[]",
          "name": "",
          "type": "uint256[]"
        }
      ],
      "stateMutability": "view",
      "type": "function"
    },
    {
      "inputs": [
        {
          "internalType": "address",
          "name": "user",
          "type": "address"
        }
      ],
      "name": "getUserPlaylists",
      "outputs": [
        {
          "internalType": "uint256[]",
          "name": "",
          "type": "uint256[]"
        }
      ],
      "stateMutability": "view",
      "type": "function"
    },
    {
      "inputs": [
        {
          "internalType": "uint256",
          "name": "playlistId",
          "type": "uint256"
        },
        {
          "internalType": "address",
          "name": "user",
          "type": "address"
        }
      ],
      "name": "hasLikedPlaylist",
      "outputs": [
        {
          "internalType": "bool",
          "name": "",
          "type": "bool"
        }
      ],
      "stateMutability": "view",
      "type": "function"
    },
    {
      "inputs": [
        {
          "internalType": "uint256",
          "name": "playlistId",
          "type": "uint256"
        },
        {
          "internalType": "address",
          "name": "user",
          "type": "address"
        }
      ],
      "name": "isCollaborator",
      "outputs": [
        {
          "internalType": "bool",
          "name": "",
          "type": "bool"
        }
      ],
      "stateMutability": "view",
      "type": "function"
    },
    {
      "inputs": [
        {
          "internalType": "uint256",
          "name": "playlistId",
          "type": "uint256"
        }
      ],
      "name": "likePlaylist",
      "outputs": [],
      "stateMutability": "nonpayable",
      "type": "function"
    },
    {
      "inputs": [],
      "name": "owner",
      "outputs": [
        {
          "internalType": "address",
          "name": "",
          "type": "address"
        }
      ],
      "stateMutability": "view",
      "type": "function"
    },
    {
      "inputs": [
        {
          "internalType": "uint256",
          "name": "",
          "type": "uint256"
        },
        {
          "internalType": "address",
          "name": "",
          "type": "address"
        }
      ],
      "name": "playlistCollaborators",
      "outputs": [
        {
          "internalType": "bool",
          "name": "",
          "type": "bool"
        }
      ],
      "stateMutability": "view",
      "type": "function"
    },
    {
      "inputs": [
        {
          "internalType": "uint256",
          "name": "",
          "type": "uint256"
        },
        {
          "internalType": "address",
          "name": "",
          "type": "address"
        }
      ],
      "name": "playlistLikes",
      "outputs": [
        {
          "internalType": "bool",
          "name": "",
          "type": "bool"
        }
      ],
      "stateMutability": "view",
      "type": "function"
    },
    {
      "inputs": [
        {
          "internalType": "uint256",
          "name": "",
          "type": "uint256"
        }
      ],
      "name": "playlists",
      "outputs": [
        {
          "internalType": "uint256",
          "name": "id",
          "type": "uint256"
        },
        {
          "internalType": "address",
          "name": "creator",
          "type": "address"
        },
        {
          "internalType": "string",
          "name": "name",
          "type": "string"
        },
        {
          "internalType": "string",
          "name": "description",
          "type": "string"
        },
        {
          "internalType": "string",
          "name": "coverHash",
          "type": "string"
        },
        {
          "internalType": "bool",
          "name": "isPublic",
          "type": "bool"
        },
        {
          "internalType": "bool",
          "name": "isDeleted",
          "type": "bool"
        },
        {
          "internalType": "uint256",
          "name": "createdAt",
          "type": "uint256"
        },
        {
          "internalType": "uint256",
          "name": "updatedAt",
          "type": "uint256"
        },
        {
          "internalType": "uint256",
          "name": "playCount",
          "type": "uint256"
        },
        {
          "internalType": "uint256",
          "name": "likeCount",
          "type": "uint256"
        }
      ],
      "stateMutability": "view",
      "type": "function"
    },
    {
      "inputs": [
        {
          "internalType": "uint256",
          "name": "playlistId",
          "type": "uint256"
        }
      ],
      "name": "recordPlaylistPlay",
      "outputs": [],
      "stateMutability": "nonpayable",
      "type": "function"
    },
    {
      "inputs": [
        {
          "internalType": "uint256",
          "name": "playlistId",
          "type": "uint256"
        },
        {
          "internalType": "address",
          "name": "collaborator",
          "type": "address"
        }
      ],
      "name": "removeCollaborator",
      "outputs": [],
      "stateMutability": "nonpayable",
      "type": "function"
    },
    {
      "inputs": [
        {
          "internalType": "uint256",
          "name": "playlistId",
          "type": "uint256"
        },
        {
          "internalType": "uint256",
          "name": "songId",
          "type": "uint256"
        }
      ],
      "name": "removeSongFromPlaylist",
      "outputs": [],
      "stateMutability": "nonpayable",
      "type": "function"
    },
    {
      "inputs": [],
      "name": "renounceOwnership",
      "outputs": [],
      "stateMutability": "nonpayable",
      "type": "function"
    },
    {
      "inputs": [
        {
          "internalType": "uint256",
          "name": "playlistId",
          "type": "uint256"
        },
        {
          "internalType": "uint256[]",
          "name": "newOrder",
          "type": "uint256[]"
        }
      ],
      "name": "reorderPlaylist",
      "outputs": [],
      "stateMutability": "nonpayable",
      "type": "function"
    },
    {
      "inputs": [
        {
          "internalType": "address",
          "name": "newOwner",
          "type": "address"
        }
      ],
      "name": "transferOwnership",
      "outputs": [],
      "stateMutability": "nonpayable",
      "type": "function"
    },
    {
      "inputs": [
        {
          "internalType": "uint256",
          "name": "playlistId",
          "type": "uint256"
        }
      ],
      "name": "unlikePlaylist",
      "outputs": [],
      "stateMutability": "nonpayable",
      "type": "function"
    },
    {
      "inputs": [
        {
          "internalType": "uint256",
          "name": "playlistId",
          "type": "uint256"
        },
        {
          "internalType": "string",
          "name": "name",
          "type": "string"
        },
        {
          "internalType": "string",
          "name": "description",
          "type": "string"
        },
        {
          "internalType": "string",
          "name": "coverHash",
          "type": "string"
        },
        {
          "internalType": "bool",
          "name": "isPublic",
          "type": "bool"
        }
      ],
      "name": "updatePlaylist",
      "outputs": [],
      "stateMutability": "nonpayable",
      "type": "function"
    },
    {
      "inputs": [
        {
          "internalType": "address",
          "name": "",
          "type": "address"
        },
        {
          "internalType": "uint256",
          "name": "",
          "type": "uint256"
        }
      ],
      "name": "userPlaylists",
      "outputs": [
        {
          "internalType": "uint256",
          "name": "",
          "type": "uint256"
        }
      ],
      "stateMutability": "view",
      "type": "function"
    }
  ],
  "bytecode": "0x608080604052346071573315605e575f8054336001600160a01b0319821681178355916001600160a01b03909116907f8be0079c531659141344cd1fd0a4f28419497f9722a3daafe3b4186f6b6457e09080a36124b690816100768239f35b631e4fbdf760e01b5f525f60045260245ffd5b5f80fdfe60a06040526004361015610011575f80fd5b5f3560e01c806327c1446d14611e5b5780632b9169dd14611be55780632cd6af6e14611ab85780633af6ce2314611a7757806352874fc9146119a157806354846f461461195d578063601b349c14611740578063621a018414610f8757806369f5cb17146114e5578063715018a61461148e578063809d91fb146114365780638da5cb5b1461140f578063a233188914610fd0578063a46f0fab14610f87578063ae0e245414610e54578063ae7c47ef146107d2578063b55ceb1c14610782578063ccece383146105e5578063d4bd5a0d146103df578063e5c0560314610121578063ecc6362f146102f0578063f2fde38b1461026b578063fa5c91071461016e5763fd723d1814610121575f80fd5b3461016a57604036600319011261016a5761013a611f00565b6004355f52600560205260405f209060018060a01b03165f52602052602060ff60405f2054166040519015158152f35b5f80fd5b3461016a57602036600319011261016a57600435805f52600260205260405f2061019a815415156120f9565b60018101546001600160a01b0316330361022657600701805460ff8160081c166101ef5761ff0019166101001790557f93aaac06ce494d27a210d6e73b6c5b65a27036cc38644c31d7684b754059f84f5f80a2005b60405162461bcd60e51b815260206004820152600f60248201526e105b1c9958591e4819195b195d1959608a1b6044820152606490fd5b60405162461bcd60e51b815260206004820152601760248201527f4f6e6c792063726561746f722063616e2064656c6574650000000000000000006044820152606490fd5b3461016a57602036600319011261016a57610284611eea565b61028c61245a565b6001600160a01b031680156102dd575f80546001600160a01b03198116831782556001600160a01b0316907f8be0079c531659141344cd1fd0a4f28419497f9722a3daafe3b4186f6b6457e09080a3005b631e4fbdf760e01b5f525f60045260245ffd5b3461016a57602036600319011261016a576004355f52600260205260405f208054600160a01b60019003600183015416916002810161032e90612059565b61033a60038301612059565b9161034760048201612059565b92600782015493600883015490600984015492600a85015494600b015495604051998a998a5260208a0152604089016101609052610160890161038991611e8a565b88810360608a015261039a91611e8a565b87810360808901526103ab91611e8a565b9460ff8116151560a088015260081c60ff16151560c087015260e08601526101008501526101208401526101408301520390f35b3461016a57604036600319011261016a576004356103fb611f00565b90805f52600260205260405f2091610415835415156120f9565b61042960ff600785015460081c1615612145565b60018301546001600160a01b03163303610595576001600160a01b03811692831561055057825f52600560205260405f20845f5260205260ff60405f20541661051257600690835f52600560205260405f20855f5260205260405f20600160ff198254161790550190815491600160401b8310156104fe57826104b49160016104d895018155611fa3565b81546001600160a01b0393841660039290921b91821b9390911b1916919091179055565b7f4486767bf1b4c9809ec2021de5f1555d0a96d0cc9d7c3008bfafd13f3c69ca8c5f80a3005b634e487b7160e01b5f52604160045260245ffd5b60405162461bcd60e51b815260206004820152601660248201527520b63932b0b23c90309031b7b63630b137b930ba37b960511b6044820152606490fd5b60405162461bcd60e51b815260206004820152601c60248201527f496e76616c696420636f6c6c61626f7261746f722061646472657373000000006044820152606490fd5b60405162461bcd60e51b815260206004820152602260248201527f4f6e6c792063726561746f722063616e2061646420636f6c6c61626f7261746f604482015261727360f01b6064820152608490fd5b3461016a576105f336611e74565b9080600154915f9060015b8481111561072457508481018082116107105782106106fb575b505061062383611f8c565b926106316040519485611f6b565b808452601f1961064082611f8c565b013660208601375f9060015b84811115806106f2575b156106e057805f52600260205260ff600760405f20015416806106c3575b610687575b6106829061244c565b61064c565b9280156106a35761069a610682916123f5565b935b9050610679565b92916106bd81846106b7610682948a612401565b5261244c565b9261069c565b50805f52600260205260ff600760405f20015460081c1615610674565b604051806106ee8882611f16565b0390f35b50818310610656565b90919350810390811161071057918380610618565b634e487b7160e01b5f52601160045260245ffd5b805f52600260205260ff600760405f2001541680610765575b610750575b61074b9061244c565b6105fe565b9161075d61074b9161244c565b929050610742565b50805f52600260205260ff600760405f20015460081c161561073d565b3461016a57602036600319011261016a576004355f526002602052600a60405f206107af815415156120f9565b6107c360ff600783015460081c1615612145565b016107ce815461244c565b9055005b3461016a57608036600319011261016a576004356001600160401b03811161016a57610802903690600401611fcc565b6024356001600160401b03811161016a57610821903690600401611fcc565b6044356001600160401b03811161016a57610840903690600401611fcc565b916064359283151580940361016a57815115610e18576064825111610de35761086a60015461244c565b92836001555f608052602060805260405161088760805182611f6b565b5f80825236813760805160405196906108a09088611f6b565b5f808852368137604051916108b483611f4f565b86835260805183019433865260408401948786526060850152608084015260a083015260c0820196875260e08201526101008101905f825261012081014281526101408201914283526101608101935f85526101808201955f8752895f5260026080515260405f209783518955600189019060018060a01b039051166bffffffffffffffffffffffff60a01b8254161790556002880190518051906001600160401b0382116104fe5781906109698454612021565b601f8111610db1575b5060805190601f8311600114610d4b575f92610d40575b50508160011b915f199060031b1c19161790555b60608201518051906001600160401b0382116104fe5781906109c260038b0154612021565b601f8111610d0b575b5060805190601f8311600114610c9b575f92610c90575b50508160011b915f199060031b1c19161760038801555b60808201518051906001600160401b0382116104fe578190610a1e60048b0154612021565b601f8111610c50575b5060805190601f8311600114610be0575f92610bd5575b50508160011b915f199060031b1c19161760048801555b6005870160a0830151908151916001600160401b0383116104fe57600160401b83116104fe57610a8a8383548185558461242b565b60805101905f526080515f205f5b838110610bc057505050506006870199518051906001600160401b0382116104fe57600160401b82116104fe57610ad5828d80549082815561242b565b6080515f9c8d52808d209c91015b828210610ba0575050508697989950610b1460e06007600b99019301511515839060ff801983541691151516179055565b51151561ff0082549160081b169061ff00191617905551600886015551600985015551600a84015551910155335f52600360805152610b568260405f206123d2565b817fce008198a696dd4132871c794dc3239046f8b4fc085c043b7819fb022f1d7d1c604051608051815280610b913395608051830190611e8a565b0390a360405190815260805190f35b80516080516001600160a01b03909116838f015560019092019101610ae3565b60019083519360805101938184015501610a98565b015190508c80610a3e565b925060048a015f526080515f20905f935b601f1984168510610c34576001945083601f19811610610c1c575b505050811b016004880155610a55565b01515f1960f88460031b161c191690558c8080610c0c565b8181015183556080519485019460019093019290910190610bf1565b610c809060048c015f526080515f20601f850160051c8101916080518610610c86575b601f0160051c0190612415565b8d610a27565b9091508190610c73565b015190508c806109e2565b925060038a015f526080515f20905f935b601f1984168510610cef576001945083601f19811610610cd7575b505050811b0160038801556109f9565b01515f1960f88460031b161c191690558c8080610cc7565b8181015183556080519485019460019093019290910190610cac565b610d3a9060038c015f526080515f20601f850160051c8101916080518610610c8657601f0160051c0190612415565b8d6109cb565b015190508d80610989565b5f85815260805181209350601f198516905b818110610d985750908460019594939210610d80575b505050811b01905561099d565b01515f1960f88460031b161c191690558d8080610d73565b8284015185556080516001909501949384019301610d5d565b610ddd90855f526080515f20601f850160051c8101916080518610610c8657601f0160051c0190612415565b8e610972565b60405162461bcd60e51b815260206004820152600d60248201526c4e616d6520746f6f206c6f6e6760981b6044820152606490fd5b60405162461bcd60e51b81526020600482015260146024820152734e616d652063616e6e6f7420626520656d70747960601b6044820152606490fd5b3461016a57602036600319011261016a57600435805f52600260205260405f20610e80815415156120f9565b60ff6007820154610e96828260081c1615612145565b1615610f4c575f82815260046020908152604080832033845290915290205460ff16610f17575f8281526004602090815260408083203384529091529020805460ff19166001179055600b018054610eed9061244c565b905533907fbe15b7ca99e2c37631c10762c194d3594993908b67b2db2414c80eeccb3b2aea5f80a3005b60405162461bcd60e51b815260206004820152600d60248201526c105b1c9958591e481b1a5ad959609a1b6044820152606490fd5b60405162461bcd60e51b8152602060048201526013602482015272506c61796c697374206973207072697661746560681b6044820152606490fd5b3461016a57604036600319011261016a57610fa0611f00565b6004355f52600460205260405f209060018060a01b03165f52602052602060ff60405f2054166040519015158152f35b3461016a5760a036600319011261016a576004356024356001600160401b03811161016a57611003903690600401611fcc565b906044356001600160401b03811161016a57611023903690600401611fcc565b6064356001600160401b03811161016a57611042903690600401611fcc565b9260843590811515820361016a57835f52600260205260405f2092611069845415156120f9565b600784019161107f60ff845460081c1615612145565b60018501546001600160a01b0316331480156113ed575b61109f90612187565b8051806112f6575b50508051806111ff575b50508451806110fe575b50906110d2919060ff801983541691151516179055565b6009429101557f93aaac06ce494d27a210d6e73b6c5b65a27036cc38644c31d7684b754059f84f5f80a2005b60048401906001600160401b0381116104fe5761111b8254612021565b601f81116111cf575b506020601f82116001146111685781906110d29697985f9261115d575b50508160011b915f199060031b1c19161790555b8493926110bb565b015190508880611141565b601f19821697835f52815f20985f5b8181106111b75750916110d29798999184600195941061119f575b505050811b019055611155565b01515f1960f88460031b161c19169055888080611192565b838301518b556001909a019960209384019301611177565b6111f990835f5260205f20601f840160051c81019160208510610c8657601f0160051c0190612415565b87611124565b60038501916001600160401b0382116104fe57819061121e8454612021565b601f81116112c6575b50602090601f8311600114611263575f92611258575b50508160011b915f199060031b1c19161790555b85806110b1565b01519050888061123d565b5f8581528281209350601f198516905b8181106112ae5750908460019594939210611296575b505050811b019055611251565b01515f1960f88460031b161c19169055888080611289565b92936020600181928786015181550195019301611273565b6112f090855f5260205f20601f850160051c81019160208610610c8657601f0160051c0190612415565b89611227565b60028601916001600160401b0382116104fe5781906113158454612021565b601f81116113bd575b50602090601f831160011461135a575f9261134f575b50508160011b915f199060031b1c19161790555b86806110a7565b015190508980611334565b5f8581528281209350601f198516905b8181106113a5575090846001959493921061138d575b505050811b019055611348565b01515f1960f88460031b161c19169055898080611380565b9293602060018192878601518155019501930161136a565b6113e790855f5260205f20601f850160051c81019160208610610c8657601f0160051c0190612415565b8a61131e565b505f86815260056020908152604080832033845290915290205460ff16611096565b3461016a575f36600319011261016a575f546040516001600160a01b039091168152602090f35b3461016a57604036600319011261016a5761144f611eea565b6001600160a01b03165f9081526003602052604090208054602435919082101561016a5760209161147f91611fa3565b90549060031b1c604051908152f35b3461016a575f36600319011261016a576114a661245a565b5f80546001600160a01b0319811682556001600160a01b03167f8be0079c531659141344cd1fd0a4f28419497f9722a3daafe3b4186f6b6457e08280a3005b3461016a57604036600319011261016a576004356024356001600160401b03811161016a573660238201121561016a5780600401359161152483611f8c565b916115326040519384611f6b565b838352602083016024819560051b8301019136831161016a57602401905b82821061173057505050805f52600260205260405f2091611573835415156120f9565b61158760ff600785015460081c1615612145565b60018301546001600160a01b03163314801561170e575b6115a790612187565b805191600584019384548094036116d2575f5b8351811015611654575f5f5b868110611621575b50156115dc576001016115ba565b60405162461bcd60e51b815260206004820152601860248201527f496e76616c696420736f6e6720494420696e206f7264657200000000000000006044820152606490fd5b61162b8189611fa3565b90549060031b1c61163c8488612401565b511461164a576001016115c6565b50506001886115ce565b5082518587866001600160401b0384116104fe57600160401b84116104fe5783611681918185558461242b565b905f5260205f205f5b8381106116be57426009860155857f93aaac06ce494d27a210d6e73b6c5b65a27036cc38644c31d7684b754059f84f5f80a2005b60019060208451940193818401550161168a565b60405162461bcd60e51b8152602060048201526014602482015273092dcecc2d8d2c840dee4c8cae440d8cadccee8d60631b6044820152606490fd5b505f82815260056020908152604080832033845290915290205460ff1661159e565b8135815260209182019101611550565b3461016a57604036600319011261016a5760043561175c611f00565b90805f52600260205260405f2090611776825415156120f9565b61178a60ff600784015460081c1615612145565b60018201546001600160a01b0316330361190a57805f52600560205260405f2060018060a01b0384165f5260205260ff60405f205416156118d0575f8181526005602090815260408083206001600160a01b03871680855292528220805460ff191690559260060191905b8254808210156118c7578461180a8386611fa3565b905460039190911b1c6001600160a01b03161461182a57506001016117f5565b9192915f19810191908211610710576104b46118496118629385611fa3565b905460039190911b1c6001600160a01b03169184611fa3565b805480156118b3575f1901906118788282611fa3565b81549060018060a01b039060031b1b19169055555b7f213b7098f6bea4c344296a98893000df5975db0f186aa7c5b6997768669685545f80a3005b634e487b7160e01b5f52603160045260245ffd5b5050905061188d565b60405162461bcd60e51b81526020600482015260126024820152712737ba10309031b7b63630b137b930ba37b960711b6044820152606490fd5b60405162461bcd60e51b815260206004820152602560248201527f4f6e6c792063726561746f722063616e2072656d6f766520636f6c6c61626f7260448201526461746f727360d81b6064820152608490fd5b3461016a57602036600319011261016a576001600160a01b0361197e611eea565b165f5260036020526106ee61199560405f20612339565b60405191829182611f16565b3461016a57602036600319011261016a57600435805f52600260205260405f206119cd815415156120f9565b5f82815260046020908152604080832033845290915290205460ff1615611a46575f8281526004602090815260408083203384529091529020805460ff19169055600b018054611a1c906123f5565b905533907fbdd596edda825c91a2ba0eee9bb6ca22f766fe927c4602a4b9a724edc55cfa1c5f80a3005b60405162461bcd60e51b8152602060048201526009602482015268139bdd081b1a5ad95960ba1b6044820152606490fd5b3461016a57602036600319011261016a576004355f5260026020526106ee611aa4600660405f2001612381565b604051918291602083526020830190611eae565b3461016a57611ac636611e74565b90805f52600260205260405f20611adf815415156120f9565b611af360ff600783015460081c1615612145565b60018101546001600160a01b031633148015611bc3575b611b1390612187565b60058101805484905f5b818110611b5b575050611b2f916123d2565b6009429101557f8fa2bcb6922527fe8eff5e5532f5917220a234de62af83b40db17b7fe92513335f80a3005b9091611b678285611fa3565b90549060031b1c14611b7e57600101908591611b1d565b60405162461bcd60e51b815260206004820152601860248201527f536f6e6720616c726561647920696e20706c61796c69737400000000000000006044820152606490fd5b505f82815260056020908152604080832033845290915290205460ff16611b0a565b3461016a57602036600319011261016a57600435604051611c0581611f4f565b5f8152602081015f905260408101606090526060810160609052608081016060905260a081016060905260c081016060905260e081015f905261010081015f905261012081015f905261014081015f905261016081015f9052610180015f9052805f52600260205260405f20541515611c7d906120f9565b5f52600260205260405f20604051611c9481611f4f565b8154815260018201546001600160a01b031660208201908152611cb960028401612059565b6040830190815290611ccd60038501612059565b6060840190815293611ce160048201612059565b6080850190815292611cf560058301612339565b60a0860190815295611d0960068401612381565b60c0870190815260078401549060e088019660ff83161515885261010089019260081c60ff16151583526008860154936101208a019485526009870154956101408b01968752600a880154976101608c01988952600b0154986101808c01998a526040519b60208d525160208d0152600160a01b6001900390511660408c01525160608b016101a090526101c08b01611da191611e8a565b90518a8203601f190160808c0152611db99190611e8a565b9051898203601f190160a08b0152611dd19190611e8a565b985198601f198982030160c08a015289519081815260200199602001905f5b818110611e45575050508798611e129151601f198a83030160e08b0152611eae565b95511515610100880152511515610120870152516101408601525161016085015251610180840152516101a08301520390f35b82518c5260209b8c019b90920191600101611df0565b3461016a57611e72611e6c36611e74565b906121c4565b005b604090600319011261016a576004359060243590565b805180835260209291819084018484015e5f828201840152601f01601f1916010190565b90602080835192838152019201905f5b818110611ecb5750505090565b82516001600160a01b0316845260209384019390920191600101611ebe565b600435906001600160a01b038216820361016a57565b602435906001600160a01b038216820361016a57565b60206040818301928281528451809452019201905f5b818110611f395750505090565b8251845260209384019390920191600101611f2c565b6101a081019081106001600160401b038211176104fe57604052565b90601f801991011681019081106001600160401b038211176104fe57604052565b6001600160401b0381116104fe5760051b60200190565b8054821015611fb8575f5260205f2001905f90565b634e487b7160e01b5f52603260045260245ffd5b81601f8201121561016a578035906001600160401b0382116104fe5760405192612000601f8401601f191660200185611f6b565b8284526020838301011161016a57815f926020809301838601378301015290565b90600182811c9216801561204f575b602083101461203b57565b634e487b7160e01b5f52602260045260245ffd5b91607f1691612030565b9060405191825f82549261206c84612021565b80845293600181169081156120d75750600114612093575b5061209192500383611f6b565b565b90505f9291925260205f20905f915b8183106120bb575050906020612091928201015f612084565b60209193508060019154838589010152019101909184926120a2565b90506020925061209194915060ff191682840152151560051b8201015f612084565b1561210057565b60405162461bcd60e51b815260206004820152601760248201527f506c61796c69737420646f6573206e6f742065786973740000000000000000006044820152606490fd5b1561214c57565b60405162461bcd60e51b8152602060048201526013602482015272141b185e5b1a5cdd081a5cc819195b195d1959606a1b6044820152606490fd5b1561218e57565b60405162461bcd60e51b815260206004820152600e60248201526d139bdd08185d5d1a1bdc9a5e995960921b6044820152606490fd5b90815f52600260205260405f20916121de835415156120f9565b6121f260ff600785015460081c1615612145565b60018301546001600160a01b031633148015612317575b61221290612187565b60058301925f5b8454808210156122db578461222e8388611fa3565b90549060031b1c146122435750600101612219565b905f95929394951982019182116107105761227261226461228a9385611fa3565b90549060031b1c9184611fa3565b90919082549060031b91821b915f19901b1916179055565b805480156118b3575f1901906122a08282611fa3565b8154905f199060031b1b19169055556009429101557fe0a356c3e19971d3f113627e824bcfa288e36717d30c77910b3bdbb4edad1cef5f80a3565b60405162461bcd60e51b815260206004820152601460248201527314dbdb99c81b9bdd081a5b881c1b185e5b1a5cdd60621b6044820152606490fd5b505f81815260056020908152604080832033845290915290205460ff16612209565b90604051918281549182825260208201905f5260205f20925f5b81811061236857505061209192500383611f6b565b8454835260019485019487945060209093019201612353565b90604051918281549182825260208201905f5260205f20925f5b8181106123b057505061209192500383611f6b565b84546001600160a01b031683526001948501948794506020909301920161239b565b90815491600160401b8310156104fe578261227291600161209195018155611fa3565b8015610710575f190190565b8051821015611fb85760209160051b010190565b818110612420575050565b5f8155600101612415565b9181811061243857505050565b612091925f5260205f209182019101612415565b5f1981146107105760010190565b5f546001600160a01b0316330361246d57565b63118cdaa760e01b5f523360045260245ffdfea2646970667358221220b8300650f52d1c569850dbcd318f6ab1ce1b159ce485e43a84acc572ede9f47064736f6c634300081c0033",
  "linkReferences": {},
  "deployedLinkReferences": {}
}