{
  "_format": "hh-sol-artifact-1",
  "contractName": "SongNFT",
  "sourceName": "contracts/SongNFT.sol",
  "abi": [
    {
      "inputs": [],
      "stateMutability": "nonpayable",
      "type": "constructor"
    },
    {
      "inputs": [
        {
          "internalType": "address",
          "name": "sender",
          "type": "address"
        },
        {
          "internalType": "uint256",
          "name": "tokenId",
          "type": "uint256"
        },
        {
          "internalType": "address",
          "name": "owner",
          "type": "address"
        }
      ],
      "name": "ERC721IncorrectOwner",
      "type": "error"
    },
    {
      "inputs": [
        {
          "internalType": "address",
          "name": "operator",
          "type": "address"
        },
        {
          "internalType": "uint256",
          "name": "tokenId",
          "type": "uint256"
        }
      ],
      "name": "ERC721InsufficientApproval",
      "type": "error"
    },
    {
      "inputs": [
        {
          "internalType": "address",
          "name": "approver",
          "type": "address"
        }
      ],
      "name": "ERC721InvalidApprover",
      "type": "error"
    },
    {
      "inputs": [
        {
          "internalType": "address",
          "name": "operator",
          "type": "address"
        }
      ],
      "name": "ERC721InvalidOperator",
      "type": "error"
    },
    {
      "inputs": [
        {
          "internalType": "address",
          "name": "owner",
          "type": "address"
        }
      ],
      "name": "ERC721InvalidOwner",
      "type": "error"
    },
    {
      "inputs": [
        {
          "internalType": "address",
          "name": "receiver",
          "type": "address"
        }
      ],
      "name": "ERC721InvalidReceiver",
      "type": "error"
    },
    {
      "inputs": [
        {
          "internalType": "address",
          "name": "sender",
          "type": "address"
        }
      ],
      "name": "ERC721InvalidSender",
      "type": "error"
    },
    {
      "inputs": [
        {
          "internalType": "uint256",
          "name": "tokenId",
          "type": "uint256"
        }
      ],
      "name": "ERC721NonexistentToken",
      "type": "error"
    },
    {
      "inputs": [
        {
          "internalType": "address",
          "name": "owner",
          "type": "address"
        }
      ],
      "name": "OwnableInvalidOwner",
      "type": "error"
    },
    {
      "inputs": [
        {
          "internalType": "address",
          "name": "account",
          "type": "address"
        }
      ],
      "name": "OwnableUnauthorizedAccount",
      "type": "error"
    },
    {
      "inputs": [],
      "name": "ReentrancyGuardReentrantCall",
      "type": "error"
    },
    {
      "anonymous": false,
      "inputs": [
        {
          "indexed": true,
          "internalType": "address",
          "name": "owner",
          "type": "address"
        },
        {
          "indexed": true,
          "internalType": "address",
          "name": "approved",
          "type": "address"
        },
        {
          "indexed": true,
          "internalType": "uint256",
          "name": "tokenId",
          "type": "uint256"
        }
      ],
      "name": "Approval",
      "type": "event"
    },
    {
      "anonymous": false,
      "inputs": [
        {
          "indexed": true,
          "internalType": "address",
          "name": "owner",
          "type": "address"
        },
        {
          "indexed": true,
          "internalType": "address",
          "name": "operator",
          "type": "address"
        },
        {
          "indexed": false,
          "internalType": "bool",
          "name": "approved",
          "type": "bool"
        }
      ],
      "name": "ApprovalForAll",
      "type": "event"
    },
    {
      "anonymous": false,
      "inputs": [
        {
          "indexed": false,
          "internalType": "uint256",
          "name": "_fromTokenId",
          "type": "uint256"
        },
        {
          "indexed": false,
          "internalType": "uint256",
          "name": "_toTokenId",
          "type": "uint256"
        }
      ],
      "name": "BatchMetadataUpdate",
      "type": "event"
    },
    {
      "anonymous": false,
      "inputs": [
        {
          "indexed": false,
          "internalType": "uint256",
          "name": "_tokenId",
          "type": "uint256"
        }
      ],
      "name": "MetadataUpdate",
      "type": "event"
    },
    {
      "anonymous": false,
      "inputs": [
        {
          "indexed": true,
          "internalType": "address",
          "name": "previousOwner",
          "type": "address"
        },
        {
          "indexed": true,
          "internalType": "address",
          "name": "newOwner",
          "type": "address"
        }
      ],
      "name": "OwnershipTransferred",
      "type": "event"
    },
    {
      "anonymous": false,
      "inputs": [
        {
          "indexed": true,
          "internalType": "uint256",
          "name": "tokenId",
          "type": "uint256"
        },
        {
          "indexed": true,
          "internalType": "address",
          "name": "from",
          "type": "address"
        },
        {
          "indexed": true,
          "internalType": "address",
          "name": "to",
          "type": "address"
        },
        {
          "indexed": false,
          "internalType": "uint256",
          "name": "amount",
          "type": "uint256"
        }
      ],
      "name": "RoyaltyPaid",
      "type": "event"
    },
    {
      "anonymous": false,
      "inputs": [
        {
          "indexed": true,
          "internalType": "uint256",
          "name": "tokenId",
          "type": "uint256"
        },
        {
          "indexed": true,
          "internalType": "address",
          "name": "artist",
          "type": "address"
        },
        {
          "indexed": false,
          "internalType": "string",
          "name": "title",
          "type": "string"
        },
        {
          "indexed": false,
          "internalType": "string",
          "name": "ipfsAudioHash",
          "type": "string"
        }
      ],
      "name": "SongMinted",
      "type": "event"
    },
    {
      "anonymous": false,
      "inputs": [
        {
          "indexed": true,
          "internalType": "address",
          "name": "from",
          "type": "address"
        },
        {
          "indexed": true,
          "internalType": "address",
          "name": "to",
          "type": "address"
        },
        {
          "indexed": true,
          "internalType": "uint256",
          "name": "tokenId",
          "type": "uint256"
        }
      ],
      "name": "Transfer",
      "type": "event"
    },
    {
      "inputs": [
        {
          "internalType": "address",
          "name": "to",
          "type": "address"
        },
        {
          "internalType": "uint256",
          "name": "tokenId",
          "type": "uint256"
        }
      ],
      "name": "approve",
      "outputs": [],
      "stateMutability": "nonpayable",
      "type": "function"
    },
    {
      "inputs": [
        {
          "internalType": "address",
          "name": "",
          "type": "address"
        },
        {
          "internalType": "uint256",
          "name": "",
          "type": "uint256"
        }
      ],
      "name": "artistSongs",
      "outputs": [
        {
          "internalType": "uint256",
          "name": "",
          "type": "uint256"
        }
      ],
      "stateMutability": "view",
      "type": "function"
    },
    {
      "inputs": [
        {
          "internalType": "address",
          "name": "owner",
          "type": "address"
        }
      ],
      "name": "balanceOf",
      "outputs": [
        {
          "internalType": "uint256",
          "name": "",
          "type": "uint256"
        }
      ],
      "stateMutability": "view",
      "type": "function"
    },
    {
      "inputs": [
        {
          "internalType": "uint256",
          "name": "tokenId",
          "type": "uint256"
        }
      ],
      "name": "getApproved",
      "outputs": [
        {
          "internalType": "address",
          "name": "",
          "type": "address"
        }
      ],
      "stateMutability": "view",
      "type": "function"
    },
    {
      "inputs": [
        {
          "internalType": "address",
          "name": "artist",
          "type": "address"
        }
      ],
      "name": "getArtistSongs",
      "outputs": [
        {
          "internalType": "uint256[]",
          "name": "",
          "type": "uint256[]"
        }
      ],
      "stateMutability": "view",
      "type": "function"
    },
    {
      "inputs": [
        {
          "internalType": "uint256",
          "name": "tokenId",
          "type": "uint256"
        }
      ],
      "name": "getSongMetadata",
      "outputs": [
        {
          "components": [
            {
              "internalType": "string",
              "name": "title",
              "type": "string"
            },
            {
              "internalType": "string",
              "name": "artist",
              "type": "string"
            },
            {
              "internalType": "string",
              "name": "genre",
              "type": "string"
            },
            {
              "internalType": "uint256",
              "name": "duration",
              "type": "uint256"
            },
            {
              "internalType": "string",
              "name": "ipfsAudioHash",
              "type": "string"
            },
            {
              "internalType": "string",
              "name": "ipfsArtworkHash",
              "type": "string"
            },
            {
              "internalType": "uint256",
              "name": "royaltyPercentage",
              "type": "uint256"
            },
            {
              "internalType": "address",
              "name": "artistAddress",
              "type": "address"
            },
            {
              "internalType": "uint256",
              "name": "createdAt",
              "type": "uint256"
            },
            {
              "internalType": "bool",
              "name": "isExplicit",
              "type": "bool"
            },
            {
              "internalType": "uint256",
              "name": "likeCount",
              "type": "uint256"
            },
            {
              "internalType": "uint256",
              "name": "playCount",
              "type": "uint256"
            }
          ],
          "internalType": "struct SongNFT.SongMetadata",
          "name": "",
          "type": "tuple"
        }
      ],
      "stateMutability": "view",
      "type": "function"
    },
    {
      "inputs": [
        {
          "internalType": "uint256",
          "name": "",
          "type": "uint256"
        },
        {
          "internalType": "address",
          "name": "",
          "type": "address"
        }
      ],
      "name": "hasLiked",
      "outputs": [
        {
          "internalType": "bool",
          "name": "",
          "type": "bool"
        }
      ],
      "stateMutability": "view",
      "type": "function"
    },
    {
      "inputs": [
        {
          "internalType": "address",
          "name": "owner",
          "type": "address"
        },
        {
          "internalType": "address",
          "name": "operator",
          "type": "address"
        }
      ],
      "name": "isApprovedForAll",
      "outputs": [
        {
          "internalType": "bool",
          "name": "",
          "type": "bool"
        }
      ],
      "stateMutability": "view",
      "type": "function"
    },
    {
      "inputs": [
        {
          "internalType": "uint256",
          "name": "tokenId",
          "type": "uint256"
        }
      ],
      "name": "likeSong",
      "outputs": [],
      "stateMutability": "nonpayable",
      "type": "function"
    },
    {
      "inputs": [
        {
          "internalType": "address",
          "name": "to",
          "type": "address"
        },
        {
          "internalType": "string",
          "name": "title",
          "type": "string"
        },
        {
          "internalType": "string",
          "name": "artist",
          "type": "string"
        },
        {
          "internalType": "string",
          "name": "genre",
          "type": "string"
        },
        {
          "internalType": "uint256",
          "name": "duration",
          "type": "uint256"
        },
        {
          "internalType": "string",
          "name": "ipfsAudioHash",
          "type": "string"
        },
        {
          "internalType": "string",
          "name": "ipfsArtworkHash",
          "type": "string"
        },
        {
          "internalType": "uint256",
          "name": "royaltyPercentage",
          "type": "uint256"
        },
        {
          "internalType": "bool",
          "name": "isExplicit",
          "type": "bool"
        },
        {
          "internalType": "string",
          "name": "metadataURI",
          "type": "string"
        }
      ],
      "name": "mintSong",
      "outputs": [
        {
          "internalType": "uint256",
          "name": "",
          "type": "uint256"
        }
      ],
      "stateMutability": "nonpayable",
      "type": "function"
    },
    {
      "inputs": [],
      "name": "name",
      "outputs": [
        {
          "internalType": "string",
          "name": "",
          "type": "string"
        }
      ],
      "stateMutability": "view",
      "type": "function"
    },
    {
      "inputs": [],
      "name": "owner",
      "outputs": [
        {
          "internalType": "address",
          "name": "",
          "type": "address"
        }
      ],
      "stateMutability": "view",
      "type": "function"
    },
    {
      "inputs": [
        {
          "internalType": "uint256",
          "name": "tokenId",
          "type": "uint256"
        }
      ],
      "name": "ownerOf",
      "outputs": [
        {
          "internalType": "address",
          "name": "",
          "type": "address"
        }
      ],
      "stateMutability": "view",
      "type": "function"
    },
    {
      "inputs": [
        {
          "internalType": "uint256",
          "name": "tokenId",
          "type": "uint256"
        }
      ],
      "name": "recordPlay",
      "outputs": [],
      "stateMutability": "nonpayable",
      "type": "function"
    },
    {
      "inputs": [],
      "name": "renounceOwnership",
      "outputs": [],
      "stateMutability": "nonpayable",
      "type": "function"
    },
    {
      "inputs": [
        {
          "internalType": "address",
          "name": "from",
          "type": "address"
        },
        {
          "internalType": "address",
          "name": "to",
          "type": "address"
        },
        {
          "internalType": "uint256",
          "name": "tokenId",
          "type": "uint256"
        }
      ],
      "name": "safeTransferFrom",
      "outputs": [],
      "stateMutability": "nonpayable",
      "type": "function"
    },
    {
      "inputs": [
        {
          "internalType": "address",
          "name": "from",
          "type": "address"
        },
        {
          "internalType": "address",
          "name": "to",
          "type": "address"
        },
        {
          "internalType": "uint256",
          "name": "tokenId",
          "type": "uint256"
        },
        {
          "internalType": "bytes",
          "name": "data",
          "type": "bytes"
        }
      ],
      "name": "safeTransferFrom",
      "outputs": [],
      "stateMutability": "nonpayable",
      "type": "function"
    },
    {
      "inputs": [
        {
          "internalType": "address",
          "name": "operator",
          "type": "address"
        },
        {
          "internalType": "bool",
          "name": "approved",
          "type": "bool"
        }
      ],
      "name": "setApprovalForAll",
      "outputs": [],
      "stateMutability": "nonpayable",
      "type": "function"
    },
    {
      "inputs": [
        {
          "internalType": "uint256",
          "name": "",
          "type": "uint256"
        }
      ],
      "name": "songMetadata",
      "outputs": [
        {
          "internalType": "string",
          "name": "title",
          "type": "string"
        },
        {
          "internalType": "string",
          "name": "artist",
          "type": "string"
        },
        {
          "internalType": "string",
          "name": "genre",
          "type": "string"
        },
        {
          "internalType": "uint256",
          "name": "duration",
          "type": "uint256"
        },
        {
          "internalType": "string",
          "name": "ipfsAudioHash",
          "type": "string"
        },
        {
          "internalType": "string",
          "name": "ipfsArtworkHash",
          "type": "string"
        },
        {
          "internalType": "uint256",
          "name": "royaltyPercentage",
          "type": "uint256"
        },
        {
          "internalType": "address",
          "name": "artistAddress",
          "type": "address"
        },
        {
          "internalType": "uint256",
          "name": "createdAt",
          "type": "uint256"
        },
        {
          "internalType": "bool",
          "name": "isExplicit",
          "type": "bool"
        },
        {
          "internalType": "uint256",
          "name": "likeCount",
          "type": "uint256"
        },
        {
          "internalType": "uint256",
          "name": "playCount",
          "type": "uint256"
        }
      ],
      "stateMutability": "view",
      "type": "function"
    },
    {
      "inputs": [
        {
          "internalType": "bytes4",
          "name": "interfaceId",
          "type": "bytes4"
        }
      ],
      "name": "supportsInterface",
      "outputs": [
        {
          "internalType": "bool",
          "name": "",
          "type": "bool"
        }
      ],
      "stateMutability": "view",
      "type": "function"
    },
    {
      "inputs": [],
      "name": "symbol",
      "outputs": [
        {
          "internalType": "string",
          "name": "",
          "type": "string"
        }
      ],
      "stateMutability": "view",
      "type": "function"
    },
    {
      "inputs": [
        {
          "internalType": "uint256",
          "name": "tokenId",
          "type": "uint256"
        }
      ],
      "name": "tokenURI",
      "outputs": [
        {
          "internalType": "string",
          "name": "",
          "type": "string"
        }
      ],
      "stateMutability": "view",
      "type": "function"
    },
    {
      "inputs": [
        {
          "internalType": "address",
          "name": "from",
          "type": "address"
        },
        {
          "internalType": "address",
          "name": "to",
          "type": "address"
        },
        {
          "internalType": "uint256",
          "name": "tokenId",
          "type": "uint256"
        }
      ],
      "name": "transferFrom",
      "outputs": [],
      "stateMutability": "nonpayable",
      "type": "function"
    },
    {
      "inputs": [
        {
          "internalType": "address",
          "name": "newOwner",
          "type": "address"
        }
      ],
      "name": "transferOwnership",
      "outputs": [],
      "stateMutability": "nonpayable",
      "type": "function"
    },
    {
      "inputs": [
        {
          "internalType": "uint256",
          "name": "tokenId",
          "type": "uint256"
        }
      ],
      "name": "unlikeSong",
      "outputs": [],
      "stateMutability": "nonpayable",
      "type": "function"
    },
    {
      "inputs": [
        {
          "internalType": "uint256",
          "name": "tokenId",
          "type": "uint256"
        },
        {
          "internalType": "string",
          "name": "title",
          "type": "string"
        },
        {
          "internalType": "string",
          "name": "genre",
          "type": "string"
        },
        {
          "internalType": "string",
          "name": "ipfsArtworkHash",
          "type": "string"
        }
      ],
      "name": "updateSongMetadata",
      "outputs": [],
      "stateMutability": "nonpayable",
      "type": "function"
    }
  ],
  "bytecode": "0x60806040523461037557604080519081016001600160401b0381118282101761028b576040908152600c82526b4869426561747320536f6e6760a01b602083015280519081016001600160401b0381118282101761028b5760405260068152654842534f4e4760d01b602082015281516001600160401b03811161028b575f54600181811c9116801561036b575b602082101461026d57601f8111610309575b50602092601f82116001146102aa57928192935f9261029f575b50508160011b915f199060031b1c1916175f555b80516001600160401b03811161028b57600154600181811c91168015610281575b602082101461026d57601f811161020a575b50602091601f82116001146101aa579181925f9261019f575b50508160011b915f199060031b1c1916176001555b331561018c5760078054336001600160a01b03198216811790925560405191906001600160a01b03167f8be0079c531659141344cd1fd0a4f28419497f9722a3daafe3b4186f6b6457e05f80a360016008556126ec908161037a8239f35b631e4fbdf760e01b5f525f60045260245ffd5b015190505f80610119565b601f1982169260015f52805f20915f5b8581106101f2575083600195106101da575b505050811b0160015561012e565b01515f1960f88460031b161c191690555f80806101cc565b919260206001819286850151815501940192016101ba565b60015f527fb10e2d527612073b26eecdfd717e6a320cf44b4afac2b0732d9fcbe2b7fa0cf6601f830160051c81019160208410610263575b601f0160051c01905b8181106102585750610100565b5f815560010161024b565b9091508190610242565b634e487b7160e01b5f52602260045260245ffd5b90607f16906100ee565b634e487b7160e01b5f52604160045260245ffd5b015190505f806100b9565b601f198216935f8052805f20915f5b8681106102f157508360019596106102d9575b505050811b015f556100cd565b01515f1960f88460031b161c191690555f80806102cc565b919260206001819286850151815501940192016102b9565b5f80527f290decd9548b62a8d60345a988386fc84ba6bc95484008f6362f93160ef3e563601f830160051c81019160208410610361575b601f0160051c01905b818110610356575061009f565b5f8155600101610349565b9091508190610340565b90607f169061008d565b5f80fdfe6080806040526004361015610012575f80fd5b5f3560e01c90816301ffc9a714611f3a5750806306fdde0314611e98578063081812fc14611e5c578063095ea7b314611d7257806323b872dd14611d5b5780632b1067c714611d1b5780633c279b4e14611c5957806342842e0e14611c2a5780636352211e14611bfa5780636758fa6614610eec57806370a0823114610e9b57806370eff9b614610c6a578063715018a614610c0f5780638da5cb5b14610be75780638fb7092c14610b9e578063953c594b14610a8157806395d89b41146109b7578063a09f0aed1461095f578063a22cb465146108bb578063b88d4fde14610850578063c87b56dd14610819578063d8a5456314610765578063e985e9c51461070e578063efd3221f14610640578063f2fde38b146105ba5763ff5337e51461013a575f80fd5b346105b65760803660031901126105b6576004356024356001600160401b0381116105b65761016d9036906004016120d7565b906044356001600160401b0381116105b65761018d9036906004016120d7565b6064356001600160401b0381116105b6576101ac9036906004016120d7565b926101c96001600160a01b036101c1856124f5565b1615156124a5565b6101d2836124f5565b6001600160a01b031633148015610594575b1561055e57805161043d575b508051610322575b50815161020157005b5f52600a602052600560405f200181516001600160401b03811161030e5761022982546120f5565b601f81116102c9575b50602092601f821160011461026d57928192935f92610262575b50508160011b915f199060031b1c19161790555b005b015190505f8061024c565b601f19821693835f52805f20915f5b8681106102b15750836001959610610299575b505050811b019055005b01515f1960f88460031b161c191690555f808061028f565b9192602060018192868501518155019401920161027c565b825f5260205f20601f830160051c81019160208410610304575b601f0160051c01905b8181106102f95750610232565b5f81556001016102ec565b90915081906102e3565b634e487b7160e01b5f52604160045260245ffd5b9190805f52600a602052600260405f200183516001600160401b03811161030e5761034d82546120f5565b601f81116103f8575b50602094601f8211600114610397579481929394955f9261038c575b50508160011b915f199060031b1c19161790555b5f6101f8565b015190505f80610372565b601f19821695835f52805f20915f5b8881106103e0575083600195969798106103c8575b505050811b019055610386565b01515f1960f88460031b161c191690555f80806103bb565b919260206001819286850151815501940192016103a6565b825f5260205f20601f830160051c81019160208410610433575b601f0160051c01905b8181106104285750610356565b5f815560010161041b565b9091508190610412565b825f52600a60205260405f20908051906001600160401b03821161030e57819061046784546120f5565b601f811161050e575b50602090601f83116001146104ab575f926104a0575b50508160011b915f199060031b1c19161790555b5f6101f0565b015190505f80610486565b5f8581528281209350601f198516905b8181106104f657509084600195949392106104de575b505050811b01905561049a565b01515f1960f88460031b161c191690555f80806104d1565b929360206001819287860151815501950193016104bb565b909150835f5260205f20601f840160051c81019160208510610554575b90601f859493920160051c01905b8181106105465750610470565b5f8155849350600101610539565b909150819061052b565b60405162461bcd60e51b815260206004820152600e60248201526d139bdd08185d5d1a1bdc9a5e995960921b6044820152606490fd5b505f838152600a60205260409020600701546001600160a01b031633146101e4565b5f80fd5b346105b65760203660031901126105b6576105d3611fe3565b6105db612529565b6001600160a01b0316801561062d57600780546001600160a01b0319811683179091556001600160a01b03167f8be0079c531659141344cd1fd0a4f28419497f9722a3daafe3b4186f6b6457e05f80a3005b631e4fbdf760e01b5f525f60045260245ffd5b346105b65760203660031901126105b6576004356106686001600160a01b036101c1836124f5565b5f818152600c6020908152604080832033845290915290205460ff16156106d9575f818152600c602090815260408083203384528252808320805460ff19169055928252600a9081905291902001805480156106c5575f19019055005b634e487b7160e01b5f52601160045260245ffd5b60405162461bcd60e51b815260206004820152600d60248201526c139bdd081b1a5ad959081e595d609a1b6044820152606490fd5b346105b65760403660031901126105b657610727611fe3565b61072f611ff9565b9060018060a01b03165f52600560205260405f209060018060a01b03165f52602052602060ff60405f2054166040519015158152f35b346105b65760203660031901126105b6576001600160a01b03610786611fe3565b165f52600b60205260405f20604051806020835491828152019081935f5260205f20905f5b81811061080357505050816107c1910382612065565b604051918291602083019060208452518091526040830191905f5b8181106107ea575050500390f35b82518452859450602093840193909201916001016107dc565b82548452602090930192600192830192016107ab565b346105b65760203660031901126105b65761084c610838600435612686565b604051918291602083526020830190611fbf565b0390f35b346105b65760803660031901126105b657610869611fe3565b610871611ff9565b90604435606435926001600160401b0384116105b657366023850112156105b6576108a96102609436906024816004013591016120a1565b926108b58383836121f6565b33612550565b346105b65760403660031901126105b6576108d4611fe3565b60243590811515908183036105b6576001600160a01b031691821561094c5761091e90335f52600560205260405f20845f5260205260405f209060ff801983541691151516179055565b6040519081527f17307eab39ab6107e8899845ad3d59bd9653f200f220920489ca2b5937696c3160203392a3005b82630b61174360e31b5f5260045260245ffd5b346105b65760403660031901126105b657610978611fe3565b6001600160a01b03165f908152600b60205260409020805460243591908210156105b6576020916109a8916121cd565b90549060031b1c604051908152f35b346105b6575f3660031901126105b6576040515f6001546109d7816120f5565b8084529060018116908115610a5d57506001146109ff575b61084c8361083881850382612065565b60015f9081527fb10e2d527612073b26eecdfd717e6a320cf44b4afac2b0732d9fcbe2b7fa0cf6939250905b808210610a43575090915081016020016108386109ef565b919260018160209254838588010152019101909291610a2b565b60ff191660208086019190915291151560051b8401909101915061083890506109ef565b346105b65760203660031901126105b6576004355f52600a60205260405f20610aa98161212d565b610ab56001830161212d565b91610ac26002820161212d565b600382015491610ad46004820161212d565b92610ae16005830161212d565b93600683015494600160a01b6001900360078501541690600885015492600986015460ff1694600a87015496600b0154976040519b8c9b6101808d526101808d01610b2b91611fbf565b8c810360208e0152610b3c91611fbf565b8b810360408d0152610b4d91611fbf565b9060608b015289810360808b0152610b6491611fbf565b88810360a08a0152610b7591611fbf565b9560c088015260e087015261010086015215156101208501526101408401526101608301520390f35b346105b65760403660031901126105b657610bb7611ff9565b6004355f52600c60205260405f209060018060a01b03165f52602052602060ff60405f2054166040519015158152f35b346105b6575f3660031901126105b6576007546040516001600160a01b039091168152602090f35b346105b6575f3660031901126105b657610c27612529565b600780546001600160a01b031981169091555f906001600160a01b03167f8be0079c531659141344cd1fd0a4f28419497f9722a3daafe3b4186f6b6457e08280a3005b346105b65760203660031901126105b657600435604051610c8a81612049565b606080825260208201819052604082018190525f8282018190526080830182905260a083019190915260c0820181905260e08201819052610100820181905261012082018190526101408201819052610160909101526001600160a01b03610cf1826124f5565b161515610cfd906124a5565b5f52600a60205260405f20604051610d1481612049565b610d1d8261212d565b8152610d2b6001830161212d565b6020820190815291610d3f6002820161212d565b6040830190815260038201546060840190815291610d5f6004820161212d565b60808501908152610d726005830161212d565b9360a0860194855260068301549460c08701958652600160a01b600190036007850154169060e088019182526008850154926101008901938452600986015460ff16946101208a019515158652600a870154966101408b01978852600b0154976101608b019889526040519b8c9b60208d525160208d0161018090526101a08d01610dfc91611fbf565b90518c8203601f190160408e0152610e149190611fbf565b90518b8203601f190160608d0152610e2c9190611fbf565b915160808b015251898203601f190160a08b0152610e4a9190611fbf565b9051888203601f190160c08a0152610e629190611fbf565b955160e0880152516001600160a01b03166101008701525161012086015251151561014085015251610160840152516101808301520390f35b346105b65760203660031901126105b6576001600160a01b03610ebc611fe3565b168015610ed9575f526003602052602060405f2054604051908152f35b6322718ad960e21b5f525f60045260245ffd5b346105b6576101403660031901126105b657610f06611fe3565b6024356001600160401b0381116105b657610f259036906004016120d7565b6044356001600160401b0381116105b657610f449036906004016120d7565b916064356001600160401b0381116105b657610f649036906004016120d7565b9160a4356001600160401b0381116105b657610f849036906004016120d7565b9160c4356001600160401b0381116105b657610fa49036906004016120d7565b946101043580151581036105b657610124356001600160401b0381116105b657610fd29036906004016120d7565b9661271060e43511611bb557845115611b7857825115611b3a57855115611af557875115611ab0576110056009546124e7565b968760095560209860405161101a8b82612065565b5f81526001600160a01b03871615611a9d575f8a815260028c5260409020546001600160a01b03168015159081611a6c575b60018060a01b0389165f5260038d5260405f20600181540190558b5f5260028d5260405f2060018060a01b038a166bffffffffffffffffffffffff60a01b8254161790558b60018060a01b038a16827fddf252ad1be2c89b69c2b068fc378daa952ba7f163c4a11628f55a4df523b3ef5f80a450611a5957863b61191e575b50885f5260068a5260405f20908051906001600160401b03821161030e5781908c6110f685546120f5565b601f81116118cd575b50508c908d601f841160011461186957505f9261185e575b50508160011b915f199060031b1c19161790555b7ff8e1a15aba9398e019f0b49df1a4fde98ee17ae345cb5f6b5e2c27f5033e8ce7896040518a8152a16040519361116185612049565b868552898501526040840152608435606084015285608084015260a083015260e43560c083015260018060a01b03831660e08301524261010083015215156101208201525f6101408201525f610160820152845f52600a865260405f209080518051906001600160401b03821161030e5781906111de85546120f5565b601f8111611813575b508990601f83116001146117b0575f926117a5575b50508160011b915f199060031b1c19161782555b868101518051906001600160401b03821161030e57819061123460018601546120f5565b601f8111611757575b508990601f83116001146116ed575f926116e2575b50508160011b915f199060031b1c19161760018301555b60408101518051906001600160401b03821161030e57819061128e60028601546120f5565b601f8111611694575b508990601f831160011461162a575f9261161f575b50508160011b915f199060031b1c19161760028301555b6060810151600383015560808101518051906001600160401b03821161030e5781906112f260048601546120f5565b601f81116115d1575b508990601f8311600114611567575f9261155c575b50508160011b915f199060031b1c19161760048301555b60a08101518051906001600160401b03821161030e5761134a60058501546120f5565b601f811161151a575b508890601f83116001146114ab579180600b9492610160945f926114a0575b50508160011b915f199060031b1c19161760058501555b60c0810151600685015560e08101516007850180546001600160a01b039092166001600160a01b0319909216919091179055610100810151600885015561012081015160098501805460ff191691151560ff16919091179055610140810151600a85015501519101556001600160a01b0381165f908152600b8652604090208054926801000000000000000084101561030e576114957f6a135996c8fd91f2be5a941e66466f2300d0665945fc9ff97c74f0da082da16d936114558661147d9560018b990181556121cd565b81549060031b9088821b915f19901b1916179055604051938493604085526040850190611fbf565b8381038a8501526001600160a01b0390911696611fbf565b0390a3604051908152f35b015190508b80611372565b90601f19831691600586015f528a5f20925f5b8c82821061150457505092600192859261016096600b9896106114ec575b505050811b016005850155611389565b01515f1960f88460031b161c191690558b80806114dc565b60018596829396860151815501950193016114be565b600585015f52895f20601f840160051c81018b8510611555575b601f830160051c8201811061154a575050611353565b5f8155600101611534565b5080611534565b015190508980611310565b600486015f9081528b81209350601f198516905b8c8282106115bb5750509084600195949392106115a3575b505050811b016004830155611327565b01515f1960f88460031b161c19169055898080611593565b600185968293968601518155019501930161157b565b909150600485015f52895f20601f840160051c81018b8510611618575b90849392915b601f830160051c8201811061160a5750506112fb565b5f81558594506001016115f4565b50806115ee565b0151905089806112ac565b600286015f9081528b81209350601f198516905b8c82821061167e575050908460019594939210611666575b505050811b0160028301556112c3565b01515f1960f88460031b161c19169055898080611656565b600185968293968601518155019501930161163e565b909150600285015f52895f20601f840160051c81018b85106116db575b90849392915b601f830160051c820181106116cd575050611297565b5f81558594506001016116b7565b50806116b1565b015190508980611252565b600186015f9081528b81209350601f198516905b8c828210611741575050908460019594939210611729575b505050811b016001830155611269565b01515f1960f88460031b161c19169055898080611719565b6001859682939686015181550195019301611701565b909150600185015f52895f20601f840160051c81018b851061179e575b90849392915b601f830160051c8201811061179057505061123d565b5f815585945060010161177a565b5080611774565b0151905089806111fc565b5f8681528b81209350601f198516905b8c8282106117fd5750509084600195949392106117e5575b505050811b018255611210565b01515f1960f88460031b161c191690558980806117d8565b60018596829396860151815501950193016117c0565b909150845f52895f20601f840160051c81018b8510611857575b90849392915b601f830160051c820181106118495750506111e7565b5f8155859450600101611833565b508061182d565b015190508c80611117565b5f8681528181209450601f198616915b8282106118b557505090846001959493921061189d575b505050811b01905561112b565b01515f1960f88460031b161c191690558c8080611890565b80600186978294978701518155019601940190611879565b90919250845f52815f2090601f850160051c8201928510611914575b90601f859493920160051c01905b818110611906578e91506110ff565b5f81558493506001016118f7565b90915081906118e9565b8a61196191888c5f9a9e9d9c9b9a604051809681958294630a85bd0160e11b84523360048501528460248501526044840152608060648401526084830190611fbf565b03926001600160a01b03165af15f9181611a19575b506119d6578a8a3d156119ce573d9061198e82612086565b9161199c6040519384612065565b82523d5f8284013e5b815191826119cb57633250574960e11b5f9081526001600160a01b038516600452602490fd5b01fd5b6060906119a5565b98999798969795966001600160e01b03191663757a42ff60e11b016119fb578a6110cb565b633250574960e11b5f9081526001600160a01b038716600452602490fd5b9091508a81813d8311611a52575b611a318183612065565b810103126105b657516001600160e01b0319811681036105b657908c611976565b503d611a27565b6339e3563760e11b5f525f60045260245ffd5b5f8c81526004602052604080822080546001600160a01b031916905582825260038f52902080545f1901905561104c565b633250574960e11b5f525f60045260245ffd5b60405162461bcd60e51b815260206004820152601c60248201527f4d65746164617461205552492063616e6e6f7420626520656d707479000000006044820152606490fd5b60405162461bcd60e51b815260206004820152601a60248201527f417564696f20686173682063616e6e6f7420626520656d7074790000000000006044820152606490fd5b60405162461bcd60e51b81526020600482015260166024820152754172746973742063616e6e6f7420626520656d70747960501b6044820152606490fd5b60405162461bcd60e51b81526020600482015260156024820152745469746c652063616e6e6f7420626520656d70747960581b6044820152606490fd5b60405162461bcd60e51b815260206004820152601a60248201527f526f79616c74792063616e6e6f742065786365656420313030250000000000006044820152606490fd5b346105b65760203660031901126105b6576020611c186004356124f5565b6040516001600160a01b039091168152f35b346105b657610260611c3b3661200f565b9060405192611c4b602085612065565b5f84526108b58383836121f6565b346105b65760203660031901126105b657600435611c816001600160a01b036101c1836124f5565b5f818152600c6020908152604080832033845290915290205460ff16611ce657805f52600c60205260405f2060018060a01b0333165f5260205260405f20600160ff198254161790555f52600a602052600a60405f2001611ce281546124e7565b9055005b60405162461bcd60e51b815260206004820152600d60248201526c105b1c9958591e481b1a5ad959609a1b6044820152606490fd5b346105b65760203660031901126105b657600435611d436001600160a01b036101c1836124f5565b5f52600a602052600b60405f2001611ce281546124e7565b346105b657610260611d6c3661200f565b916121f6565b346105b65760403660031901126105b657611d8b611fe3565b602435611d97816124f5565b33151580611e49575b80611e1c575b611e095781906001600160a01b0384811691167f8c5be1e5ebec7d5bd14f71427d1e84f3dd0314c0f7b2291e5b200ac8c7c3b9255f80a45f90815260046020526040902080546001600160a01b0319166001600160a01b03909216919091179055005b63a9fbf51f60e01b5f523360045260245ffd5b506001600160a01b0381165f90815260056020908152604080832033845290915290205460ff1615611da6565b506001600160a01b038116331415611da0565b346105b65760203660031901126105b657600435611e79816124f5565b505f526004602052602060018060a01b0360405f205416604051908152f35b346105b6575f3660031901126105b6576040515f5f54611eb7816120f5565b8084529060018116908115610a5d5750600114611ede5761084c8361083881850382612065565b5f8080527f290decd9548b62a8d60345a988386fc84ba6bc95484008f6362f93160ef3e563939250905b808210611f20575090915081016020016108386109ef565b919260018160209254838588010152019101909291611f08565b346105b65760203660031901126105b6576004359063ffffffff60e01b82168092036105b657602091632483248360e11b8114908115611f7c575b5015158152f35b6380ac58cd60e01b811491508115611fae575b8115611f9d575b5083611f75565b6301ffc9a760e01b14905083611f96565b635b5e139f60e01b81149150611f8f565b805180835260209291819084018484015e5f828201840152601f01601f1916010190565b600435906001600160a01b03821682036105b657565b602435906001600160a01b03821682036105b657565b60609060031901126105b6576004356001600160a01b03811681036105b657906024356001600160a01b03811681036105b6579060443590565b61018081019081106001600160401b0382111761030e57604052565b90601f801991011681019081106001600160401b0382111761030e57604052565b6001600160401b03811161030e57601f01601f191660200190565b9291926120ad82612086565b916120bb6040519384612065565b8294818452818301116105b6578281602093845f960137010152565b9080601f830112156105b6578160206120f2933591016120a1565b90565b90600182811c92168015612123575b602083101461210f57565b634e487b7160e01b5f52602260045260245ffd5b91607f1691612104565b9060405191825f825492612140846120f5565b80845293600181169081156121ab5750600114612167575b5061216592500383612065565b565b90505f9291925260205f20905f915b81831061218f575050906020612165928201015f612158565b6020919350806001915483858901015201910190918492612176565b90506020925061216594915060ff191682840152151560051b8201015f612158565b80548210156121e2575f5260205f2001905f90565b634e487b7160e01b5f52603260045260245ffd5b9190333b612389575b6001600160a01b0316918215611a9d575f828152600260205260409020546001600160a01b0316928290331515806122f4575b50846122c1575b805f52600360205260405f2060018154019055815f52600260205260405f20816bffffffffffffffffffffffff60a01b825416179055847fddf252ad1be2c89b69c2b068fc378daa952ba7f163c4a11628f55a4df523b3ef5f80a46001600160a01b03168083036122a957505050565b6364283d7b60e01b5f5260045260245260445260645ffd5b5f82815260046020526040902080546001600160a01b0319169055845f52600360205260405f205f198154019055612239565b90915080612338575b1561230a5782905f612232565b828461232257637e27328960e01b5f5260045260245ffd5b63177e802f60e01b5f523360045260245260445ffd5b503384148015612367575b806122fd57505f838152600460205260409020546001600160a01b031633146122fd565b505f84815260056020908152604080832033845290915290205460ff16612343565b815f52600a60205260405f206040516123a181612049565b6123aa8261212d565b81526123b86001830161212d565b60208201526123c96002830161212d565b6040820152600382015460608201526123e46004830161212d565b60808201526123f56005830161212d565b60a08201526006820154908160c0820152610160600b60018060a01b03600786015416948560e0850152600881015461010085015260ff6009820154161515610120850152600a810154610140850152015491015215158061249c575b61245d575b506121ff565b6040515f81526001600160a01b0385169084907ff3f83c9d88dc83497cc705129934b4aa146d32ecd677e6ed32c57009a077067e90602090a45f612457565b50801515612452565b156124ac57565b60405162461bcd60e51b815260206004820152601360248201527214dbdb99c8191bd95cc81b9bdd08195e1a5cdd606a1b6044820152606490fd5b5f1981146106c55760010190565b5f818152600260205260409020546001600160a01b0316908115612517575090565b637e27328960e01b5f5260045260245ffd5b6007546001600160a01b0316330361253d57565b63118cdaa760e01b5f523360045260245ffd5b823b61255e575b5050505050565b604051630a85bd0160e11b81526001600160a01b0391821660048201529181166024830152604482019390935260806064820152911691602090829081906125aa906084830190611fbf565b03815f865af15f9181612641575b5061260d57503d15612606573d6125ce81612086565b906125dc6040519283612065565b81523d5f602083013e5b805190816126015782633250574960e11b5f5260045260245ffd5b602001fd5b60606125e6565b6001600160e01b03191663757a42ff60e11b0161262f57505f80808080612557565b633250574960e11b5f5260045260245ffd5b9091506020813d60201161267e575b8161265d60209383612065565b810103126105b657516001600160e01b0319811681036105b657905f6125b8565b3d9150612650565b61268f816124f5565b505f5260066020526126a360405f2061212d565b5f6040516126b2602082612065565b529056fea264697066735822122064f4ac4b2c1e16a91d9f5af544a34943955253e59b8dfa000a53fddbe74b17b164736f6c634300081c0033",
  "linkReferences": {},
  "deployedLinkReferences": {}
}