{
  "_format": "hh-sol-artifact-1",
  "contractName": "AlbumManager",
  "sourceName": "contracts/AlbumManager.sol",
  "abi": [
    {
      "inputs": [],
      "stateMutability": "nonpayable",
      "type": "constructor"
    },
    {
      "inputs": [
        {
          "internalType": "address",
          "name": "owner",
          "type": "address"
        }
      ],
      "name": "OwnableInvalidOwner",
      "type": "error"
    },
    {
      "inputs": [
        {
          "internalType": "address",
          "name": "account",
          "type": "address"
        }
      ],
      "name": "OwnableUnauthorizedAccount",
      "type": "error"
    },
    {
      "anonymous": false,
      "inputs": [
        {
          "indexed": true,
          "internalType": "uint256",
          "name": "albumId",
          "type": "uint256"
        },
        {
          "indexed": true,
          "internalType": "address",
          "name": "artist",
          "type": "address"
        },
        {
          "indexed": false,
          "internalType": "string",
          "name": "title",
          "type": "string"
        },
        {
          "indexed": false,
          "internalType": "enum AlbumManager.AlbumType",
          "name": "albumType",
          "type": "uint8"
        }
      ],
      "name": "AlbumCreated",
      "type": "event"
    },
    {
      "anonymous": false,
      "inputs": [
        {
          "indexed": true,
          "internalType": "uint256",
          "name": "albumId",
          "type": "uint256"
        },
        {
          "indexed": false,
          "internalType": "uint256",
          "name": "releaseDate",
          "type": "uint256"
        }
      ],
      "name": "AlbumPublished",
      "type": "event"
    },
    {
      "anonymous": false,
      "inputs": [
        {
          "indexed": true,
          "internalType": "address",
          "name": "previousOwner",
          "type": "address"
        },
        {
          "indexed": true,
          "internalType": "address",
          "name": "newOwner",
          "type": "address"
        }
      ],
      "name": "OwnershipTransferred",
      "type": "event"
    },
    {
      "anonymous": false,
      "inputs": [
        {
          "indexed": true,
          "internalType": "uint256",
          "name": "albumId",
          "type": "uint256"
        },
        {
          "indexed": true,
          "internalType": "uint256",
          "name": "songTokenId",
          "type": "uint256"
        }
      ],
      "name": "SongAddedToAlbum",
      "type": "event"
    },
    {
      "anonymous": false,
      "inputs": [
        {
          "indexed": true,
          "internalType": "uint256",
          "name": "albumId",
          "type": "uint256"
        },
        {
          "indexed": true,
          "internalType": "uint256",
          "name": "songTokenId",
          "type": "uint256"
        }
      ],
      "name": "SongRemovedFromAlbum",
      "type": "event"
    },
    {
      "inputs": [
        {
          "internalType": "uint256",
          "name": "albumId",
          "type": "uint256"
        },
        {
          "internalType": "uint256",
          "name": "songTokenId",
          "type": "uint256"
        }
      ],
      "name": "addSongToAlbum",
      "outputs": [],
      "stateMutability": "nonpayable",
      "type": "function"
    },
    {
      "inputs": [
        {
          "internalType": "uint256",
          "name": "",
          "type": "uint256"
        }
      ],
      "name": "albums",
      "outputs": [
        {
          "internalType": "uint256",
          "name": "albumId",
          "type": "uint256"
        },
        {
          "internalType": "address",
          "name": "artist",
          "type": "address"
        },
        {
          "internalType": "string",
          "name": "title",
          "type": "string"
        },
        {
          "internalType": "string",
          "name": "description",
          "type": "string"
        },
        {
          "internalType": "string",
          "name": "coverImageHash",
          "type": "string"
        },
        {
          "internalType": "enum AlbumManager.AlbumType",
          "name": "albumType",
          "type": "uint8"
        },
        {
          "internalType": "uint256",
          "name": "createdAt",
          "type": "uint256"
        },
        {
          "internalType": "uint256",
          "name": "releaseDate",
          "type": "uint256"
        },
        {
          "internalType": "bool",
          "name": "isPublished",
          "type": "bool"
        },
        {
          "internalType": "string",
          "name": "metadataURI",
          "type": "string"
        }
      ],
      "stateMutability": "view",
      "type": "function"
    },
    {
      "inputs": [
        {
          "internalType": "address",
          "name": "",
          "type": "address"
        },
        {
          "internalType": "uint256",
          "name": "",
          "type": "uint256"
        }
      ],
      "name": "artistAlbums",
      "outputs": [
        {
          "internalType": "uint256",
          "name": "",
          "type": "uint256"
        }
      ],
      "stateMutability": "view",
      "type": "function"
    },
    {
      "inputs": [
        {
          "internalType": "string",
          "name": "title",
          "type": "string"
        },
        {
          "internalType": "string",
          "name": "description",
          "type": "string"
        },
        {
          "internalType": "string",
          "name": "coverImageHash",
          "type": "string"
        },
        {
          "internalType": "enum AlbumManager.AlbumType",
          "name": "albumType",
          "type": "uint8"
        },
        {
          "internalType": "string",
          "name": "metadataURI",
          "type": "string"
        }
      ],
      "name": "createAlbum",
      "outputs": [
        {
          "internalType": "uint256",
          "name": "",
          "type": "uint256"
        }
      ],
      "stateMutability": "nonpayable",
      "type": "function"
    },
    {
      "inputs": [
        {
          "internalType": "uint256",
          "name": "albumId",
          "type": "uint256"
        }
      ],
      "name": "getAlbum",
      "outputs": [
        {
          "components": [
            {
              "internalType": "uint256",
              "name": "albumId",
              "type": "uint256"
            },
            {
              "internalType": "address",
              "name": "artist",
              "type": "address"
            },
            {
              "internalType": "string",
              "name": "title",
              "type": "string"
            },
            {
              "internalType": "string",
              "name": "description",
              "type": "string"
            },
            {
              "internalType": "string",
              "name": "coverImageHash",
              "type": "string"
            },
            {
              "internalType": "enum AlbumManager.AlbumType",
              "name": "albumType",
              "type": "uint8"
            },
            {
              "internalType": "uint256[]",
              "name": "songTokenIds",
              "type": "uint256[]"
            },
            {
              "internalType": "uint256",
              "name": "createdAt",
              "type": "uint256"
            },
            {
              "internalType": "uint256",
              "name": "releaseDate",
              "type": "uint256"
            },
            {
              "internalType": "bool",
              "name": "isPublished",
              "type": "bool"
            },
            {
              "internalType": "string",
              "name": "metadataURI",
              "type": "string"
            }
          ],
          "internalType": "struct AlbumManager.Album",
          "name": "",
          "type": "tuple"
        }
      ],
      "stateMutability": "view",
      "type": "function"
    },
    {
      "inputs": [
        {
          "internalType": "uint256",
          "name": "albumId",
          "type": "uint256"
        }
      ],
      "name": "getAlbumSongs",
      "outputs": [
        {
          "internalType": "uint256[]",
          "name": "",
          "type": "uint256[]"
        }
      ],
      "stateMutability": "view",
      "type": "function"
    },
    {
      "inputs": [
        {
          "internalType": "enum AlbumManager.AlbumType",
          "name": "albumType",
          "type": "uint8"
        }
      ],
      "name": "getAlbumTypeString",
      "outputs": [
        {
          "internalType": "string",
          "name": "",
          "type": "string"
        }
      ],
      "stateMutability": "pure",
      "type": "function"
    },
    {
      "inputs": [
        {
          "internalType": "address",
          "name": "artist",
          "type": "address"
        }
      ],
      "name": "getArtistAlbums",
      "outputs": [
        {
          "internalType": "uint256[]",
          "name": "",
          "type": "uint256[]"
        }
      ],
      "stateMutability": "view",
      "type": "function"
    },
    {
      "inputs": [
        {
          "internalType": "uint256",
          "name": "songTokenId",
          "type": "uint256"
        }
      ],
      "name": "isSongInAlbum",
      "outputs": [
        {
          "internalType": "bool",
          "name": "",
          "type": "bool"
        }
      ],
      "stateMutability": "view",
      "type": "function"
    },
    {
      "inputs": [],
      "name": "owner",
      "outputs": [
        {
          "internalType": "address",
          "name": "",
          "type": "address"
        }
      ],
      "stateMutability": "view",
      "type": "function"
    },
    {
      "inputs": [
        {
          "internalType": "uint256",
          "name": "albumId",
          "type": "uint256"
        },
        {
          "internalType": "uint256",
          "name": "releaseDate",
          "type": "uint256"
        }
      ],
      "name": "publishAlbum",
      "outputs": [],
      "stateMutability": "nonpayable",
      "type": "function"
    },
    {
      "inputs": [
        {
          "internalType": "uint256",
          "name": "albumId",
          "type": "uint256"
        },
        {
          "internalType": "uint256",
          "name": "songTokenId",
          "type": "uint256"
        }
      ],
      "name": "removeSongFromAlbum",
      "outputs": [],
      "stateMutability": "nonpayable",
      "type": "function"
    },
    {
      "inputs": [],
      "name": "renounceOwnership",
      "outputs": [],
      "stateMutability": "nonpayable",
      "type": "function"
    },
    {
      "inputs": [
        {
          "internalType": "uint256",
          "name": "",
          "type": "uint256"
        }
      ],
      "name": "songInAlbum",
      "outputs": [
        {
          "internalType": "bool",
          "name": "",
          "type": "bool"
        }
      ],
      "stateMutability": "view",
      "type": "function"
    },
    {
      "inputs": [
        {
          "internalType": "address",
          "name": "newOwner",
          "type": "address"
        }
      ],
      "name": "transferOwnership",
      "outputs": [],
      "stateMutability": "nonpayable",
      "type": "function"
    },
    {
      "inputs": [
        {
          "internalType": "uint256",
          "name": "albumId",
          "type": "uint256"
        },
        {
          "internalType": "string",
          "name": "title",
          "type": "string"
        },
        {
          "internalType": "string",
          "name": "description",
          "type": "string"
        },
        {
          "internalType": "string",
          "name": "coverImageHash",
          "type": "string"
        },
        {
          "internalType": "string",
          "name": "metadataURI",
          "type": "string"
        }
      ],
      "name": "updateAlbumMetadata",
      "outputs": [],
      "stateMutability": "nonpayable",
      "type": "function"
    }
  ],
  "bytecode": "0x608080604052346071573315605e575f8054336001600160a01b0319821681178355916001600160a01b03909116907f8be0079c531659141344cd1fd0a4f28419497f9722a3daafe3b4186f6b6457e09080a3611bf790816100768239f35b631e4fbdf760e01b5f525f60045260245ffd5b5f80fdfe60806040526004361015610011575f80fd5b5f3560e01c80633070cf1514611637578063369b91bf1461114157806337fd3e4514610f6c5780633dd3bc4814610f34578063715018a614610edd578063720484b214610ec45780637e21fea814610e8b5780638da5cb5b14610e6457806396d48f1a14610bfb5780639b57dca514610bcc578063c11ff21114610bcc578063d6e465c91461099c578063dd9b476714610944578063ea5df05914610844578063f2fde38b146107bf5763f5876a0d146100c9575f80fd5b346107bb5760a03660031901126107bb576004356001600160401b0381116107bb576100f99036906004016116d1565b6024356001600160401b0381116107bb576101189036906004016116d1565b6044356001600160401b0381116107bb576101379036906004016116d1565b916064359060038210156107bb576084356001600160401b0381116107bb576101649036906004016116d1565b81511561077e576004545f19811461076a576001019384600455846020809760405161019083826116b0565b5f81525f368137604051946101a486611694565b848652838601923384526040870191898352606088019081526080880191825260a08801926101d38c85611b8f565b60c0890194855260e089019542875260016101008b01985f8a526101208c019a5f8c526101408d019d8e525f525260405f2099518a5560018a019060018060a01b039051166bffffffffffffffffffffffff60a01b8254161790556002890190518051906001600160401b03821161053e578f829161025285546117c1565b601f811161073c575b5081601f84116001146106d857505f926106cd575b50508160011b915f199060031b1c19161790555b51805160038901916001600160401b03821161053e578e82916102a785546117c1565b601f811161069f575b5081601f841160011461063b57505f92610630575b50508160011b915f199060031b1c19161790555b51805160048801916001600160401b03821161053e578d82916102fc85546117c1565b601f8111610602575b5081601f841160011461059e57505f92610593575b50508160011b915f199060031b1c19161790555b600586019051600381101561057f5760ff80198354169116179055600685019051908151916001600160401b03831161053e57600160401b831161053e578b908254848455808510610564575b5001905f528a5f205f5b838110610552575050505090600a939291516007840155516008830155600982019051151560ff80198354169116179055019051918251916001600160401b03831161053e5785926103d782546117c1565b601f8111610505575b508794601f821160011461047d577fd981ebdfa0ec14f3269a05f071ccec3f8a3635ac9c12b15ba8b492c525882740949582915f92610472575b50508160011b915f199060031b1c19161790555b335f52600286526104428360405f206119b7565b61046461045a60405192604084526040840190611670565b948783019061178b565b8033940390a3604051908152f35b015190505f8061041a565b94601f19821695835f52895f20965f5b8b8282106104ec575050917fd981ebdfa0ec14f3269a05f071ccec3f8a3635ac9c12b15ba8b492c5258827409697918460019594106104d4575b505050811b01905561042e565b01515f1960f88460031b161c191690555f80806104c7565b848401518a556001909901988b9850938401930161048d565b61052e90835f52895f20601f840160051c8101918b8510610534575b601f0160051c01906119a1565b5f6103e0565b9091508190610521565b634e487b7160e01b5f52604160045260245ffd5b825182820155918c0191600101610385565b61057990845f5285845f2091820191016119a1565b5f61037b565b634e487b7160e01b5f52602160045260245ffd5b015190505f8061031a565b5f8681528181209450601f198616915b8282106105ea5750509084600195949392106105d2575b505050811b01905561032e565b01515f1960f88460031b161c191690555f80806105c5565b806001869782949787015181550196019401906105ae565b61062a90865f52835f20601f860160051c81019185871061053457601f0160051c01906119a1565b5f610305565b015190505f806102c5565b5f8681528181209450601f198616915b82821061068757505090846001959493921061066f575b505050811b0190556102d9565b01515f1960f88460031b161c191690555f8080610662565b8060018697829497870151815501960194019061064b565b6106c790865f52835f20601f860160051c81019185871061053457601f0160051c01906119a1565b5f6102b0565b015190505f80610270565b5f8681528181209450601f198616915b82821061072457505090846001959493921061070c575b505050811b019055610284565b01515f1960f88460031b161c191690555f80806106ff565b806001869782949787015181550196019401906106e8565b61076490865f52835f20601f860160051c81019185871061053457601f0160051c01906119a1565b5f61025b565b634e487b7160e01b5f52601160045260245ffd5b60405162461bcd60e51b81526020600482015260156024820152745469746c652063616e6e6f7420626520656d70747960581b6044820152606490fd5b5f80fd5b346107bb5760203660031901126107bb576107d861173c565b6107e0611b9b565b6001600160a01b03168015610831575f80546001600160a01b03198116831782556001600160a01b0316907f8be0079c531659141344cd1fd0a4f28419497f9722a3daafe3b4186f6b6457e09080a3005b631e4fbdf760e01b5f525f60045260245ffd5b346107bb5760203660031901126107bb576004355f52600160205260405f208054600160a01b600190036001830154169160028101610882906117f9565b9061088f600382016117f9565b9061089c600482016117f9565b91600582015460ff1692600783015490600884015492600985015460ff1694600a016108c7906117f9565b96604051998a998a5260208a015260408901610140905261014089016108ec91611670565b88810360608a01526108fd91611670565b878103608089015261090e91611670565b9360a0870161091c9161178b565b60c086015260e0850152151561010084015282810361012084015261094091611670565b0390f35b346107bb5760403660031901126107bb5761095d61173c565b6001600160a01b03165f908152600260205260409020805460243591908210156107bb5760209161098d91611798565b90549060031b1c604051908152f35b346107bb5760203660031901126107bb576040516109b981611694565b5f8152602081015f905260408101606090526060810160609052608081016060905260a081015f905260c081016060905260e081015f905261010081015f905261012081015f905261014001606090526004355f52600160205260405f20604051610a2381611694565b8154815260018201546001600160a01b031660208201908152610a48600284016117f9565b6040830190815292610a5c600382016117f9565b6060840190815293610a70600483016117f9565b9460808501958652600583015460ff169560a0860196610a909088611b8f565b610a9c600685016119f2565b9060c0870191825260078501549260e088019384526008860154946101008901958652600987015460ff16966101208a019715158852600a01610ade906117f9565b976101408a019889526040519960208b525160208b0152600160a01b6001900390511660408a0152516060890161016090526101808901610b1e91611670565b9051888203601f190160808a0152610b369190611670565b9051878203601f190160a0890152610b4e9190611670565b965160c08701610b5d9161178b565b5195601f198682030160e087015286519081815260200196602001905f5b818110610bb65787806109408b8a8a8a8a516101008701525161012086015251151561014085015251601f1984830301610160850152611670565b8251895260209889019890920191600101610b7b565b346107bb5760203660031901126107bb576004355f526003602052602060ff60405f2054166040519015158152f35b346107bb57610c0936611726565b815f526001602052610c2b60018060a01b03600160405f200154163314611917565b815f526001602052610c4760ff600960405f2001541615611955565b815f526001602052600660405f20015415610e2a575f82815260016020526040902060058101546006909101549060ff16600381101561057f5780610d2a5750600103610ce55760207fc12ea35d4495585719d173787584649d2315daa639af323b9c5f5368be169256915b835f5260018252600960405f2001600160ff19825416179055835f526001825280600860405f200155604051908152a2005b60405162461bcd60e51b815260206004820152601f60248201527f53696e676c65206d75737420686176652065786163746c79203120736f6e67006044820152606490fd5b600103610db65760028110159081610daa575b5015610d6c5760207fc12ea35d4495585719d173787584649d2315daa639af323b9c5f5368be16925691610cb3565b60405162461bcd60e51b81526020600482015260166024820152754550206d757374206861766520322d3620736f6e677360501b6044820152606490fd5b60069150111583610d3d565b600711610de65760207fc12ea35d4495585719d173787584649d2315daa639af323b9c5f5368be16925691610cb3565b606460405162461bcd60e51b815260206004820152602060248201527f416c62756d206d7573742068617665206174206c65617374203720736f6e67736044820152fd5b60405162461bcd60e51b8152602060048201526012602482015271416c62756d20686173206e6f20736f6e677360701b6044820152606490fd5b346107bb575f3660031901126107bb575f546040516001600160a01b039091168152602090f35b346107bb5760203660031901126107bb576004355f526001602052610940610eb8600660405f20016119f2565b60405191829182611752565b346107bb57610edb610ed536611726565b90611a3a565b005b346107bb575f3660031901126107bb57610ef5611b9b565b5f80546001600160a01b0319811682556001600160a01b03167f8be0079c531659141344cd1fd0a4f28419497f9722a3daafe3b4186f6b6457e08280a3005b346107bb5760203660031901126107bb576001600160a01b03610f5561173c565b165f526002602052610940610eb860405f206119f2565b346107bb57610f7a36611726565b90805f526001602052610f9d60018060a01b03600160405f200154163314611917565b805f526001602052610fb960ff600960405f2001541615611955565b815f52600360205260ff60405f2054166110fc575f81815260016020526040902060058101546006909101549060ff16600381101561057f578061109b575060011115611056575b805f52600160205261101982600660405f20016119b7565b815f52600360205260405f20600160ff198254161790557f7ba2a978ae8d5c03f927fdd98c0ab2399901f437d9081c0f162cbe00a2f23e3c5f80a3005b60405162461bcd60e51b815260206004820152601b60248201527f53696e676c652063616e206f6e6c792068617665203120736f6e6700000000006044820152606490fd5b6001146110a9575b50611001565b600611156110b757826110a3565b60405162461bcd60e51b815260206004820152601b60248201527f45502063616e2068617665206d6178696d756d203620736f6e677300000000006044820152606490fd5b60405162461bcd60e51b815260206004820152601860248201527f536f6e6720616c726561647920696e20616e20616c62756d00000000000000006044820152606490fd5b346107bb5760a03660031901126107bb576004356024356001600160401b0381116107bb576111749036906004016116d1565b906044356001600160401b0381116107bb576111949036906004016116d1565b6064356001600160401b0381116107bb576111b39036906004016116d1565b906084356001600160401b0381116107bb576111d39036906004016116d1565b93835f5260016020526111f660018060a01b03600160405f200154163314611917565b835f52600160205261121260ff600960405f2001541615611955565b8051611533575b50805161142f575b508051611329575b50815161123257005b5f526001602052600a60405f200181516001600160401b03811161053e5761125a82546117c1565b601f81116112f9575b50602092601f821160011461129d57928192935f92611292575b50508160011b915f199060031b1c1916179055005b01519050838061127d565b601f19821693835f52805f20915f5b8681106112e157508360019596106112c9575b505050811b019055005b01515f1960f88460031b161c191690558380806112bf565b919260206001819286850151815501940192016112ac565b61132390835f5260205f20601f840160051c8101916020851061053457601f0160051c01906119a1565b83611263565b9190805f526001602052600460405f200183516001600160401b03811161053e5761135482546117c1565b601f81116113ff575b50602094601f821160011461139e579481929394955f92611393575b50508160011b915f199060031b1c19161790555b82611229565b015190508580611379565b601f19821695835f52805f20915f5b8881106113e7575083600195969798106113cf575b505050811b01905561138d565b01515f1960f88460031b161c191690558580806113c2565b919260206001819286850151815501940192016113ad565b61142990835f5260205f20601f840160051c8101916020851061053457601f0160051c01906119a1565b8561135d565b825f526001602052600360405f2001908051906001600160401b03821161053e57819061145c84546117c1565b601f8111611503575b50602090601f83116001146114a0575f92611495575b50508160011b915f199060031b1c19161790555b83611221565b01519050868061147b565b5f8581528281209350601f198516905b8181106114eb57509084600195949392106114d3575b505050811b01905561148f565b01515f1960f88460031b161c191690558680806114c6565b929360206001819287860151815501950193016114b0565b61152d90855f5260205f20601f850160051c8101916020861061053457601f0160051c01906119a1565b87611465565b835f526001602052600260405f2001908051906001600160401b03821161053e57819061156084546117c1565b601f8111611607575b50602090601f83116001146115a4575f92611599575b50508160011b915f199060031b1c19161790555b84611219565b01519050878061157f565b5f8581528281209350601f198516905b8181106115ef57509084600195949392106115d7575b505050811b019055611593565b01515f1960f88460031b161c191690558780806115ca565b929360206001819287860151815501950193016115b4565b61163190855f5260205f20601f850160051c8101916020861061053457601f0160051c01906119a1565b88611569565b346107bb5760203660031901126107bb5760043560038110156107bb5761166061094091611899565b6040519182916020835260208301905b805180835260209291819084018484015e5f828201840152601f01601f1916010190565b61016081019081106001600160401b0382111761053e57604052565b90601f801991011681019081106001600160401b0382111761053e57604052565b81601f820112156107bb578035906001600160401b03821161053e5760405192611705601f8401601f1916602001856116b0565b828452602083830101116107bb57815f926020809301838601378301015290565b60409060031901126107bb576004359060243590565b600435906001600160a01b03821682036107bb57565b60206040818301928281528451809452019201905f5b8181106117755750505090565b8251845260209384019390920191600101611768565b90600382101561057f5752565b80548210156117ad575f5260205f2001905f90565b634e487b7160e01b5f52603260045260245ffd5b90600182811c921680156117ef575b60208310146117db57565b634e487b7160e01b5f52602260045260245ffd5b91607f16916117d0565b9060405191825f82549261180c846117c1565b80845293600181169081156118775750600114611833575b50611831925003836116b0565b565b90505f9291925260205f20905f915b81831061185b575050906020611831928201015f611824565b6020919350806001915483858901015201910190918492611842565b90506020925061183194915060ff191682840152151560051b8201015f611824565b600381101561057f5780156118f2576001146118d2576040516118bd6040826116b0565b6005815264416c62756d60d81b602082015290565b6040516118e06040826116b0565b6002815261045560f41b602082015290565b506040516119016040826116b0565b600681526553696e676c6560d01b602082015290565b1561191e57565b60405162461bcd60e51b815260206004820152600f60248201526e2737ba1030b6313ab69037bbb732b960891b6044820152606490fd5b1561195c57565b60405162461bcd60e51b815260206004820152601760248201527f416c62756d20616c7265616479207075626c69736865640000000000000000006044820152606490fd5b8181106119ac575050565b5f81556001016119a1565b90815491600160401b83101561053e57826119da91600161183195018155611798565b90919082549060031b91821b915f19901b1916179055565b90604051918281549182825260208201905f5260205f20925f5b818110611a21575050611831925003836116b0565b8454835260019485019487945060209093019201611a0c565b90815f526001602052611a5d60018060a01b03600160405f200154163314611917565b815f526001602052611a7960ff600960405f2001541615611955565b815f526001602052600660405f2001915f5b835480821015611b565783611aa08387611798565b90549060031b1c14611ab55750600101611a8b565b929391925f1981019190821161076a576119da611ad5611ae39385611798565b90549060031b1c9184611798565b80548015611b42575f190190611af98282611798565b8154905f199060031b1b1916905555815f52600360205260405f2060ff1981541690557fe8b2cc3b3e35fba234be1271bbdb236b6114e413078496181f6171b8e3c3210a5f80a3565b634e487b7160e01b5f52603160045260245ffd5b60405162461bcd60e51b8152602060048201526011602482015270536f6e67206e6f7420696e20616c62756d60781b6044820152606490fd5b600382101561057f5752565b5f546001600160a01b03163303611bae57565b63118cdaa760e01b5f523360045260245ffdfea26469706673582212201166351d0f14d2a79c116b8f1c33cd9786b46360523d195914630c8a2c347cb864736f6c634300081c0033",
  "linkReferences": {},
  "deployedLinkReferences": {}
}